:020000040800F2
:1000000000000220251500084D1300084F130008BA
:100010005113000853130008551300080000000096
:10002000000000000000000000000000A127000800
:100030005713000800000000412800080D250008A3
:100040007515000875150008751500087515000868
:100050007515000875150008751500087515000858
:100060007515000875150008751500087515000848
:100070007515000875150008751500087515000838
:1000800075150008751500087515000800000000BA
:1000900000000000000000000000000075150008CE
:1000A0007515000875150008751500087515000808
:1000B0007515000875150008591300087515000816
:1000C00075150008751500087515000875150008E8
:1000D000751500087515000875150008000000006A
:1000E000751500087515000875150008000000005A
:1000F000000000000000000000000000751500086E
:100100000000000075150008751500087515000839
:1001100000000000000000000000000000000000DF
:100120007515000875150008751500087515000887
:10013000751500080000000000000000000000002D
:10014000000000000000000000000000751500081D
:100150007515000875150008751500087515000857
:10016000751500087515000800000000000000006B
:10017000000000000000000000000000000000007F
:1001800000000000751500080000000000000000DD
:08019000751500087515000843
:1001C00081F0004102E000BF83F0004330B54FEA08
:1001D00041044FEA430594EA050F08BF90EA020F75
:1001E0001FBF54EA000C55EA020C7FEA645C7FEA08
:1001F000655C00F0E2804FEA5454D4EB5555B8BF2B
:100200006D420CDD2C4480EA020281EA030382EA9B
:10021000000083EA010180EA020281EA0303362D2D
:1002200088BF30BD11F0004F4FEA01314FF4801C00
:100230004CEA113102D0404261EB410113F0004F12
:100240004FEA03334CEA133302D0524263EB4303C9
:1002500094EA050F00F0A780A4F10104D5F1200E67
:100260000DDB02FA0EFC22FA05F2801841F10001C2
:1002700003FA0EF2801843FA05F359410EE0A5F196
:1002800020050EF1200E012A03FA0EFC28BF4CF0C7
:10029000020C43FA05F3C01851EBE37101F000457D
:1002A00007D54FF0000EDCF1000C7EEB00006EEB8A
:1002B0000101B1F5801F1BD3B1F5001F0CD3490814
:1002C0005FEA30004FEA3C0C04F101044FEA44526B
:1002D00012F5800F80F09A80BCF1004F08BF5FEAF2
:1002E000500C50F1000041EB045141EA050130BDD2
:1002F0005FEA4C0C404141EB0101013C28BFB1F5E4
:10030000801FE9D291F0000F04BF01460020B1FA2E
:1003100081F308BF2033A3F10B03B3F120020CDA01
:100320000C3208DD02F1140CC2F10C0201FA0CF0DF
:1003300021FA02F10CE002F11402D8BFC2F1200C44
:1003400001FA02F120FA0CFCDCBF41EA0C019040FA
:10035000E41AA2BF01EB0451294330BD6FEA040443
:100360001F3C1CDA0C340EDC04F11404C4F120022E
:1003700020FA04F001FA02F340EA030021FA04F340
:1003800045EA030130BDC4F10C04C4F1200220FA97
:1003900002F001FA04F340EA0300294630BD21FAD5
:1003A00004F0294630BD94F0000F83F4801306BF9B
:1003B00081F480110134013D4EE77FEA645C18BF8F
:1003C0007FEA655C29D094EA050F08BF90EA020F26
:1003D00005D054EA000C04BF1946104630BD91EA1E
:1003E000030F1EBF0021002030BD5FEA545C05D121
:1003F0004000494128BF41F0004130BD14F5800460
:100400003CBF01F5801130BD01F0004545F0FE41D3
:1004100041F470014FF0000030BD7FEA645C1ABF08
:10042000194610467FEA655C1CBF0B46024650EA3F
:10043000013406BF52EA033591EA030F41F400216B
:1004400030BD00BF90F0000F04BF0021704730B5F1
:100450004FF4806404F132044FF000054FF00001C6
:1004600050E700BF90F0000F04BF0021704730B587
:100470004FF4806404F1320410F0004548BF40425C
:100480004FF000013EE700BF42004FEAE2014FEAB1
:1004900031014FEA02701FBF12F07F4393F07F4F8C
:1004A00081F06051704732F07F4208BF704793F08F
:1004B0007F4F04BF41F40021704730B54FF46074A2
:1004C00001F0004521F000411CE700BF50EA0102A5
:1004D00008BF704730B54FF000050AE050EA01024E
:1004E00008BF704730B511F0004502D5404261EBBE
:1004F00041014FF4806404F132045FEA915C3FF4FF
:10050000D8AE4FF003025FEADC0C18BF03325FEA9B
:10051000DC0C18BF033202EBDC02C2F1200300FA4C
:1005200003FC20FA02F001FA03FE40EA0E0021FA71
:1005300002F11444BDE600BF70B54FF0FF0C4CF45F
:10054000E06C1CEA11541DBF1CEA135594EA0C0F11
:1005500095EA0C0F00F0DEF82C4481EA030621EA4C
:100560004C5123EA4C5350EA013518BF52EA033587
:1005700041F4801143F4801338D0A0FB02CE4FF039
:100580000005E1FB02E506F00042E0FB03E54FF069
:100590000006E1FB03569CF0000F18BF4EF0010E61
:1005A000A4F1FF04B6F5007F64F5407404D25FEA5D
:1005B0004E0E6D4146EB060642EAC62141EA555110
:1005C0004FEAC52040EA5E504FEACE2EB4F1FD0C52
:1005D00088BFBCF5E06F1ED8BEF1004F08BF5FEAD0
:1005E000500E50F1000041EB045170BD06F0004682
:1005F00046EA010140EA020081EA0301B4EB5C042F
:10060000C2BFD4EB0C0541EA045170BD41F4801126
:100610004FF0000E013C00F3AB8014F1360FDEBF4B
:10062000002001F0004170BDC4F10004203C35DA27
:100630000C341BDC04F11404C4F1200500FA05F3AA
:1006400020FA04F001FA05F240EA020001F000424B
:1006500021F0004110EBD37021FA04F642EB0601C1
:100660005EEA430E08BF20EAD37070BDC4F10C04EB
:10067000C4F1200500FA04F320FA05F001FA04F2AF
:1006800040EA020001F0004110EBD37041F100019B
:100690005EEA430E08BF20EAD37070BDC4F12005A6
:1006A00000FA05F24EEA020E20FA04F301FA05F20E
:1006B00043EA020321FA04F001F0004121FA04F2B6
:1006C00020EA020000EBD3705EEA430E08BF20EA86
:1006D000D37070BD94F0000F0FD101F000464000C0
:1006E00041EB010111F4801F08BF013CF7D041EA42
:1006F000060195F0000F18BF704703F00046520046
:1007000043EB030313F4801F08BF013DF7D043EA16
:100710000603704794EA0C0F0CEA135518BF95EACC
:100720000C0F0CD050EA410618BF52EA4306D1D153
:1007300081EA030101F000414FF0000070BD50EA72
:10074000410606BF1046194652EA430619D094EAFC
:100750000C0F02D150EA013613D195EA0C0F05D1E6
:1007600052EA03361CBF104619460AD181EA03013A
:1007700001F0004141F0FE4141F470014FF00000F2
:1007800070BD41F0FE4141F4780170BD70B54FF08D
:10079000FF0C4CF4E06C1CEA11541DBF1CEA13550D
:1007A00094EA0C0F95EA0C0F00F0A7F8A4EB0504EF
:1007B00081EA030E52EA03354FEA013100F08880E6
:1007C0004FEA03334FF0805545EA131343EA1263AF
:1007D0004FEA022245EA111545EA10654FEA002664
:1007E0000EF000419D4208BF964244F1FD0404F51D
:1007F000407402D25B084FEA3202B61A65EB030579
:100800005B084FEA32024FF480104FF4002CB6EB35
:10081000020E75EB030E22BFB61A754640EA0C00B5
:100820005B084FEA3202B6EB020E75EB030E22BFF5
:10083000B61A754640EA5C005B084FEA3202B6EB36
:10084000020E75EB030E22BFB61A754640EA9C00F5
:100850005B084FEA3202B6EB020E75EB030E22BFC5
:10086000B61A754640EADC0055EA060E18D04FEA83
:10087000051545EA16754FEA06164FEAC30343EA23
:1008800052734FEAC2025FEA1C1CC0D111F4801FF0
:100890000BD141EA00014FF000004FF0004CB6E7E9
:1008A00011F4801F04BF01430020B4F1FD0C88BF88
:1008B000BCF5E06F3FF6AFAEB5EB030C04BFB6EB93
:1008C000020C5FEA500C50F1000041EB045170BD86
:1008D0000EF0004E4EEA113114EB5C04C2BFD4EBB3
:1008E0000C0541EA045170BD41F480114FF0000E37
:1008F000013C90E645EA060E8DE60CEA135594EAB3
:100900000C0F08BF95EA0C0F3FF43BAF94EA0C0FB5
:100910000AD150EA01347FF434AF95EA0C0F7FF42A
:1009200025AF104619462CE795EA0C0F06D152EA7E
:1009300003353FF4FDAE1046194622E750EA410662
:1009400018BF52EA43067FF4C5AE50EA41047FF473
:100950000DAF52EA43057FF4EBAE12E74FF0FF3CD8
:1009600006E000BF4FF0010C02E000BF4FF0010CA9
:100970004DF804CD4FEA410C7FEA6C5C4FEA430C22
:1009800018BF7FEA6C5C1BD001B050EA410C0CBF71
:1009900052EA430C91EA030F02BF90EA020F0020D3
:1009A000704710F1000F91EA030F58BF994208BF3A
:1009B00090422CBFD8176FEAE37040F001007047F7
:1009C0004FEA410C7FEA6C5C02D150EA013C07D14E
:1009D0004FEA430C7FEA6C5CD6D152EA033CD3D099
:1009E0005DF8040B704700BF8446104662468C4693
:1009F0001946634600E000BF01B5FFF7B7FF0028C6
:100A000048BF10F1000F01BD4DF808EDFFF7F4FFEE
:100A10000CBF012000205DF808FB00BF4DF808ED79
:100A2000FFF7EAFF34BF012000205DF808FB00BF9C
:100A30004DF808EDFFF7E0FF94BF012000205DF8BE
:100A400008FB00BF4DF808EDFFF7CEFF94BF012073
:100A500000205DF808FB00BF4DF808EDFFF7C4FF6C
:100A600034BF012000205DF808FB00BF4FEA4102BF
:100A700012F5001215D211D56FF47873B3EB6252F0
:100A800012D94FEAC12343F0004343EA505311F017
:100A9000004F23FA02F018BF404270474FF00000A9
:100AA000704750EA013005D111F0004008BF6FF0E7
:100AB000004070474FF00000704700BF53B94AB97B
:100AC000002908BF00281CBF4FF0FF314FF0FF3056
:100AD00000F0E2B8ADF1080C6DE904CE03F0A4FB20
:100AE000DDF804E0DDE9022304B0704700F13401D1
:100AF00091E838009C46A6464CF8045D90E8FF0F4C
:100B0000E54600BD90EC210B704700BF80EC210B47
:100B1000704700BF90EC200B704700BF80EC200BAB
:100B2000704700BFD0EC200B704700BFC0EC200B1B
:100B3000704700BFF0EC0201F0EC0211F0EC022172
:100B4000F0EC0231F0EC0241F0EC0251F0EC026109
:100B5000F0EC0271F0EC0281F0EC0291F0EC02A1F9
:100B6000F0EC02B1F0EC02C1F0EC02D1F0EC02E1E9
:100B7000F0EC02F1704700BFE0EC0201E0EC021182
:100B8000E0EC0221E0EC0231E0EC0241E0EC025149
:100B9000E0EC0261E0EC0271E0EC0281E0EC029139
:100BA000E0EC02A1E0EC02B1E0EC02C1E0EC02D129
:100BB000E0EC02E1E0EC02F1704700BFB0FC018123
:100BC000B0FC0191B0FC01A1B0FC01B1704700BFC5
:100BD000A0FC0181A0FC0191A0FC01A1A0FC01B13D
:100BE000704700BFEC4600B52DE900502DE9FF1F0E
:100BF0004FF000032DE90C0001A903F0EFFDDDF833
:100C000040E012B0704700BFEC4600B52DE900503F
:100C10002DE9FF1F4FF000032DE90C0001A903F09F
:100C20001BFEDDF840E012B0704700BFEC4600B597
:100C30002DE900502DE9FF1F4FF000032DE90C00B6
:100C400001A903F02BFEDDF840E012B0704700BFB1
:100C5000EC4600B52DE900502DE9FF1F4FF00003D1
:100C60002DE90C0001AB03F0EFFDDDF840E012B020
:100C7000704700BFEC4600B52DE900502DE9FF1F7D
:100C80004FF000032DE90C0001AA03F063FEDDF82C
:100C900040E012B0704700BF704700BF844641EA91
:100CA000000313F003036DD1403A41D351F8043BE4
:100CB00040F8043B51F8043B40F8043B51F8043B36
:100CC00040F8043B51F8043B40F8043B51F8043B26
:100CD00040F8043B51F8043B40F8043B51F8043B16
:100CE00040F8043B51F8043B40F8043B51F8043B06
:100CF00040F8043B51F8043B40F8043B51F8043BF6
:100D000040F8043B51F8043B40F8043B51F8043BE5
:100D100040F8043B51F8043B40F8043B51F8043BD5
:100D200040F8043B51F8043B40F8043B403ABDD244
:100D3000303211D351F8043B40F8043B51F8043BE6
:100D400040F8043B51F8043B40F8043B51F8043BA5
:100D500040F8043B103AEDD20C3205D351F8043B75
:100D600040F8043B043AF9D2043208D0D2071CBF41
:100D700011F8013B00F8013B01D30B88038060466A
:100D8000704700BF082A13D38B078DD010F00303E0
:100D90008AD0C3F10403D21ADB071CBF11F8013B50
:100DA00000F8013B80D331F8023B20F8023B7BE79F
:100DB000043AD9D3013A11F8013B00F8013BF9D2CA
:100DC0000B7803704B7843708B7883706046704764
:100DD0000000000000000000000000000000000013
:100DE0000000000000000000000000000000000003
:100DF00000000000000000000000000000000000F3
:100E000030B490F800F020F007016FF0000C10F003
:100E1000070491F820F040F048804FF000046FF094
:100E20000700D1E9002391F840F000F1080082FAB0
:100E30004CF2A4FA8CF283FA4CF3A2FA8CF34BBB7B
:100E4000D1E9022382FA4CF200F10800A4FA8CF2F4
:100E500083FA4CF3A2FA8CF3E3B9D1E9042382FAC2
:100E60004CF200F10800A4FA8CF283FA4CF3A2FAD7
:100E70008CF37BB9D1E9062301F1200182FA4CF20F
:100E800000F10800A4FA8CF283FA4CF3A2FA8CF376
:100E9000002BC6D0002A04BF04301A4612BAB2FA98
:100EA00082F200EBD20030BC7047D1E9002304F09D
:100EB0000305C4F100004FEAC50514F0040F91F8D2
:100EC00040F00CFA05F562EA05021CBF63EA05036F
:100ED00062464FF00004AAE7000000000000000096
:100EE00001F0FF01102A2BDB10F0070F08D010F8DB
:100EF000013B013A8B422DD010F0070F42B3F6D1DF
:100F0000F0B441EA012141EA014122F007047FF0F7
:100F100000070023F0E80256083C85EA010586EA4E
:100F2000010685FA47F5A3FA87F586FA47F6A5FA8A
:100F300087F68EB9EED1F0BC01F0FF0102F0070296
:100F400032B110F8013B013A83EA010313B1F8D141
:100F50000020704701387047002D06BF3546033822
:100F6000073815F0010F07D1013015F4807F02BF5B
:100F7000013015F4C03F0130F0BC0138704700BFAC
:100F80004FEA410C7FEA6C5C02D150EA013C0AD185
:100F90004FEA430C7FEA6C5C02D152EA033C02D177
:100FA0004FF0000070474FF0010070470348044BBA
:100FB000834202D0034B03B118477047E406002078
:100FC000E4060020000000000548064B1B1AD90F5C
:100FD00001EBA301491002D0034B03B1184770473E
:100FE000E4060020E40600200000000010B5064CD6
:100FF000237843B9FFF7DAFF044B13B10448AFF38A
:1010000000800123237010BDE806002000000000CE
:1010100014C0000808B5054B1BB105490548AFF3DE
:101020000080BDE80840FFF7CFBF00BF0000000010
:10103000EC06002014C0000808B5C82002F02AFD04
:101040004FF40051014800F015FCF6E7000802409B
:1010500010B584B00023039303AA01921C220092CE
:101060004FF4FA620849094802F075FB044603E0B0
:101070004FF4FA7002F00EFD012CF9D1044800F093
:101080002FFA04B010BD00BF30C0000839100008AE
:101090003CC0000808B5FFF7DBFF4FF4967002F084
:1010A000F9FCFAE77047000008B5044A002104483B
:1010B00001F066FA034B186008BD00BF14C20008B7
:1010C0009510000804070020F0B58BB005AD002492
:1010D000059406940794089409940194274B1A6B7D
:1010E00042F004021A631A6B02F004020192019AA0
:1010F00002941A6B42F080021A631A6B02F08002AB
:101100000292029A03941A6B42F001021A631A6B5C
:1011100002F001020392039A04941A6B42F0020255
:101120001A631B6B03F002030493049B144F2246C3
:101130004FF40051384600F097FB124E22464FF410
:101140004071304600F090FB4FF4005305930123AB
:101150000693079408942946384600F0A1FA4FF404
:10116000407305931123069307940223089329469D
:10117000304600F095FA0BB0F0BD00BF00380240D9
:10118000000802400004024008B50268034B9A427E
:1011900000D008BD00F00AFAFBE700BF00080040DD
:1011A00072B6FEE710B594B008AC3022002120469C
:1011B00004F006FA00230393049305930693079320
:1011C00001931E4A116C41F080511164126C02F0BF
:1011D00080520192019A0293194A116841F44041E8
:1011E0001160126802F440420292029A02220892AE
:1011F00001210B9110210C910E920F930823109353
:1012000064231193129204231393204600F03CFBB5
:1012100080B90F23039302230493002305934FF413
:10122000805206920793032103A800F07DFD18B9B0
:1012300014B010BDFFF7B4FFFFF7B2FF0038024053
:101240000070004008B500F097F9FFF7ABFFFFF71B
:101250003BFF00F0F1F801F065F9FFF725FF01F021
:1012600073F9FEE700B583B0002200920D4B596C74
:1012700041F480415964596C01F480410091009916
:101280000192196C41F0805119641B6C03F080537A
:101290000193019B0F216FF0010000F0EDF903B005
:1012A0005DF804FB0038024030B589B004460023E5
:1012B0000193214B1A6C42F004021A641B6C03F078
:1012C00004030193019B02A903A800F003FE069BFF
:1012D000CBB900F0DFFD0346184AA2FB03239B0CA9
:1012E000013B1748174A026040F2E732C260436090
:1012F000002303618360836100F04CFF054630B139
:10130000284609B030BD00F0C5FD4300E4E70C48B5
:1013100000F000FE05460028F2D11E2000F0BCF9C6
:101320000F2C01D90125EBE7002221461E2000F0F9
:10133000A3F9054B1C60E3E70038024083DE1B4342
:10134000080700200008004008000020FEE7FEE734
:10135000FEE7FEE7FEE7704708B5024800F018FE1A
:1013600008BD00BF080700200120704708B504F041
:1013700043FA162303604FF0FF3008BD08B54FF065
:10138000FF31FFF7F3FFFEE770B50C461646002568
:1013900006E0AFF30080214601F8010B01350C4651
:1013A000B542F6DB304670BD70B50C4616460025DA
:1013B00004E014F8010BAFF300800135B542F8DB0F
:1013C000304670BD4FF0FF3070474FF400534B6014
:1013D00000207047012070470020704710B5034679
:1013E0000C4A0D490D48006840B10C4800680344A0
:1013F000521A934206D8094A136010BD0748084C98
:101400000460F2E704F0F8F90C2303604FF0FF30BA
:10141000F3E700BF00000220000400005007002096
:1014200090560020034AD2F8883043F47003C2F883
:101430008830704700ED00E008B50A480A4B0360A9
:101440004FF4E133436000238360C36003610C22E7
:1014500042618361C36100F0C4FF00B908BDFFF7BA
:101460009FFEFBE7540700200010014000B589B043
:10147000002303930493059306930793026803F1F3
:10148000804303F588339A4202D009B05DF804FB2B
:101490000021019103F594335A6C42F010025A6412
:1014A0005A6C02F010020192019A02911A6B42F0FA
:1014B00001021A631B6B03F001030293029B4FF4BA
:1014C000C063039302230493032306930723079324
:1014D00003A9024800F0E4F8D7E700BF000002408B
:1014E0000FB410B5ADF5816D0DF5826353F8042B83
:1014F000CDF8043401AC4FF48061204604F024F8A8
:101500002046FFF77DFC4FF0FF3382B221460448AE
:1015100000F097FF0DF5816DBDE8104004B07047F5
:1015200054070020DFF834D0FFF77CFF0C480D494A
:101530000D4A002302E0D458C4500433C4188C422E
:10154000F9D30A4A0A4C002301E013600432A24294
:10155000FBD304F057F9FFF775FE70470000022037
:1015600000000020E406002060C50008E806002016
:101570008C560020FEE7000008B50B4B1A6842F4B9
:1015800000721A601A6842F480621A601A6842F4A3
:1015900080721A60032000F05DF80F20FFF784FED0
:1015A000FFF760FE002008BD003C0240034A1168BE
:1015B000034B1B780B441360704700BF9C0700204F
:1015C00004000020014B1868704700BF9C070020F2
:1015D000002807DB00F01F02400901239340024A64
:1015E00042F82030704700BF00E100E0002808DB2F
:1015F0000901C9B200F1604000F5614080F80013B4
:10160000704700F00F000901C9B2014B195470472F
:1016100014ED00E000B500F00700C0F1070CBCF1CC
:10162000040F28BF4FF0040C031D062B0FD9C31E57
:101630004FF0FF3E0EFA0CF021EA000199400EFA3D
:1016400003FE22EA0E0241EA02005DF804FB0023D9
:10165000EEE70000074AD36823F4E0631B041B0C89
:10166000000200F4E060034343F0BF6343F400333F
:10167000D360704700ED00E010B50446054BD86814
:10168000C0F30220FFF7C6FF01462046FFF7AEFF7A
:1016900010BD00BF00ED00E008B5FFF799FF08BDE1
:1016A00000230F2B00F2D78070B582B065E085680B
:1016B0004FEA430E032404FA0EF425EA0405CC682D
:1016C00004FA0EF42C438460446824EA02044A6855
:1016D000C2F300129A40224342605CE0DC08083406
:1016E00050F8242003F00705AD004FF00F0E0EFA5E
:1016F00005FE22EA0E0E0A69AA4042EA0E0240F8EE
:1017000024205CE0042200E0002202FA0EF22A43C8
:101710000234514D45F82420504A94686FEA0C0277
:1017200024EA0C054E6816F4801F01D04CEA04052B
:101730004A4CA560E46802EA04054E6816F4001FEE
:1017400001D04CEA0405454CE560646802EA0405F2
:101750004E6816F4003F01D04CEA04053F4C65602A
:10176000246822404D6815F4803F01D04CEA040201
:101770003A4C226001330F2B6BD801229A400C683F
:1017800004EA020C32EA0404F4D14C6804F00304C5
:10179000013C012C8BD94A6802F00302032A09D0CC
:1017A000C4685D000322AA4024EA02048A68AA40B1
:1017B0002243C2604A6802F00302022A8ED0046803
:1017C0004FEA430E032202FA0EF224EA02044A68A8
:1017D00002F0030202FA0EF2224302604A6812F497
:1017E000403FC7D0002201921D4A546C44F480440B
:1017F0005464526C02F480420192019A9C08A51C28
:10180000154A52F8255003F0030E4FEA8E0E0F22B0
:1018100002FA0EF225EA0205124A90423FF474AF32
:1018200002F5806290420ED002F5806290420CD0A8
:1018300002F5806290420AD002F5806290423FF445
:1018400061AF072261E701225FE702225DE7032221
:101850005BE702B070BD704700380140003C0140BA
:1018600000380240000002400AB18161704709045B
:1018700081617047436901EA030221EA030141EAF9
:101880000241816170470000002800F0E08170B5DE
:1018900082B00446036813F0010F3BD09F4B9B6856
:1018A00003F00C03042B2CD09C4B9B6803F00C031F
:1018B000082B21D06368B3F5803F4FD0B3F5A02F3C
:1018C00052D0964B1A6822F480321A601A6822F4B9
:1018D00080221A606368002B50D0FFF773FE054624
:1018E0008E4B1B6813F4003F14D1FFF76BFE401BB7
:1018F0006428F5D90320B1E1884B5B6813F4800FAD
:10190000D8D0864B1B6813F4003F03D06368002BCC
:1019100000F09F81236813F0020F54D07F4B9B6827
:1019200013F00C0F3ED07D4B9B6803F00C03082B8B
:1019300033D0E368002B68D0794B01221A60FFF79F
:1019400041FE0546754B1B6813F0020F54D1FFF79B
:1019500039FE401B0228F5D903207FE16F4A136846
:1019600043F480331360B5E76C4B1A6842F480226D
:101970001A601A6842F480321A60ABE7FFF722FE61
:101980000546664B1B6813F4003FC3D0FFF71AFEF1
:10199000401B6428F5D9032060E1604B5B6813F4B9
:1019A000800FC6D15D4B1B6813F0020F03D0E368B4
:1019B000012B40F05081594A136823F0F803216944
:1019C00043EAC1031360236813F0080F42D0636930
:1019D0006BB3534B0122C3F8802EFFF7F3FD05468E
:1019E0004E4B5B6F13F0020F34D1FFF7EBFD401B42
:1019F0000228F5D9032031E1484A136823F0F8039F
:101A0000216943EAC1031360DDE7454B00221A60F8
:101A1000FFF7D8FD0546414B1B6813F0020FD2D0EB
:101A2000FFF7D0FD401B0228F5D9032016E13C4BFF
:101A30000022C3F8802EFFF7C5FD0546374B5B6FCC
:101A400013F0020F06D0FFF7BDFD401B0228F5D9A9
:101A5000032003E1236813F0040F77D02F4B1B6C96
:101A600013F0805F33D1002301932C4B1A6C42F0AA
:101A700080521A641B6C03F080530193019B012573
:101A8000284B1B6813F4807F23D0A368012B34D02C
:101A9000052B38D0214B1A6F22F001021A671A6FFA
:101AA00022F004021A67A368002B3DD0FFF78AFDDD
:101AB00006461A4B1B6F13F0020F46D1FFF782FD4B
:101AC000801B41F288339842F3D90320C6E00025F9
:101AD000D6E7144A136843F480731360FFF772FD6E
:101AE0000646104B1B6813F4807FCED1FFF76AFDCA
:101AF000801B0228F5D90320B0E0084A136F43F099
:101B000001031367CFE7054B1A6F42F004021A670F
:101B10001A6F42F001021A67C5E700BF00380240A1
:101B20000000474200700040FFF74CFD0646524B54
:101B30001B6F13F0020F08D0FFF744FD801B41F22A
:101B400088339842F3D9032088E0EDB9A369002BCC
:101B500000F08380484A926802F00C02082A51D0B3
:101B6000022B17D0454B00221A66FFF72BFD0446C7
:101B7000414B1B6813F0007F42D0FFF723FD001B91
:101B80000228F5D9032069E03B4A136C23F0805307
:101B90001364DBE7394B00221A66FFF713FD054695
:101BA000354B1B6813F0007F06D0FFF70BFD401B81
:101BB0000228F5D9032051E0E369226A1343626ADF
:101BC00043EA8213A26A5208013A43EA0243E26AF4
:101BD00043EA0263284A5360284B01221A66FFF742
:101BE000F1FC0446244B1B6813F0007F06D1FFF77D
:101BF000E9FC001B0228F5D903202FE000202DE08E
:101C000000202BE0012B2BD01B4B5B6803F48001E1
:101C1000E269914226D103F03F02216A8A4223D130
:101C2000616A47F6C0721A40B2EB811F1ED103F4FD
:101C30004031A26A5208013AB1EB024F18D103F0C9
:101C40007063E26AB3EB026F14D1002006E001205A
:101C50007047012002E0012000E0002002B070BDCA
:101C60000120FBE70120F9E70120F7E70120F5E774
:101C70000120F3E70120F1E700380240000047426D
:101C800008B5264B9B6803F00C03042B41D0082BAE
:101C900041D1224B5A6802F03F025B6813F4800F77
:101CA00012D01E4B5968C1F388111D480023A1FBB7
:101CB0000001FEF703FF194B5B68C3F301430133D7
:101CC0005B00B0FBF3F008BD144B5868C0F38810FC
:101CD0004FEA401CBCEB000C6EEB0E0E4FEA8E136D
:101CE00043EA9C634FEA8C11B1EB0C0163EB0E03EA
:101CF000DB0043EA5173C90011EB000C43F1000310
:101D0000990200234FEA8C2041EA9C51FEF7D6FE4F
:101D1000D1E70348D7E70348D5E700BF00380240C2
:101D200040787D010024F400002800F09B8070B50D
:101D30000D4604464F4B1B6803F007038B4208D245
:101D4000CBB24C4A1370136803F007038B4240F088
:101D50008B80236813F0020F17D013F0040F04D008
:101D6000454A936843F4E0539360236813F0080FE7
:101D700004D0414A936843F4604393603E4A9368B9
:101D800023F0F003A1680B439360236813F0010F65
:101D900032D06368012B21D09A1E012A25D9364AF8
:101DA000126812F0020F61D033498A6822F00302F0
:101DB00013438B60FFF706FC06462F4B9B6803F02E
:101DC0000C036268B3EB820F16D0FFF7FBFB801B9E
:101DD00041F288339842F0D9032042E0264A126843
:101DE00012F4003FE0D101203BE0234A126812F0D8
:101DF000007FD9D1012034E01E4B1B6803F007039C
:101E0000AB4207D9EAB21B4B1A701B6803F00703F9
:101E1000AB422DD1236813F0040F06D0164A936805
:101E200023F4E053E1680B439360236813F0080F39
:101E300007D0114A936823F46043216943EAC10340
:101E40009360FFF71DFF0C4B9B68C3F303130B4A12
:101E5000D35CD8400A4B18600A4B1868FFF724FA85
:101E6000002070BD012070470120FAE70120F8E74B
:101E70000120F6E7003C02400038024040C2000862
:101E80000000002008000020014B1868704700BFC8
:101E90000000002008B5FFF7F7FF044B9B68C3F371
:101EA0008223034AD35CD84008BD00BF00380240FB
:101EB00038C2000808B5FFF7E7FF044B9B68C3F37F
:101EC0004233034AD35CD84008BD00BF003802400B
:101ED00038C200080F2303600B4B9A6802F003021C
:101EE00042609A6802F0F00282609A6802F4E0525E
:101EF000C2609B68DB0803F4E0530361034B1B687B
:101F000003F007030B60704700380240003C0240BA
:101F10007047000090F83D30012B2FD1022380F84C
:101F20003D300268D36843F00103D3600368154A6B
:101F3000934218D0B3F1804F15D0A2F57C42934262
:101F400011D002F5806293420DD002F58062934277
:101F500009D002F59A32934205D01A6842F0010284
:101F60001A60002070479A6802F00702062A07D01C
:101F70001A6842F001021A60002070470120704781
:101F8000002070470000014070477047704770475D
:101F900070B504460368DE681D6915F0020F10D0A5
:101FA00016F0020F0DD06FF002021A6101230377C1
:101FB00003689B6913F0030F5ED0FFF7E6FF002371
:101FC000237715F0040F12D016F0040F0FD02368FA
:101FD0006FF004021A610223237723689B6913F4CC
:101FE000407F4FD02046FFF7D0FF0023237715F026
:101FF000080F12D016F0080F0FD023686FF00802F8
:102000001A61042323772368DB6913F0030F40D0A0
:102010002046FFF7BAFF0023237715F0100F12D0E8
:1020200016F0100F0FD023686FF010021A6108230A
:1020300023772368DB6913F4407F31D02046FFF714
:10204000A4FF0023237715F0010F02D016F0010F33
:102050002DD115F0800F02D016F0800F2FD115F082
:10206000400F02D016F0400F31D115F0200F02D0F2
:1020700016F0200F33D170BDFFF786FF2046FFF723
:1020800085FF9CE72046FFF77FFF2046FFF77EFF96
:10209000ABE72046FFF778FF2046FFF777FFBAE768
:1020A0002046FFF771FF2046FFF770FFC9E723685E
:1020B0006FF001021A612046FFF766F8C9E723684E
:1020C0006FF080021A61204600F091F8C7E723689C
:1020D0006FF040021A612046FFF759FFC5E72368F9
:1020E0006FF020021A61204600F080F8C3E700007C
:1020F0000368274A90420ED0B0F1804F0BD0A2F572
:102100007C42904207D002F58062904203D002F5F3
:102110008062904203D123F070034A6813431C4A43
:1021200090421AD0B0F1804F17D0A2F57C42904275
:1021300013D002F5806290420FD002F58062904287
:102140000BD002F59A32904207D002F5806290429D
:1021500003D002F58062904203D123F44073CA6831
:10216000134323F080034A6913438A68C2620A68F2
:102170008262074A904207D0026842F0040202607D
:1021800001224261036070470A690263F4E700BFFD
:102190000000014040B310B5044690F83D30F3B163
:1021A000022384F83D30214651F8040BFFF7A0FFCD
:1021B000012384F8463084F83E3084F83F3084F8B8
:1021C000403084F8413084F8423084F8433084F859
:1021D000443084F8453084F83D30002010BD80F84C
:1021E0003C30FFF795FEDBE70120704770477047F2
:1021F000026802F10C0353E8003F23F490730C32A1
:1022000042E800310029F3D1026802F1140353E8D7
:10221000003F23F00103143242E800310029F3D1DA
:10222000036B012B05D0202380F842300023036389
:102230007047026802F10C0353E8003F23F01003DB
:102240000C3242E800310029F3D1ECE710B5044626
:102250000268136923F44053C1680B431361836818
:1022600002691A4343691A43C3691A430168CB6878
:1022700023F4164323F00C031343CB600268536925
:1022800023F4407381690B4353610368314A9342DD
:1022900006D002F58062934202D0FFF7FBFD01E019
:1022A000FFF708FEE369B3F5004F29D000210318BA
:1022B00049411B1841F10001C90041EA5371DB009B
:1022C000181863684FEA83024FEA937341F10001E3
:1022D000FEF7F4FB204AA2FB00314909642303FB0B
:1022E00011031B013233A2FB03235B0903F0F0024D
:1022F00002EB011203F00F03216813448B6010BD41
:102300000023021843EB0301121841F10001C90038
:1023100041EA5271D200101841F10001626892182E
:102320005B41FEF7CBFB0C4AA2FB00314909642359
:1023300003FB1103DB003233A2FB03235B095A00CA
:1023400002F4F87202EB011203F007032168134450
:102350008B60D4E7001001401F85EB512DE9F0435D
:1023600083B005460E4617469946DDF828802B684F
:102370001C6836EA04040CBF01240024BC4228D1A6
:10238000B8F1FF3FF3D0FFF71DF9A0EB090040457E
:1023900023D8B8F1000F22D02B68DA6812F0040FAE
:1023A000E5D0802EE3D0402EE1D01A6812F0080F5D
:1023B000DDD0002401941A6801925B680193019BAF
:1023C0002846FFF715FF08236B6485F8404001207D
:1023D00000E0002003B0BDE8F0830320FAE703200B
:1023E000F8E760B310B5044690F8413013B32423E6
:1023F00084F841302268D36823F40053D360204628
:10240000FFF724FF2268136923F4904313612268C5
:10241000536923F02A0353612268D36843F40053BD
:10242000D36000206064202384F8413084F8423077
:10243000606310BD80F84030FFF718F8D7E701203F
:1024400070472DE9F04182B01E4690F84130202BB4
:1024500056D104460D469046002955D00AB90120B0
:102460004FE000234364212380F84130FFF7AAF8AE
:102470000746A4F82480A4F82680A368B3F5805FFB
:1024800002D04FF0000814E023692BB34FF000088E
:102490000FE0202384F84130032032E038F8023B7B
:1024A0002268C3F308035360E28C92B2013A92B2FD
:1024B000E284E38C9BB293B100963B4600228021DC
:1024C0002046FFF74BFF0028E3D1002DE6D015F89A
:1024D000012B23685A60E7E7A8460025E9E7009644
:1024E0003B46002240212046FFF738FF18B9202341
:1024F00084F8413005E0202384F84130032000E0D7
:10250000022002B0BDE8F0810120FAE708B54FF0E3
:10251000E0231B6901F006FC012800D108BD00F092
:10252000C1F9FBE7EFF305832BB9064B186828B90F
:1025300001221A6070476FF0050070474FF0FF30BE
:10254000704700BFE0100020EFF3058373B90A4B1A
:102550001B68012B0DD110B50024084BDC77064B0E
:1025600002221A6001F02AF9204610BD6FF0050022
:1025700070474FF0FF307047E010002000ED00E0A2
:10258000F0B587B000240594EFF305840CBB00B3CD
:10259000002A35D0156893692BB11E46013B372BB5
:1025A00002D9002016E01826536813F0010F40D11D
:1025B00054698CB14FEA940C936833B1D768B7F57E
:1025C000D07F02D3176907B184B943B14FF0FF330D
:1025D0000BB3059807B0F0BD4FF0800CECE7D36863
:1025E000A3B91369ABB14FF0FF33F1E70293019741
:1025F00000960B466246294601F070F80590E8E720
:102600001546002318264FF0800CE1E74FF0FF330A
:10261000DEE70023DCE705AB019300960B461FFACB
:102620008CF2294601F097F80128D2D000230593B7
:10263000CFE70020CEE70000034B0360034B0B60A5
:1026400080231360704700BF400F0020400D002022
:10265000034B0360034B0B604FF4807313607047B0
:10266000A00B0020A007002000F1080343604FF0FA
:10267000FF328260C3600361002303607047002360
:102680000361704743684B609A688A605160996043
:102690000861036801330360704730B40D68B5F119
:1026A000FF3F11D000F108031C465B681A68AA427C
:1026B000FAD963684B6099608C6061600861036857
:1026C0000133036030BC70470469F2E70369416875
:1026D00082688A60416851605A68824206D000224E
:1026E00002611A68013A1A601868704782685A6075
:1026F000F5E7000082B0002301930D4B1B68B3F196
:10270000FF3F08D04FF0500383F31188BFF36F8F62
:10271000BFF34F8FFEE74FF0500383F31188BFF3F1
:102720006F8FBFF34F8F019B002BFCD002B070471F
:102730000C00002008480068006880F308884FF00B
:10274000000080F3148862B661B6BFF34F8FBFF309
:102750006F8F00DF00BF000008ED00E0DFF80C0025
:10276000016841F4700101607047000088ED00E0ED
:102770004FF0807340F8043C21F0010140F8081C40
:10278000054B40F80C3C40F8202C6FF0020340F859
:10279000243C4438704700BFF526000800000000C4
:1027A000074B19680868B0E8F04F80F30988BFF359
:1027B0006F8F4FF0000080F311887047AFF30080F7
:1027C000485200204FF0500383F31188BFF36F8FFE
:1027D000BFF34F8F0B4A136801331360012B00D0F6
:1027E00070474FF0E023D3F8043D13F0FF0FF7D00C
:1027F0004FF0500383F31188BFF36F8FBFF34F8FF8
:10280000FEE700BF0C000020094B1B6843B94FF0E6
:10281000500383F31188BFF36F8FBFF34F8FFEE731
:10282000013B034A13600BB983F31188704700BF63
:102830000C0000200000000000000000000000006C
:10284000EFF30980BFF36F8F154B1A681EF0100F5E
:1028500008BF20ED108A20E9F04F10602DE9090033
:102860004FF0500080F31188BFF34F8FBFF36F8F8D
:1028700001F036F94FF0000080F3118809BC1968A7
:102880000868B0E8F04F1EF0100F08BFB0EC108AD7
:1028900080F30988BFF36F8F704700BFAFF30080EC
:1028A0004852002008B54FF0500383F31188BFF35E
:1028B0006F8FBFF34F8F00F0E5FF28B14FF0E0239B
:1028C0004FF08052C3F8042D002383F3118808BD14
:1028D0004FF0E022002313619361054B1B6805490B
:1028E000A1FB03139B09013B53610723136170474D
:1028F00000000020D34D62104FF0E023D3F8002DEC
:102900003D4B9A421CD04FF0E023D3F8002D3B4BB7
:102910009A421ED030B583B0394B1A78D2B20192A8
:10292000FF221A701B78DBB28DF803309DF803305C
:1029300003F05003334A1370334B07221A601BE035
:102940004FF0500383F31188BFF36F8FBFF34F8FA6
:10295000FEE74FF0500383F31188BFF36F8FBFF38F
:102960004F8FFEE7284A1368013B13609DF8033040
:102970005B00DBB28DF803309DF8033013F0800F5D
:10298000F0D1214B1B68032B08D04FF0500383F389
:102990001188BFF36F8FBFF34F8FFEE71B021A4AF8
:1029A000136003F4E0631360019BDBB2144A1370FD
:1029B0004FF0E024D4F8203D43F47003C4F8203DE8
:1029C000D4F8203D43F07043C4F8203DFFF780FF6A
:1029D00000250E4B1D60FFF7C1FED4F8343F43F0D5
:1029E0004043C4F8343FFFF7A5FE01F079F8FFF744
:1029F00081FE284603B030BD71C20F4170C20F4145
:102A000000E400E0E8100020E41000200C000020AA
:102A1000EFF305830F2B0ED9114A9A5C114B1B78EB
:102A20009A4208D24FF0500383F31188BFF36F8F9F
:102A3000BFF34F8FFEE74FF0E023D3F80C3D03F4D4
:102A4000E063094A1268934208D94FF0500383F3B8
:102A50001188BFF36F8FBFF34F8FFEE7704700BF42
:102A6000F0E300E0E8100020E4100020124A12F029
:102A7000070F1ED0D11D21F00701C1F5705313447B
:102A80000A460E480260002141601344083B23F0CF
:102A900007030B48036059601960991A516013606D
:102AA000084B1960084B1960084B4FF000421A6040
:102AB00070474FF47053E4E70C110020041100201C
:102AC00000110020F8100020FC100020EC10002065
:102AD000164B1A461B688342FBD3516802EB010C6C
:102AE000844509D0416800EB010C634509D00360BF
:102AF000904219D010607047406801445160104600
:102B0000F0E710B40A4C2468A3420BD05B68194468
:102B1000416013681B680360904200D010605DF84C
:102B2000044B70470460F7E7704700BF04110020B2
:102B30000011002038B5044600F096FE384B1B68A3
:102B4000B3B1384B1B681C4250D1002C50D004F15B
:102B5000080214F0070F02D022F007020832002A00
:102B600055D0314B1B68934253D330490C6804E075
:102B7000FFF77CFFE5E721461C466368934202D2DB
:102B80002368002BF7D1264B1B68A34243D00D6866
:102B9000083523680B6063689B1A102B10D9A018A6
:102BA00010F0070F08D04FF0500383F31188BFF3E4
:102BB0006F8FBFF34F8FFEE743606260FFF788FFC0
:102BC000626819490B689B1A0B60194909688B42A6
:102BD00001D217490B60134B1B681343636000233A
:102BE0002360144A13680133136002E0002500E0FB
:102BF000002500F0D3FE15F0070F0ED04FF0500364
:102C000083F31188BFF36F8FBFF34F8FFEE700256B
:102C1000EFE70025EDE70025EBE7284638BD00BFCC
:102C200000110020EC100020FC10002004110020F6
:102C3000F8100020F4100020002834D038B50446E5
:102C4000A0F1080550F8043C174A1268134208D155
:102C50004FF0500383F31188BFF36F8FBFF34F8F93
:102C6000FEE750F8081C41B14FF0500383F3118880
:102C7000BFF36F8FBFF34F8FFEE723EA020340F8E5
:102C8000043C00F0F1FD54F8041C084A13680B449E
:102C900013602846FFF71CFF054A136801331360D1
:102CA00000F07CFE38BD7047EC100020FC100020C6
:102CB000F010002010B50446FFF784FDA26BE36B13
:102CC0009A4204D00024FFF79FFD204610BD012446
:102CD000F9E710B50446FFF775FDA36B23B901248E
:102CE000FFF792FD204610BD0024F9E770B50446B9
:102CF0001546866B026C5AB903681BB10020013679
:102D0000A66370BD806801F01DF80023A360F6E79C
:102D10006DB94068FDF7C2FF6368226C13446360BD
:102D2000A268934219D3236863602846E7E7C06826
:102D3000FDF7B4FFE368226C51429B1AE3602268FE
:102D4000934202D2A3680B44E360022D01D000201D
:102D5000D5E726B1013E0020D1E72846CFE7002085
:102D6000CDE70346026C6AB110B50846D968114434
:102D7000D9609C68A14201D31968D960D968FDF770
:102D80008DFF10BD704738B50546FFF71BFD95F860
:102D9000454064B201E0013C64B2002C0ADD6B6A7C
:102DA00043B105F1240000F021FF0028F3D000F02A
:102DB000B3FFF0E7FF2385F84530FFF725FDFFF768
:102DC00001FD95F8444064B201E0013C64B2002C7E
:102DD0000ADD2B6943B105F1100000F007FF002860
:102DE000F3D000F099FFF0E7FF2385F84430FFF7B8
:102DF0000BFD38BD38B5E0B10D460446FFF7E2FCE7
:102E00002368E26B216C01FB0230A0600020A0630C
:102E10006360013A02FB0133E360FF2384F844302E
:102E200084F84530FDB9236963B9FFF7EDFC012053
:102E300038BD4FF0500383F31188BFF36F8FBFF39A
:102E40004F8FFEE704F1100000F0D0FE0028ECD018
:102E50004FF0E0234FF08052C3F8042DBFF34F8FA3
:102E6000BFF36F8FE1E704F11000FFF7FDFB04F102
:102E70002400FFF7F9FBD8E738B51D46049C0B4644
:102E800049B92460E063236401212046FFF7B2FFC3
:102E900084F84C5038BD2260F4E740B94FF050033D
:102EA00083F31188BFF36F8FBFF34F8FFEE710B529
:102EB00084B01C46844653B192B189B94FF0500397
:102EC00083F31188BFF36F8FBFF34F8FFEE74FF08F
:102ED000500383F31188BFF36F8FBFF34F8FFEE76B
:102EE0006AB150230393039B502B13D04FF0500330
:102EF00083F31188BFF36F8FBFF34F8FFEE7002975
:102F0000EFD04FF0500383F31188BFF36F8FBFF3FF
:102F10004F8FFEE7039B012384F8463000949DF811
:102F200018306046FFF7A8FF204604B010BDF0B58A
:102F300085B0019288B10F461D460446B1B1022DFD
:102F400020D1E36B012B1DD04FF0500383F3118888
:102F5000BFF36F8FBFF34F8FFEE74FF0500383F344
:102F60001188BFF36F8FBFF34F8FFEE7036C002B09
:102F7000E5D04FF0500383F31188BFF36F8FBFF399
:102F80004F8FFEE700F0CEFE064658B9019B002B9E
:102F900048D04FF0500383F31188BFF36F8FBFF316
:102FA0004F8FFEE700263DE02A4639462046FFF7D0
:102FB0009DFE636A7BB948B14FF0E0234FF0805229
:102FC000C3F8042DBFF34F8FBFF36F8FFFF71CFCC7
:102FD000012005B0F0BD04F1240000F007FE002838
:102FE000F4D04FF0E0234FF08052C3F8042DBFF32C
:102FF0004F8FBFF36F8FE9E7FFF706FC0020E8E78C
:1030000002A800F039FE012619E0002384F84430BC
:1030100021E0002384F8453023E02046FFF7B3FE8B
:1030200000F0BCFCFFF7CEFBA26BE36B9A42BBD374
:10303000022DB9D0019B002BDED0002EE0D0FFF78F
:10304000E3FB00F011FCFFF7BDFB94F8442052B203
:10305000B2F1FF3FD9D094F8452052B2B2F1FF3F10
:10306000D7D0FFF7D1FB01A902A800F011FED8B913
:103070002046FFF71FFE0028CFD0019904F1100071
:1030800000F080FD2046FFF77EFE00F087FC002860
:10309000C8D14FF0E0234FF08052C3F8042DBFF3A6
:1030A0004F8FBFF36F8FBDE72046FFF76CFE00F038
:1030B00075FC00208DE72DE9F84390B10F461646C8
:1030C0001C460546B1B1022C20D1EB6B012B1DD063
:1030D0004FF0500383F31188BFF36F8FBFF34F8F0F
:1030E000FEE74FF0500383F31188BFF36F8FBFF3F8
:1030F0004F8FFEE7036C002BE5D04FF0500383F3B6
:103100001188BFF36F8FBFF34F8FFEE7FFF780FC8F
:10311000EFF311884FF0500383F31188BFF36F8FE3
:10312000BFF34F8FAA6BEB6B9A4206D3022C04D0ED
:10313000002088F31188BDE8F88395F845904FFA90
:1031400089F9AB6B224639462846FFF7CFFDB9F126
:10315000FF3F06D009F101035BB285F8453001203D
:10316000E7E76B6A0BB90120E3E705F1240000F003
:103170003DFD18B126B101203060DAE70120D8E723
:103180000120D6E7F0B585B0019290B10F46044614
:10319000C1B100F0C7FD064600BB019B002B5ED00D
:1031A0004FF0500383F31188BFF36F8FBFF34F8F3E
:1031B000FEE74FF0500383F31188BFF36F8FBFF327
:1031C0004F8FFEE7036C002BE3D04FF0500383F3E7
:1031D0001188BFF36F8FBFF34F8FFEE700263EE0ED
:1031E00039462046FFF7BDFD013DA563236923B99C
:1031F000FFF70AFB012005B0F0BD04F1100000F05C
:10320000F5FC0028F4D04FF0E0234FF08052C3F8D3
:10321000042DBFF34F8FBFF36F8FE9E7FFF7F4FA89
:103220000020E8E702A800F027FD012621E00023A6
:1032300084F8443029E0002384F845302BE0204610
:10324000FFF7A1FD00F0AAFB09E02046FFF79BFD78
:1032500000F0A4FB2046FFF73CFD00283FD1FFF71C
:10326000B1FAA56B002DBBD1019B002BD6D0002E4F
:10327000D8D0FFF7C9FA00F0F7FAFFF7A3FA94F8ED
:1032800044305BB2B3F1FF3FD1D094F845305BB22C
:10329000B3F1FF3FCFD0FFF7B7FA01A902A800F0C2
:1032A000F7FC0028D1D12046FFF713FD0028C6D037
:1032B000019904F1240000F065FC2046FFF763FD4E
:1032C00000F06CFB0028CAD14FF0E0234FF0805291
:1032D000C3F8042DBFF34F8FBFF36F8FBFE70020FC
:1032E00089E700000023072B0CD8074A52F8332047
:1032F0000AB10133F7E7044A42F8331002EBC30284
:1033000050607047704700BF0C4D002070B50446F8
:103310000D461646FFF756FA94F844305BB2B3F107
:10332000FF3F0DD094F845305BB2B3F1FF3F0BD0B7
:10333000FFF76AFAA36B5BB12046FFF724FD70BD6F
:10334000002384F84430EDE7002384F84530EFE7AC
:103350003246294604F1240000F02CFCECE7000082
:10336000084B1B681B6823B9074B4FF0FF321A60EC
:103370007047044B1B68DB68DB685A68024B1A60B5
:10338000704700BFBC4D0020544D00202DE9F04790
:1033900080460D4617469946089EDDF824A00A9CF3
:1033A0009200A521206B02F00BF9236B07F18042FC
:1033B000013A03EB820727F00707002D61D04FF099
:1033C000000CBCF10F0F09D815F80C3004EB0C02FF
:1033D00082F8343013B10CF1010CF2E7002384F8C9
:1033E0004330372E00D93726E662E664002525658E
:1033F000201DFFF744F904F11800FFF740F924619C
:10340000C6F13806A6616462C4F8985184F89C51EC
:103410004FF4A072294604F1580002F0D1F81B4B7A
:10342000E36503F168022266D0336366012200235C
:10343000C4E93C2343F20E33A4F8F8304AF6CD3306
:10344000A4F8FA3041F23423A4F8FC304EF26D6354
:10345000A4F8FE304DF6EC63A4F800310523A4F87F
:1034600002310B23A4F804314A4641463846FFF79F
:103470007FF92060BAF1000F01D0CAF80040BDE822
:10348000F087002384F83430ABE700BF7853002086
:1034900038B5002407E004EB840293000E4818447A
:1034A000FFF7E2F80134372CF5D90C4D2846FFF729
:1034B000DBF80B4C2046FFF7D7F80A48FFF7D4F8A3
:1034C0000948FFF7D1F80948FFF7CEF8084B1D600F
:1034D000084B1C6038BD00BFE84D0020D44D0020D3
:1034E000C04D0020A44D0020904D0020784D0020BC
:1034F000BC4D0020B84D002010B50446FFF762F91E
:10350000224A136801331360214B1B685BB1214BC6
:103510001B686BB91E4B1B68DA6AE36A9A4207D8CC
:103520001B4B1C6004E01A4B1C601368012B29D054
:10353000194A1368013313606364E06A174B1B6810
:10354000984201D9154B186000EB8000211D144BE7
:1035500003EB8000FFF796F8FFF756F90D4B1B6859
:103560007BB10B4B1B68DA6AE36A9A4209D24FF0CF
:10357000E0234FF08052C3F8042DBFF34F8FBFF309
:103580006F8F10BDFFF784FFD2E700BF744D00209E
:1035900048520020684D0020584D00206C4D0020FE
:1035A000E84D002010B50446583002F095F894F824
:1035B0009D3163B1012B11D0022B0ED04FF050037F
:1035C00083F31188BFF36F8FBFF34F8FFEE7206B3C
:1035D000FFF732FB2046FFF72FFB10BD2046FFF719
:1035E0002BFBFAE70F4B1B68D3B110B5FFF7EAF8D6
:1035F0000D4BDB68DC68201DFFF768F80B4A136889
:10360000013B1360074A1368013B1360FFF7FCF8A6
:103610002046FFF7C7FF034B1B68002BE6D110BD08
:10362000704700BF8C4D0020904D0020744D00204D
:1036300070B504460D46174B1E68174B18680430CA
:10364000FFF744F8B4F1FF3F0DD03444124B1B6830
:103650005C60A64210D9114B18680F4B19680431F1
:10366000FFF71BF870BD002DEFD00B4B196804312C
:103670000B48FFF707F8F5E70A4B1868064B19687F
:103680000431FFF70AF8084B1B68A342EAD9064B3E
:103690001C60E7E7704D002048520020B84D002024
:1036A000784D0020BC4D0020544D002008B50BE0A3
:1036B0004FF0E0234FF08052C3F8042DBFF34F8F3B
:1036C000BFF36F8FFDF7EEFCFFF78CFF024B1B681B
:1036D000012BEDD8F6E700BFE84D002030B587B0EC
:1036E0000B9C8CB10C9DC5B14FF4D0750495049D15
:1036F000B5F5D07F1AD04FF0500383F31188BFF394
:103700006F8FBFF34F8FFEE74FF0500383F31188A5
:10371000BFF36F8FBFF34F8FFEE74FF0500383F37C
:103720001188BFF36F8FBFF34F8FFEE7049D0C9D91
:103730002C63022485F89D4100240394029505AC76
:1037400001940A9C0094FFF721FE0C98FFF7D4FE29
:10375000059807B030BD2DE9F04385B0074688468F
:1037600014461E469000FFF7E5F910B381464FF46A
:10377000D070FFF7DFF90546A8B1C0F830900023FC
:1037800080F89D31039302900D9B01930C9B009355
:103790003346224641463846FFF7F8FD2846FFF7F4
:1037A000ABFE012007E04846FFF746FA4FF0FF3036
:1037B00001E04FF0FF3005B0BDE8F08310B588B0F0
:1037C00000240594069407AA06A905A8FEF734FF6D
:1037D000059B0293069B019300942346079A1A497E
:1037E0001A48FFF77BFF1A4B1860E8B100F05EFB48
:1037F00001281AD14FF0500383F31188BFF36F8F64
:10380000BFF34F8F134B1B685833134A1360134B8E
:103810004FF0FF321A60124B01221A60114B002246
:103820001A60FFF769F803E00020B0F1FF3F01D014
:1038300008B010BD4FF0500383F31188BFF36F8FB2
:10384000BFF34F8FFEE700BF54C00008AD3600083D
:10385000504D0020485200201C000020544D0020F4
:10386000684D0020704D0020024A13680133136038
:10387000704700BF4C4D0020014B1868704700BFD7
:10388000704D0020F8B53A4B1B68002B69D1394BBD
:103890001D6801351D60C5B9374B1B681B6843B1F6
:1038A0004FF0500383F31188BFF36F8FBFF34F8F37
:1038B000FEE7314A1168314B186810601960304AD0
:1038C000136801331360FFF74BFD2E4B1B68AB42AF
:1038D0003DD900272C4B1B68DB6A03EB83039A005E
:1038E0002A4B9B58012B00D90127294B1B68002B21
:1038F0003CD001273AE001271F4B1B681B6843B3EC
:103900001D4B1B68DB68DC6863689D4226D3261D5F
:103910003046FEF7DBFEA36A1BB104F11800FEF788
:10392000D5FEE36A1B4A1268934201D9194A136013
:1039300003EB83039A00314614481044FEF7A2FEBD
:10394000E26A114B1B68DB6A9A42D4D2D4E70027A3
:10395000D2E70C4B4FF0FF321A60BBE7094A136005
:10396000B8E70D4A13680133136000273846F8BDE5
:103970004C4D0020704D0020BC4D0020B84D002063
:103980005C4D0020544D002048520020E84D00209E
:10399000604D00206C4D0020644D002038B5354B43
:1039A0001B6843B94FF0500383F31188BFF36F8F47
:1039B000BFF34F8FFEE7FEF705FF2E4B1A68013A63
:1039C0001A601B68002B4FD12B4B1B680BB90024CE
:1039D0004BE00024294B1B681BB3284BDB68DC68D9
:1039E00004F11800FEF772FE251D2846FEF76EFE54
:1039F000E06A234B1B68984201D9214B186000EB09
:103A0000800029461F4B03EB8000FEF73BFEE26A75
:103A10001D4B1B68DB6A9A42DCD31C4B01221A60E7
:103A2000D8E70CB1FFF79CFC194B1C6884B9174B05
:103A30001C68D4B14FF0E0234FF08052C3F8042D3E
:103A4000BFF34F8FBFF36F8F01240EE0013C07D00F
:103A5000FFF718FF0028F9D00C4B01221A60F5E798
:103A60000B4B00221A60E2E70024FEF7CDFE204651
:103A700038BD00BF4C4D0020744D0020A44D0020E7
:103A80006C4D0020E84D002048520020604D002081
:103A9000644D002010B5A8B10446104B1B6843B11B
:103AA0004FF0500383F31188BFF36F8FBFF34F8F35
:103AB000FEE7FFF7D9FE00212046FFF7B9FDFFF72B
:103AC0006DFF48B94FF0E0234FF08052C3F8042D4A
:103AD000BFF34F8FBFF36F8F10BD00BF4C4D002061
:103AE000224B1B681BB1224B01221A607047204BEE
:103AF00000221A601F4B1B6803EB83018A001E49DA
:103B00008A585AB90BB1013BF6E74FF0500383F3E3
:103B10001188BFF36F8FBFF34F8FFEE7084603EBAB
:103B200083018A00024451684968516003EB830CA9
:103B30004FEA8C020832024491420FD003EB830219
:103B400091000D4A0A445268D1680C4A1160094933
:103B50000B60136858330A4A13607047486862461E
:103B60009100054A0A445060E8E700BF4C4D002030
:103B7000604D00206C4D0020E84D00204852002090
:103B80001C00002058B110B50C46094A11681831C4
:103B9000FEF783FD01212046FFF74AFD10BD4FF0DF
:103BA000500383F31188BFF36F8FBFF34F8FFEE78E
:103BB0004852002038B570B10D4614460A4A1168C3
:103BC0001831FEF75FFD0CB14FF0FF352146284656
:103BD000FFF72EFD38BD4FF0500383F31188BFF37C
:103BE0006F8FBFF34F8FFEE74852002038B5C36890
:103BF000DC6824B304F118052846FEF767FD184B6E
:103C00001B682BBB251D2846FEF760FDE06A154B9F
:103C10001B68984201D9134B186000EB80002946BD
:103C2000114B03EB8000FEF72DFDE26A0F4B1B6882
:103C3000DB6A9A4211D901200D4B186038BD4FF054
:103C4000500383F31188BFF36F8FBFF34F8FFEE7ED
:103C500029460848FEF716FDE7E70020EEE700BF1B
:103C60004C4D00206C4D0020E84D002048520020B3
:103C7000604D0020A44D0020034B1B680360034BE4
:103C80001B684360704700BF5C4D0020704D0020F2
:103C9000E0B170B50C46054609B3FEF793FD1C4B29
:103CA00019686B68C81A2268B2F1FF3F28D0DFF8A4
:103CB00064C0DCF800C02E68664501D08B4224D970
:103CC000824215D80023236001241AE04FF05003EC
:103CD00083F31188BFF36F8FBFF34F8FFEE74FF071
:103CE000500383F31188BFF36F8FBFF34F8FFEE74D
:103CF0005B1A134423602846FFF7BEFF002400E050
:103D00000024FEF781FD204670BD0124F9E700BFC5
:103D1000704D00205C4D0020014B01221A6070475D
:103D2000604D0020054B1B6833B1054B1B680BB180
:103D3000002070470220704701207047684D002026
:103D40004C4D002000283BD038B504461E4B1B6864
:103D5000834208D04FF0500383F31188BFF36F8F75
:103D6000BFF34F8FFEE7036D43B94FF0500383F36A
:103D70001188BFF36F8FBFF34F8FFEE7013B0365E1
:103D8000C16AC26C91421DD00BB1002038BD051D27
:103D90002846FEF79BFCE06CE062C0F13803A361AB
:103DA0000A4B1B68984201D9084B186000EB800051
:103DB0002946074B03EB8000FEF764FC0120E5E792
:103DC000002070470020E1E7485200206C4D0020A1
:103DD000E84D0020064B1A6813682BB901230360D5
:103DE00023B9D368186870470023F8E700207047AC
:103DF0004C53002008B54160006191420CD8D21AA2
:103E000083699A4201D3012008BD011D094B18683E
:103E1000FEF743FC0020F7E79A4201D2994206D20E
:103E2000011D054B1868FEF738FC0020ECE7012067
:103E3000EAE700BF485300204C53002030B583B060
:103E4000FEF7C0FC114B1B681BB1FEF7DDFC03B095
:103E500030BD0F4D2846FEF707FC0E4C2046FEF7FE
:103E600003FC0D4B1D600D4B1C60002300930C4B9D
:103E70000C4A10210A20FFF710F8044B18600028A4
:103E8000E3D00949FFF72EFADFE700BF44530020D3
:103E900064530020505300204C530020485300200E
:103EA0004C5200209C5200205CC0000810B588B025
:103EB000FFF7C4FF124B1B68CBB100240594069496
:103EC00007AA06A905A8FEF7C3FB059B0293069B5C
:103ED0000193022300932346079A0A490A48FFF7F1
:103EE000FDFB0A4B186010B1012008B010BD4FF067
:103EF000500383F31188BFF36F8FBFF34F8FFEE73B
:103F00004453002064C000081142000840530020C0
:103F1000B8B19C4603461848006858B300B585B050
:103F200000910192029305291CDCFFF7FBFE022899
:103F300010D000231A4669460F480068FEF7F7FFC5
:103F400015E04FF0500383F31188BFF36F8FBFF379
:103F50004F8FFEE70023069A694607480068FEF780
:103F6000E6FF04E0002362466946FFF7A4F805B0C7
:103F70005DF804FB002070474453002070B582B008
:103F80001B4B1B681A6862B3DB681E68DC68251D62
:103F90002846FEF79BFB236A2046984794F8283072
:103FA00013F0040FECD0A36933449E4207D2636040
:103FB000246129460E4B1868FEF76FFBE0E70021ED
:103FC00000910B4632462046FFF7A2FF0028D7D1CA
:103FD0004FF0500383F31188BFF36F8FBFF34F8F00
:103FE000FEE7044A106802490860136002B070BD21
:103FF0004C5300204853002038B50546FFF73CFCE1
:104000000446074B1B68834205D800232B60044BF2
:104010001C60204638BDFFF7B1FF01232B60F6E797
:104020003C53002070B582B006460D46174909681A
:10403000C968CC68201DFEF749FB94F828C01CF025
:10404000040F08D12CF0010C84F828C0236A204604
:10405000984702B070BDA16933462A4631442046D4
:10406000FFF7C8FE0028F1D0002100910B46324630
:104070002046FFF74DFF0028E8D14FF0500383F3AF
:104080001188BFF36F8FBFF34F8FFEE74C530020B3
:1040900070B582B006460C46FFF7E6FB01A8FFF7B5
:1040A000ABFF019B33BB0546E4B9B04213D22246B5
:1040B000711B124B1868FFF729F9FFF76FFCD8B98D
:1040C0004FF0E0234FF08052C3F8042DBFF34F8F21
:1040D000BFF36F8F10E0FFF761FC29463046FFF712
:1040E000A1FF09E0064A126812680AB90124DEE756
:1040F0001C46DCE7FFF752FC02B070BD44530020C1
:104100004853002010B588B002E0049B002B0FDA62
:10411000002204A93D4B1868FFF734F8002872D03C
:10412000049B002BF1DA07990698059B9847ECE76A
:10413000069C636913B1201DFEF7C8FA03A8FFF7B8
:104140005BFF0246049B092BE2D8DFE803F005057C
:10415000052F364E05052F3694F8283043F001031D
:1041600084F82830059BA16919442046FFF742FED8
:104170000028CDD0236A2046984794F8283013F0C1
:10418000040FC5D0A269002100910B460598024496
:104190002046FFF7BDFE0028BAD14FF0500383F34D
:1041A0001188BFF36F8FBFF34F8FFEE794F828306D
:1041B00023F0010384F82830AAE794F8283043F06C
:1041C000010384F828300599A16129B1034601440F
:1041D0002046FFF70FFE9BE74FF0500383F3118853
:1041E000BFF36F8FBFF34F8FFEE794F8283013F0C3
:1041F000020F04D023F0010384F8283088E720461A
:10420000FEF71AFD84E708B010BD00BF445300203C
:1042100000B583B001A8FFF7DDFD0199FFF738FF76
:10422000FFF770FFF6E700002DE9F047089D0F4605
:1042300004468C46002B48D18A42164661D9B2FA10
:1042400082F34BB1C3F1200201FA03FC20FA02F21F
:104250009E4042EA0C0C9C404FEA164EB7B2BCFBA3
:10426000FEF1220C0EFB11CC42EA0C4201FB07F0DE
:10427000904209D9B21801F1FF3C80F0EE809042E3
:1042800040F2EB8002393244121AA4B2B2FBFEF0C3
:104290000EFB102244EA024400FB07F7A74209D9AB
:1042A000341900F1FF3280F0DA80A74240F2D78063
:1042B0003444023840EA0140E41B00211DB1DC40D7
:1042C0000023C5E90043BDE8F0878B4206D90DB154
:1042D000C5E9000100210846BDE8F087B3FA83F183
:1042E000002948D1BB4202D3824200F20781841ADE
:1042F00067EB030201209446002DE4D0C5E9004C91
:10430000E1E7002A00F09280B2FA82F3002B40F03D
:10431000A8808A1A4FEA164E1FFA86FC0121200C4B
:10432000B2FBFEF70EFB172240EA02420CFB07F03D
:10433000904207D9B21807F1FF3802D2904200F23A
:10434000E2804746121AA4B2B2FBFEF00EFB102226
:1043500044EA02440CFB00FCA44507D9341900F1DF
:10436000FF3202D2A44500F2CB801046A4EB0C042D
:1043700040EA0740A2E7C1F120068B4022FA06FC82
:104380004CEA030C07FA01F420FA06F3F7404FEA6F
:104390001C49234300FA01F81FFA8CFEB7FBF9F021
:1043A0001C0C09FB107744EA074400FB0EF7A742F8
:1043B00002FA01F20AD91CEB040400F1FF3A80F082
:1043C0009B80A74240F2988002386444E41B9FB26D
:1043D000B4FBF9F309FB134447EA044403FB0EFE64
:1043E000A64509D91CEB040403F1FF3780F0828055
:1043F000A6457FD9023B644443EA0040A4EB0E0487
:10440000A0FB02E7BC427346B94663D360D05DB1FE
:10441000B8EB030264EB090404FA06F622FA01F38E
:104420001E43CC40C5E9006400214CE762084808FF
:1044300042EAC1710B0C43EA00438AB242EA0342EA
:10444000B3FBF6F1E407B4463746B6461F23B0FB8C
:10445000F6F0D21B41EA004161E7614614E71046DD
:1044600028E7C3F1200120FA01F29E4027FA01F16A
:104470009F403A434FEA164E1FFA86FCB1FBFEF707
:104480000EFB1710110C41EA004107FB0CF88845A0
:1044900004FA03F43AD9711807F1FF3001D28845C4
:1044A0001FD8A1EB0801B1FBFEF808FB0CF70EFBCF
:1044B000181192B242EA0142BA422FD2B21808F160
:1044C000FF31C6D2BA42C4D2A8F102013244C0E7D9
:1044D000F0459CD2BEEB020367EB0C070138B946EE
:1044E00095E7A6EB08084144B81EB1FBFEF808FBAF
:1044F0000CF7DCE73B467FE7504667E70846FBE6FC
:104500003444023832E7023F32441BE7A1EB080192
:104510003846B1FBFEF808FB0CF7C8E7414698E7C0
:1045200003685A004CBF43F0004323F00043184493
:10453000704700BF2DE9F04759B301F1FF38054638
:10454000164647464FF0000A0AEB070101EBD1710E
:10455000491005EBC1094846FFF7E2FF88454FEADD
:10456000C104034610D004F10800B342284407D820
:10457000FFF7D6FF0138B04208D201F1010AE3E7A4
:104580008A4506D04F1EDFE7B042F9D84846BDE85D
:10459000F0874FF000094846BDE8F087012806D0B3
:1045A000022802D028B904487047044870470448DC
:1045B00070470020704700BF8D4C00089D4C0008DC
:1045C000954C000830B5224B83B004468D1E43B392
:1045D00001A92846AFF30080F0B101992A46FFF700
:1045E000A9FF0146C0B1FFF79BFF4B68A064012BF8
:1045F0002BD0002B01F1040025DBFFF791FF0023F6
:1046000023650368E064002B12DBFFF789FF034694
:104610000020236103B030BD00230920236103B0D3
:1046200030BD0C4B0C49C91AC91018460191D5E789
:10463000C3F30360FFF7B2FF031E0CBF0920002085
:10464000236103B030BD0123DAE700230520E0E752
:1046500000000000ACC4000854C500080368DA0775
:1046600010B5044606D49B0700F1500009D5FCF7AD
:1046700051FA2368590709D51A070ED5DB0613D559
:1046800010BDFCF73FFA23685907F5D404F1D800B0
:10469000FCF748FA23681A07F0D404F5AC70FCF76D
:1046A00049FA2368DB06EBD404F5EC70BDE8104052
:1046B000FCF784BA0346006800B11844704700BF95
:1046C000704700BF70B504460E46316C2046FFF7B8
:1046D00079FF054688B9326C62612369324621460A
:1046E000012098470828F0D0072806D12846316CC9
:1046F000FFF7E6FF301DFCF7F9F900F0E5FD00BF1C
:104700002DE9F04F0D1DD0F80C90D0F818A00746F9
:1047100014460FCDADF5777D0DF10C0CACE80F0014
:104720000FCDACE80F000FCDACE80F0095E80F00FF
:1047300002AE4FF0000E8CE80F000DF5F878C6F8C9
:1047400000E021E0336C7B614FF4F4723146404667
:10475000FCF7A4FA3B694246394658469847D8F8D0
:104760003830B3642146CDE9006A05463B46012056
:104770003A46C847044618BB4FF4F47241463046E7
:10478000FCF78CFA082D19D1316C3846FFF71AFF67
:10479000093405465FFA84FB0028D3D0B36BB364B9
:1047A0003A46CDE9006A3B464BF010010120C8476C
:1047B00030B928460DF5777DBDE8F08F072D05D07F
:1047C000092528460DF5777DBDE8F08F2046316C30
:1047D000FFF776FF03A8FCF789F900BFF0B5CB6BB4
:1047E000FBB001F1040C0B640F460546BCE80F005A
:1047F00001AC0FC4BCE80F000FC4BCE80F000FC42D
:104800009CE80F004FF0FF3E84E80F006E46CDF8A5
:1048100000E006E02B6932462946984708280446FE
:1048200008D1316C2846FFF7CDFE0028F2D00920D0
:104830007BB0F0BD3046FFF711FF062CF7D13946AB
:104840002846FFF73FFF00BFC160D96B8261196442
:1048500000221946FFF754BF70B5C66843690B6460
:10486000AEB903690A4604460D4601460220984740
:10487000072805D008280FD129462046FFF722FF38
:104880003046296CFFF71CFF281DFCF72FF9012289
:10489000FFF736FF00F018FD00F016FDC26808B5FE
:1048A00032B1CA6B0A64BDE808400022FFF728BF96
:1048B000FFF794FF092008BD052915D8DFE801F0AE
:1048C0000A031403030501207047009A436C136028
:1048D0000020704743B90F2A06D800EB820200205F
:1048E0005368009A136070470220704700B585B086
:1048F0000A46002303A900911946FFF7DDFF03983C
:1049000005B05DF804FB00BF052915D8DFE801F00C
:104910000A031403030501207047009B1B684364CE
:104920000020704743B90F2A06D8009B00EB820293
:104930001B685360002070470220704710B584B098
:10494000002303AC039200940A461946FFF7DCFFEC
:1049500004B010BD2DE9F041D36BADF5107D02F12F
:10496000040C136407460E46BCE80F000DF15C0E04
:10497000AEE80F00BCE80F00AEE80F00BCE80F0087
:10498000AEE80F009CE80F0016AC4FF0FF388EE841
:104990000F006D46C4F8008010E0FFF7CFFF3146EE
:1049A0002046B847034622460820294683B92B698A
:1049B0009847052880460DD0092809D0216C284643
:1049C000FFF700FE03460C212A462046002BE4D0C8
:1049D0004FF009082046FFF741FE40460DF5107DD7
:1049E000BDE8F0812DE9F04F1646CA6C89B00D463E
:1049F00052F8041B069200F0030CE3B10C0C8DF886
:104A00001D400904E4B2059102EB840202218DF8F5
:104A10001C10296DBCF1020F08BFAA6B11F0010830
:104A20000FD005A9304600F0CFFA002839D1082070
:104A300009B0BDE8F08F090205918DF81D30032102
:104A4000E5E71768002FECD000F008010191E3467C
:104A5000CDF808809A46BAF1020F26D017885488FC
:104A600002F10409AA6C24F001030F21304603EB84
:104A70000208FFF73BFF804515D827F0010202EB43
:104A80000803834294BF00230123640004F002045E
:104A900007F001072743012F0BD0022F50D0002F22
:104AA00045D00920C4E70023EFE7546802F1080964
:104AB000D8E7BBF1000F73D1CBB1D9F80430D9F8E6
:104AC0000020991C4FEAD272EBD005F15804013353
:104AD000049400F0CC8009F10400FFF7EBFD04AB77
:104AE00001462846AFF30080002840F0978009F186
:104AF00008021768002FAED105A93046DDF80880FE
:104B000000F062FA0028CCD1B8F1000F8FD00F214D
:104B10003046FFF7EBFE0E2102463046FFF70EFF50
:104B2000594A0F213046FFF709FF072080E7BBF104
:104B3000000F02D0002B40F0878009F10402D8E773
:104B4000D9F8004024F00048BBF1000F0FD12BB181
:104B5000019B002B3CD0B8F1000F39D0002C01DABA
:104B600009F1040908F1010209EB8202C1E70D21F4
:104B70003046FFF7BBFE2F6A8742EFD1AB6A9945FB
:104B8000ECD100240423C5E90B434B44C5F828802D
:104B90006B63D9F80030A34270DB01230293E1E795
:104BA0000D213046FFF7A2FE2C6A84429FD1AB6AEA
:104BB00099459CD14846FFF7B3FC0F210246304689
:104BC000FFF7BCFE2A4600213046FFF7B7FEACE7F0
:104BD00005F15803CDF80CB009F10407B3460024E1
:104BE0001E460BE038460496FFF764FD002201469E
:104BF00004AB2846AFF300800437F8B9444504F10C
:104C00000104EFD10D215846FFF770FE049BC5F853
:104C100028900246C5E90823062009E704460D212D
:104C20003046FFF763FE049E2862022C04BFEE624A
:104C300005F12C06C5E909690620F9E65E46D9F8B2
:104C40000040DDF80CB089E74846FFF769FC09F140
:104C500004030446AB632846AFF3008000283FF40A
:104C600020AF22460F213046FFF768FE5DE7304651
:104C70000D21FFF73BFE26462862DBE708F1010223
:104C800009EB820097E700BF000000000023FFF758
:104C9000A9BE00BF0123FFF7A5BE00BF0223FFF797
:104CA000A1BE00BF2DE9F0410646C4B01446052957
:104CB00008D8DFE801F016300773980B3A19102A6C
:104CC00040F2B780022044B0BDE8F081836B002C35
:104CD000F8D153F8042B42648363002044B0BDE84C
:104CE000F081002BEED1856B1FFA84FC012006F1C8
:104CF000040E00FA03F111EA0C0F2A4604D052F810
:104D0000041B4EF8231015460133102BF1D1A004DB
:104D1000E3D4B563E1E7012B4FEA1447A4B2CDD049
:104D2000052BCFD107EB0408B8F1200FCAD80F2FFD
:104D300040F2BD80002CD0D002685107A04600F19F
:104D40001B81019302AC2046FBF7F0FED6F838C079
:104D5000019B102F4FF0FF3239464FF0020E38BF43
:104D6000102118FB0E2E04EBC101843972466046F7
:104D700050F8045B41F8045F013A551CF8D10CF17E
:104D8000040C012B0CEB8E0200F0D5800F2FB263C8
:104D900040F2FA802046FBF7C5FE9EE7032B91D137
:104DA000A7B207EB1443102B4FEA14448AD80368C8
:104DB000190700F1A38022AD2846FBF7DDFE7A003B
:104DC000B06B05EBC404531E42B1011B625844F89A
:104DD000042B013B5A1CF9D100EBC700B0632846F5
:104DE000FBF7A8FE79E7002B7FF46CAF102C3FF6A1
:104DF00069AF0368D80679D422AD2846FBF7E8FEF0
:104E0000B76B294600234FF0010C0CFA03F2224243
:104E1000384603F1010303D050F8042B0A6007461B
:104E2000042B01F10401F0D1B7632846FBF7C6FE5D
:104E300053E7102F3FF446AF0268D10708D530463C
:104E400022F0030240F8502B0193FBF75FFE019B19
:104E5000019322AD2846FBF759FED6F838C0002C46
:104E60006BD0019B4FF0000802214FF0FF3214FB82
:104E7000012E05EBC70104397246604650F8044B19
:104E800041F8044F013A541CF8D10CF1040C0CEB1E
:104E90008E0CB8F1000F39D1012B4ED00F2FC6F870
:104EA00038C03FF61AAF2846FBF734FE15E7026814
:104EB000B8F1100F02F001012AD851B1304622F0AA
:104EC000010242F0020240F8502B0193FBF726FE4C
:104ED000019B019322AD2846FBF720FE019B002C8D
:104EE000E1D0D6F838C04FF00008BDE723F010033A
:104EF000336006F5EC70FBF76BFE7DE723F00803EB
:104F0000036000F5AC70FBF737FE54E702AC20E716
:104F1000D1B9550726D422AD28460193FBF7FEFDF3
:104F200002A8FBF703FEA8F11008D6F838C0019BD1
:104F3000C7F1100498E7944622AD0CF10403B36363
:104F40002846FBF7DFFDC8E622F0010242F002022C
:104F500040F8502B0193FBF7E1FD3268019B12F002
:104F6000040FD8D0304622F0040240F8D82B019329
:104F7000FBF7DCFD019BCEE722F0040240F8D82BC2
:104F80000193FBF7D3FDDDE622A8FBF7C3FD01E7A4
:104F9000027A03467AB9427AA2B14168013A10B462
:104FA0004272086803220C1D1A7202025C60000E35
:104FB00010BC1A6070470068013A1A7202021A6047
:104FC000000E7047B02070472DE9F043064685B0CB
:104FD0000D4600272846FFF7DBFFB028044600F007
:104FE000218103065ED500F0F003A02B1DD033D83D
:104FF000802B00F08780902B2AD100F00D030D2B21
:1050000026D00DF10808002300F00F021946CDF854
:1050100000803046FFF750FC0023CDF800800D22C1
:1050200019463046FFF770FCD4E7C34303F007038B
:105030004FF47F621A41010702F47F6201D542F406
:105040008042002319463046FFF72CFE0028C1D0CD
:10505000092005B0BDE8F083B02B68D0C02B3FD14C
:10506000C62800F0CC80C72800F0DF8000F0F803ED
:10507000C02B00F0EC80C82800F0F780C928E7D1E9
:105080002846FFF785FF020300F00F0002F47022AC
:1050900001300243012105233046FFF703FE0028BB
:1050A00098D0D5E78300DBB203F104080DF10809BD
:1050B00000231946CDF800900D223046FFF7FCFB87
:1050C000029ACDF8009060064CBFA2EB0802424461
:1050D0000023029219460D223046FFF715FC79E7AE
:1050E00000F0F803D02BB3D100F007020132052302
:1050F00042F4002201213046FFF7D4FD00283FF49E
:1051000069AFA5E72846FFF743FF24022043B0F527
:10511000004F9DD004010023A2B219463046FFF78C
:10512000C1FD002894D1C4F3C030074352E7A0F179
:10513000B103042B00F2B580DFE803F05729160C09
:10514000030003AA0023009219460D223046FFF700
:10515000B3FB3FE700231A4605213046FFF7A2FDC7
:1051600000283FF437AF73E72846FFF711FF02032B
:1051700000F00F00013002F47022012302431946AF
:105180003046FFF78FFD00283FF424AF60E700238F
:105190000DF108090D221946CDF800903046FFF7B1
:1051A0008BFB2846FFF7F4FE0206029C4FF0020834
:1051B0000CD500F07F0000FA08F004442846029461
:1051C000FFF7E6FE030608F10708F2D400FA08F03C
:1051D00004F50174204400230290CDF800900D22C4
:1051E00019463046FFF790FBF4E62846FFF7D0FE5D
:1051F000431EDBB20E2B02467FF623AF28E728467C
:10520000FFF7C6FE020300F00F00013002F4702227
:105210000323024319463046FFF744FD00283FF4BC
:10522000D9AE15E76FB3002013E72846FFF7B0FEAD
:10523000431EDBB20E2B02463FF60AAF00230421C9
:105240003046FFF72FFD00283FF4C4AE00E700F022
:105250000F020132032342F4202219463046FFF7A1
:1052600021FD00283FF4B6AEF2E62846FFF790FE97
:1052700000F0F00200F00F031032013343EA023273
:1052800008E702AC3B46394600940E223046FFF751
:1052900013FB0F2200943B4639463046FFF734FBA0
:1052A000C1E700F0FC03B42B3FF4D2AE00F00702DC
:1052B0000132012342F4002219463046FFF7F2FC86
:1052C00000283FF487AEC3E608B5062000F0C6F913
:1052D0000120FCF753F800BF024A0349034800F0DD
:1052E000C9B800BF1000002029830008200000205A
:1052F0000C4B4168994210B5044601D003F014F8F4
:10530000A168094B994202D0204603F00DF8E168EC
:10531000064B994204D02046BDE8104003F004B883
:1053200010BD00BF78530020E053002048540020F7
:105330002DE9F843314A324C3249DFF8DC90DFF88E
:10534000DC80314F1160002504232946082204F136
:105350005C00C4E903352D4EA560C4E90055C4E9DD
:105360000555656600F02CF904F15800C4E90749B9
:10537000C4E90987E66200F06DFA2946244B6367A9
:10538000082204F1C400C4E91A55C4E91E55256772
:10539000C4F8CC50C4F8805000F012F904F168034E
:1053A00004F1C000C4F88430C4E92298C4E924762A
:1053B00000F050FA174BC4F8DC30294604F596701B
:1053C0000822C4E93455C4E93855C4F8D850C4F8A3
:1053D0003451C4F8E85000F0F3F804F1D003C4E904
:1053E0003D87C4F8F09004F59470C4F8FC60C4F8EC
:1053F000EC30BDE8F84300F02DBA00BFB0540020F7
:1054000078530020D95200081D5500084155000866
:105410000900010012000200B9540008DD54000820
:1054200010B504460A4800F019FA636B23B9094B1A
:10543000094A1B68626323B1BDE81040044800F0CC
:105440000FBAFFF775FFBDE81040014800F008BA39
:10545000C0540020B0540020F1520008014800F070
:10546000FDB900BFC0540020014800F0F9B900BFE9
:10547000C05400202DE9F8430746884616464FF0F1
:105480000009D6E90154013D10D4A389012B08D9A4
:10549000B4F90E3001332146384602D0C04749EAFC
:1054A0000009013D6B1C04F16804EED13668002E42
:1054B000E7D14846BDE8F88310B50C46B1F90E10A7
:1054C00000F056F9002803DB236D0344236510BD6B
:1054D000A38923F48053A38110BD00BF2DE9F041BF
:1054E0000C46B1F90C101F46CB05054616460BD4E9
:1054F00021F48051A1813B46B4F90E103246284672
:10550000BDE8F04100F062B9B4F90E1002230022A8
:1055100000F018F9B4F90C10EAE700BF10B50C461A
:10552000B1F90E1000F00EF9B4F90C30421C0EBFA8
:1055300023F4805343F480532065A38110BD00BF42
:10554000B1F90E1000F0B6B810B51C4C0029246853
:105550009AB02DDB009004904FF40270ADF80C006F
:105560004FF00000199013D001394FF6FF700291EF
:105570000591ADF80E006946204600F0B1FD421CD1
:1055800001DA8B232360009B00221A701AB010BD31
:105590004FF6FF7002910591ADF80E006946204666
:1055A00000F09EFD431C01DA8B2323601AB010BD6E
:1055B0008B2323604FF0FF30F8E700BF1C00002072
:1055C000830730B546D08418844604E003F8011BF5
:1055D0009D0704D09C46A4456346F7D130BD013AEF
:1055E0000244A2EB0C02032A29D9CCB204EB042416
:1055F0000F2A04EB04442FD9A2F1100C2CF00F0C4D
:1056000003F11005AC44C3E90044C3E9024410337C
:105610006345F8D112F00C0F02F00F0E18D02EF0E7
:10562000030C9C44AEF104051A4642F8044B624553
:10563000FBD125F0030404330EF003022344002AB7
:10564000CCD0C9B21A4403F8011B9342FBD130BD40
:105650007246F4E70346C6E79646E0E738B5144BD2
:105660001F281D681ED8D5F83821044662B152F8AB
:1056700020304BB1012B05D0591C0FD0002142F82E
:1056800020109847002038BD284600F09DF822469B
:1056900001462846BDE8384000F080B816232B604C
:1056A000012038BD16232B604FF0FF3038BD00BFFE
:1056B0001C00002038B5074D0022044608462A6029
:1056C000FBF780FE431C00D038BD2B68002BFBD0BD
:1056D000236038BDB4540020194B1B6883422ED080
:1056E000416C70B5054681B100268C593CB121460C
:1056F0002468284600F022F9002CF8D1696C0436A1
:10570000802EF2D1284600F019F9A96B11B1284674
:1057100000F014F92C6C34B121462468284600F0BE
:105720000DF9002CF8D1E96C11B1284600F006F90A
:105730006B6B1BB12846BDE87040184770BD7047C1
:105740001C00002038B50D46084C844611462846FA
:105750001A46002323606546FBF73EFE431C00D03B
:1057600038BD2368002BFBD02B6038BDB45400201B
:1057700038B50D46084C8446114628461A46002383
:1057800023606546FBF700FE431C00D038BD23684C
:10579000002BFBD02B6038BDB454002070B50C46F4
:1057A000084D03460026204611461C462E60FBF796
:1057B000DDFD431C00D070BD2B68002BFBD02360A7
:1057C00070BD00BFB4540020FBF7CEBD38B50D4608
:1057D000084C8446114628461A4600232360654635
:1057E000FBF7E2FD431C00D038BD2368002BFBD043
:1057F0002B6038BDB4540020014B1868704700BFBF
:105800001C00002070B50F4B0F4DAB42A3EB0506FB
:1058100007D0B610002455F8043B01349847A6423F
:10582000F9D806F0F7FB094D094B5E1BAB424FEA76
:10583000A60606D0002455F8043B01349847A6423A
:10584000F9D870BD54C5000854C5000854C50008F7
:105850005CC50008704700BF704700BF704700BFBD
:10586000704700BF024B13B1024800F005B8704703
:105870000000000011860008002301461A46184661
:1058800002F01ABF2DE9F84306460820894602F0C7
:10589000D3FEDFF8A4800546304600F013FCD8F8AC
:1058A00008305F6827F00307A7F11104A4EB09048F
:1058B0002C44B4FBF5F4013C05FB04F4A54208DCE0
:1058C0000021304602F092FED8F808303B4498425E
:1058D00005D0304600F0FCFB0020BDE8F8836142B3
:1058E000304602F083FE01300FD0114AD8F808305C
:1058F0003F1B47F001075F60136830461B1B1360B6
:1059000000F0E6FB0120BDE8F8830021304602F0FC
:105910006DFED8F80820831A0F2BDADD43F001035F
:105920005360044B02491B68C01A0860D1E700BFEE
:10593000C8540020640100207001002000295BD0C1
:10594000F8B50C46074600F0BDFB54F804CC744D86
:10595000A4F108022CF00103D118A8684E6888420F
:1059600026F003060CF0010E7ED088194E604068C8
:1059700000F00100BEF1000F2FD154F8084C121BAB
:105980002344946805F1080C644562D0D2F80CE019
:10599000C4F80CE0CEF8084000287FD043F00100A6
:1059A00050600B60B3F5007F2FD2D90868685C099E
:1059B0000131012309B2A34003436B6055F8310064
:1059C000906005EBC103083BD36045F83120C2600D
:1059D0003846BDE8F84000F07BBB70B9334405F1B0
:1059E000080C8868604543F0010471D0C968C16043
:1059F00088605460D350D5E770474CF00101B3F58F
:105A0000007F44F8041CD350CFD3B3F5206F4FEA86
:105A1000532045D2980900F1390109B200F1380448
:105A2000C900681869580838884203D157E0896866
:105A3000884204D04C6824F003049C42F7D8C8681C
:105A4000C2E9021082603846CA60BDE8F84000F042
:105A50003FBB88BB1E44D1E90213CB60996046F07E
:105A6000010353609651B3E71E44BEF1000F07D106
:105A700054F8083CD21A1E44D2E90213CB60996054
:105A800046F001035360274BAA601B68B3429FD8BE
:105A9000254B38461968FFF7F5FE99E73344A0E730
:105AA00014280ED9542821D8180B00F16F0109B21F
:105AB00000F16E04C900B4E743F0010050600B60D0
:105AC00086E700F15C0109B200F15B04C900A8E7B8
:105AD000C5E90422C2E902CC5460D35078E76E686D
:105AE000A4100123A34033436B60A9E7B0F5AA7F5C
:105AF00007D8D80B00F1780109B200F17704C9008A
