:020000040800F2
:1000000000000220D94E0008394900083B49000889
:100010003D4900083F490008414900080000000030
:10002000000000000000000000000000A1760008B1
:1000300043490008000000004177000809740008E7
:10004000294F0008294F0008294F0008294F0008B0
:10005000294F0008294F0008294F0008294F0008A0
:10006000294F0008294F0008294F0008294F000890
:10007000294F0008294F0008294F0008294F000880
:10008000294F0008294F0008294F000800000000F0
:10009000000000000000000000000000294F0008E0
:1000A000294F0008294F0008294F0008294F000850
:1000B000294F0008294F0008294F0008294F000840
:1000C000294F0008294F0008294F0008294F000830
:1000D000294F0008294F0008294F000800000000A0
:1000E000294F0008294F0008294F00080000000090
:1000F000000000000000000000000000294F000880
:1001000000000000294F000845490008294F000859
:1001100000000000000000000000000000000000DF
:10012000294F0008294F0008294F0008294F0008CF
:10013000294F00080000000000000000000000003F
:10014000000000000000000000000000294F00082F
:10015000294F0008294F0008294F0008294F00089F
:10016000294F0008294F000800000000000000008F
:10017000000000000000000000000000000000007F
:1001800000000000294F00080000000000000000EF
:08019000294F0008294F000867
:1001C00081F0004102E000BF83F0004330B54FEA08
:1001D00041044FEA430594EA050F08BF90EA020F75
:1001E0001FBF54EA000C55EA020C7FEA645C7FEA08
:1001F000655C00F0E2804FEA5454D4EB5555B8BF2B
:100200006D420CDD2C4480EA020281EA030382EA9B
:10021000000083EA010180EA020281EA0303362D2D
:1002200088BF30BD11F0004F4FEA01314FF4801C00
:100230004CEA113102D0404261EB410113F0004F12
:100240004FEA03334CEA133302D0524263EB4303C9
:1002500094EA050F00F0A780A4F10104D5F1200E67
:100260000DDB02FA0EFC22FA05F2801841F10001C2
:1002700003FA0EF2801843FA05F359410EE0A5F196
:1002800020050EF1200E012A03FA0EFC28BF4CF0C7
:10029000020C43FA05F3C01851EBE37101F000457D
:1002A00007D54FF0000EDCF1000C7EEB00006EEB8A
:1002B0000101B1F5801F1BD3B1F5001F0CD3490814
:1002C0005FEA30004FEA3C0C04F101044FEA44526B
:1002D00012F5800F80F09A80BCF1004F08BF5FEAF2
:1002E000500C50F1000041EB045141EA050130BDD2
:1002F0005FEA4C0C404141EB0101013C28BFB1F5E4
:10030000801FE9D291F0000F04BF01460020B1FA2E
:1003100081F308BF2033A3F10B03B3F120020CDA01
:100320000C3208DD02F1140CC2F10C0201FA0CF0DF
:1003300021FA02F10CE002F11402D8BFC2F1200C44
:1003400001FA02F120FA0CFCDCBF41EA0C019040FA
:10035000E41AA2BF01EB0451294330BD6FEA040443
:100360001F3C1CDA0C340EDC04F11404C4F120022E
:1003700020FA04F001FA02F340EA030021FA04F340
:1003800045EA030130BDC4F10C04C4F1200220FA97
:1003900002F001FA04F340EA0300294630BD21FAD5
:1003A00004F0294630BD94F0000F83F4801306BF9B
:1003B00081F480110134013D4EE77FEA645C18BF8F
:1003C0007FEA655C29D094EA050F08BF90EA020F26
:1003D00005D054EA000C04BF1946104630BD91EA1E
:1003E000030F1EBF0021002030BD5FEA545C05D121
:1003F0004000494128BF41F0004130BD14F5800460
:100400003CBF01F5801130BD01F0004545F0FE41D3
:1004100041F470014FF0000030BD7FEA645C1ABF08
:10042000194610467FEA655C1CBF0B46024650EA3F
:10043000013406BF52EA033591EA030F41F400216B
:1004400030BD00BF90F0000F04BF0021704730B5F1
:100450004FF4806404F132044FF000054FF00001C6
:1004600050E700BF90F0000F04BF0021704730B587
:100470004FF4806404F1320410F0004548BF40425C
:100480004FF000013EE700BF42004FEAE2014FEAB1
:1004900031014FEA02701FBF12F07F4393F07F4F8C
:1004A00081F06051704732F07F4208BF704793F08F
:1004B0007F4F04BF41F40021704730B54FF46074A2
:1004C00001F0004521F000411CE700BF50EA0102A5
:1004D00008BF704730B54FF000050AE050EA01024E
:1004E00008BF704730B511F0004502D5404261EBBE
:1004F00041014FF4806404F132045FEA915C3FF4FF
:10050000D8AE4FF003025FEADC0C18BF03325FEA9B
:10051000DC0C18BF033202EBDC02C2F1200300FA4C
:1005200003FC20FA02F001FA03FE40EA0E0021FA71
:1005300002F11444BDE600BF70B54FF0FF0C4CF45F
:10054000E06C1CEA11541DBF1CEA135594EA0C0F11
:1005500095EA0C0F00F0DEF82C4481EA030621EA4C
:100560004C5123EA4C5350EA013518BF52EA033587
:1005700041F4801143F4801338D0A0FB02CE4FF039
:100580000005E1FB02E506F00042E0FB03E54FF069
:100590000006E1FB03569CF0000F18BF4EF0010E61
:1005A000A4F1FF04B6F5007F64F5407404D25FEA5D
:1005B0004E0E6D4146EB060642EAC62141EA555110
:1005C0004FEAC52040EA5E504FEACE2EB4F1FD0C52
:1005D00088BFBCF5E06F1ED8BEF1004F08BF5FEAD0
:1005E000500E50F1000041EB045170BD06F0004682
:1005F00046EA010140EA020081EA0301B4EB5C042F
:10060000C2BFD4EB0C0541EA045170BD41F4801126
:100610004FF0000E013C00F3AB8014F1360FDEBF4B
:10062000002001F0004170BDC4F10004203C35DA27
:100630000C341BDC04F11404C4F1200500FA05F3AA
:1006400020FA04F001FA05F240EA020001F000424B
:1006500021F0004110EBD37021FA04F642EB0601C1
:100660005EEA430E08BF20EAD37070BDC4F10C04EB
:10067000C4F1200500FA04F320FA05F001FA04F2AF
:1006800040EA020001F0004110EBD37041F100019B
:100690005EEA430E08BF20EAD37070BDC4F12005A6
:1006A00000FA05F24EEA020E20FA04F301FA05F20E
:1006B00043EA020321FA04F001F0004121FA04F2B6
:1006C00020EA020000EBD3705EEA430E08BF20EA86
:1006D000D37070BD94F0000F0FD101F000464000C0
:1006E00041EB010111F4801F08BF013CF7D041EA42
:1006F000060195F0000F18BF704703F00046520046
:1007000043EB030313F4801F08BF013DF7D043EA16
:100710000603704794EA0C0F0CEA135518BF95EACC
:100720000C0F0CD050EA410618BF52EA4306D1D153
:1007300081EA030101F000414FF0000070BD50EA72
:10074000410606BF1046194652EA430619D094EAFC
:100750000C0F02D150EA013613D195EA0C0F05D1E6
:1007600052EA03361CBF104619460AD181EA03013A
:1007700001F0004141F0FE4141F470014FF00000F2
:1007800070BD41F0FE4141F4780170BD70B54FF08D
:10079000FF0C4CF4E06C1CEA11541DBF1CEA13550D
:1007A00094EA0C0F95EA0C0F00F0A7F8A4EB0504EF
:1007B00081EA030E52EA03354FEA013100F08880E6
:1007C0004FEA03334FF0805545EA131343EA1263AF
:1007D0004FEA022245EA111545EA10654FEA002664
:1007E0000EF000419D4208BF964244F1FD0404F51D
:1007F000407402D25B084FEA3202B61A65EB030579
:100800005B084FEA32024FF480104FF4002CB6EB35
:10081000020E75EB030E22BFB61A754640EA0C00B5
:100820005B084FEA3202B6EB020E75EB030E22BFF5
:10083000B61A754640EA5C005B084FEA3202B6EB36
:10084000020E75EB030E22BFB61A754640EA9C00F5
:100850005B084FEA3202B6EB020E75EB030E22BFC5
:10086000B61A754640EADC0055EA060E18D04FEA83
:10087000051545EA16754FEA06164FEAC30343EA23
:1008800052734FEAC2025FEA1C1CC0D111F4801FF0
:100890000BD141EA00014FF000004FF0004CB6E7E9
:1008A00011F4801F04BF01430020B4F1FD0C88BF88
:1008B000BCF5E06F3FF6AFAEB5EB030C04BFB6EB93
:1008C000020C5FEA500C50F1000041EB045170BD86
:1008D0000EF0004E4EEA113114EB5C04C2BFD4EBB3
:1008E0000C0541EA045170BD41F480114FF0000E37
:1008F000013C90E645EA060E8DE60CEA135594EAB3
:100900000C0F08BF95EA0C0F3FF43BAF94EA0C0FB5
:100910000AD150EA01347FF434AF95EA0C0F7FF42A
:1009200025AF104619462CE795EA0C0F06D152EA7E
:1009300003353FF4FDAE1046194622E750EA410662
:1009400018BF52EA43067FF4C5AE50EA41047FF473
:100950000DAF52EA43057FF4EBAE12E74FF0FF3CD8
:1009600006E000BF4FF0010C02E000BF4FF0010CA9
:100970004DF804CD4FEA410C7FEA6C5C4FEA430C22
:1009800018BF7FEA6C5C1BD001B050EA410C0CBF71
:1009900052EA430C91EA030F02BF90EA020F0020D3
:1009A000704710F1000F91EA030F58BF994208BF3A
:1009B00090422CBFD8176FEAE37040F001007047F7
:1009C0004FEA410C7FEA6C5C02D150EA013C07D14E
:1009D0004FEA430C7FEA6C5CD6D152EA033CD3D099
:1009E0005DF8040B704700BF8446104662468C4693
:1009F0001946634600E000BF01B5FFF7B7FF0028C6
:100A000048BF10F1000F01BD4DF808EDFFF7F4FFEE
:100A10000CBF012000205DF808FB00BF4DF808ED79
:100A2000FFF7EAFF34BF012000205DF808FB00BF9C
:100A30004DF808EDFFF7E0FF94BF012000205DF8BE
:100A400008FB00BF4DF808EDFFF7CEFF94BF012073
:100A500000205DF808FB00BF4DF808EDFFF7C4FF6C
:100A600034BF012000205DF808FB00BF4FEA410CB5
:100A70007FEA6C5C02D150EA013C0AD14FEA430C98
:100A80007FEA6C5C02D152EA033C02D14FF00000D5
:100A900070474FF0010070474FEA410212F5001213
:100AA00015D211D56FF47873B3EB625212D94FEAB5
:100AB000C12343F0004343EA505311F0004F23FA9F
:100AC00002F018BF404270474FF00000704750EAF4
:100AD000013005D111F0004008BF6FF000407047B1
:100AE0004FF00000704700BF53B94AB9002908BF52
:100AF00000281CBF4FF0FF314FF0FF3000F0E2B88C
:100B0000ADF1080C6DE904CE13F05AFBDDF804E0FA
:100B1000DDE9022304B0704700F1340191E83800A8
:100B20009C46A6464CF8045D90E8FF0FE54600BDE4
:100B300090EC210B704700BF80EC210B704700BF89
:100B400090EC200B704700BF80EC200B704700BF7B
:100B5000D0EC200B704700BFC0EC200B704700BFEB
:100B6000F0EC0201F0EC0211F0EC0221F0EC0231A9
:100B7000F0EC0241F0EC0251F0EC0261F0EC027199
:100B8000F0EC0281F0EC0291F0EC02A1F0EC02B189
:100B9000F0EC02C1F0EC02D1F0EC02E1F0EC02F179
:100BA000704700BFE0EC0201E0EC0211E0EC022132
:100BB000E0EC0231E0EC0241E0EC0251E0EC0261D9
:100BC000E0EC0271E0EC0281E0EC0291E0EC02A1C9
:100BD000E0EC02B1E0EC02C1E0EC02D1E0EC02E1B9
:100BE000E0EC02F1704700BFB0FC0181B0FC019164
:100BF000B0FC01A1B0FC01B1704700BFA0FC0181B5
:100C0000A0FC0191A0FC01A1A0FC01B1704700BFB4
:100C1000EC4600B52DE900502DE9FF1F4FF0000311
:100C20002DE90C0001A913F0A5FDDDF840E012B09C
:100C3000704700BFEC4600B52DE900502DE9FF1FBD
:100C40004FF000032DE90C0001A913F0D1FDDDF8F0
:100C500040E012B0704700BFEC4600B52DE90050EF
:100C60002DE9FF1F4FF000032DE90C0001A913F03F
:100C7000E1FDDDF840E012B0704700BFEC4600B582
:100C80002DE900502DE9FF1F4FF000032DE90C0066
:100C900001AB13F0A5FDDDF840E012B0704700BFD6
:100CA000EC4600B52DE900502DE9FF1F4FF0000381
:100CB0002DE90C0001AA13F021FEDDF840E012B08E
:100CC000704700BF704700BF000000000000000038
:100CD0000000000000000000000000000000000014
:100CE00002780B78012A28BF9A4240F0D8806DE93B
:100CF000044540EA0104CDE902676FF0000C4FEAB9
:100D000044721AB380EA010414F0070F6BD100F0AB
:100D1000070420F0070004F0030521F007014FEA63
:100D2000C505F0E8042314F0040FF1E804670CFA99
:100D300005F462EA040266EA04060BD063EA0403DF
:100D4000624667EA0407664604E000BFF0E8042351
:100D5000F1E8046782FA4CF582EA0604A4FA8CF4FE
:100D60006CBB83FA4CF583EA0705A5FA8CF595B9B7
:100D700050E9022351E9026782FA4CF582EA06043F
:100D8000A4FA8CF483FA4CF583EA0705A5FA8CF5EE
:100D90002543DBD09CB92DBAB5FA85F424F00704BD
:100DA00027FA04F1DDE9026723FA04F303F0FF00F8
:100DB00001F0FF01FDE80445A0EB0100704724BAF3
:100DC000B4FA84F424F0070426FA04F1DDE902679A
:100DD00022FA04F202F0FF0001F0FF01FDE80445F1
:100DE000A0EB0100704714F0030F3CD110F0030496
:100DF00028D150F8082B51F8083B82FA4CF582EACA
:100E00000305A5FA8CF55DB950F8042C51F8043CA3
:100E100082FA4CF582EA0305A5FA8CF5002DE8D09C
:100E20002DBAB5FA85F424F0070423FA04F122FA66
:100E300004F202F0FF0001F0FF01FDE80445A0EB21
:100E4000010070474FEAC40420F0030050F8082B5B
:100E500021F0030151F8083B0CFA04F462EA0402A1
:100E600063EA0403C9E710F003041DD0A1EB0401F9
:100E700020F00300E40750F8042B06D012D28B7840
:100E80005FFAA2F4E41A06D12BB1CB785FFAB2F480
:100E9000E41A00D133B920465DF8104B7047A2EB3D
:100EA0000300704701F1040150F8042BCC0721F036
:100EB000030151F8043B48D824D222F07F4482FA3F
:100EC0004CF594EA1325A5FA8CF50AD165B951F8C9
:100ED000043B84EA0204B4EB036F0ED150F8042BF8
:100EE000EBE74FEA132355E035F07F454DD1087805
:100EF000FDE80445C0F1000070474FEA126203F0BC
:100F0000FF0347E002EA1C4482FA4CF594EA1345D9
:100F1000A5FA8CF50AD165B951F8043B84EA0204BC
:100F2000B4EB034F0CD150F8042BEBE74FEA13431B
:100F300030E015EA1C4528D10B884FEA124229E01F
:100F40004FEA124203EA1C4324E002F0FF0482FA53
:100F50004CF594EA1365A5FA8CF50AD165B951F8F8
:100F6000043B84EA0204B4EB032F09D150F8042BAC
:100F7000EBE74FEA13630DE015F0FF0F05D10B68A7
:100F80004FEA122223F07F4304E04FF00000FDE817
:100F90000445704712BA1BBA82FA4CF482EA030481
:100FA000A4FA8CF5B5FA85F402FA04F203FA04F314
:100FB0004FEA1260FDE80445A0EB1360704700BFE4
:100FC00001F0FF01102A2BDB10F0070F08D010F8FA
:100FD000013B013A8B422DD010F0070F42B3F6D1FE
:100FE000F0B441EA012141EA014122F007047FF017
:100FF00000070023F0E80256083C85EA010586EA6E
:10100000010685FA47F5A3FA87F586FA47F6A5FAA9
:1010100087F68EB9EED1F0BC01F0FF0102F00702B5
:1010200032B110F8013B013A83EA010313B1F8D160
:101030000020704701387047002D06BF3546033841
:10104000073815F0010F07D1013015F4807F02BF7A
:10105000013015F4C03F0130F0BC0138704700BFCB
:10106000844641EA000313F003036DD1403A41D3B3
:1010700051F8043B40F8043B51F8043B40F8043B72
:1010800051F8043B40F8043B51F8043B40F8043B62
:1010900051F8043B40F8043B51F8043B40F8043B52
:1010A00051F8043B40F8043B51F8043B40F8043B42
:1010B00051F8043B40F8043B51F8043B40F8043B32
:1010C00051F8043B40F8043B51F8043B40F8043B22
:1010D00051F8043B40F8043B51F8043B40F8043B12
:1010E00051F8043B40F8043B51F8043B40F8043B02
:1010F000403ABDD2303211D351F8043B40F8043BA2
:1011000051F8043B40F8043B51F8043B40F8043BE1
:1011100051F8043B40F8043B103AEDD20C3205D3B1
:1011200051F8043B40F8043B043AF9D2043208D0A9
:10113000D2071CBF11F8013B00F8013B01D30B881B
:1011400003806046704700BF082A13D38B078DD0F9
:1011500010F003038AD0C3F10403D21ADB071CBFCB
:1011600011F8013B00F8013B80D331F8023B20F835
:10117000023B7BE7043AD9D3013A11F8013B00F86E
:10118000013BF9D20B7803704B7843708B788370F6
:1011900060467047000000000000000000000000F2
:1011A000000000000000000000000000000000003F
:1011B000000000000000000000000000000000002F
:1011C00030B490F800F020F007016FF0000C10F040
:1011D000070491F820F040F048804FF000046FF0D1
:1011E0000700D1E9002391F840F000F1080082FAED
:1011F0004CF2A4FA8CF283FA4CF3A2FA8CF34BBBB8
:10120000D1E9022382FA4CF200F10800A4FA8CF230
:1012100083FA4CF3A2FA8CF3E3B9D1E9042382FAFE
:101220004CF200F10800A4FA8CF283FA4CF3A2FA13
:101230008CF37BB9D1E9062301F1200182FA4CF24B
:1012400000F10800A4FA8CF283FA4CF3A2FA8CF3B2
:10125000002BC6D0002A04BF04301A4612BAB2FAD4
:1012600082F200EBD20030BC7047D1E9002304F0D9
:101270000305C4F100004FEAC50514F0040F91F80E
:1012800040F00CFA05F562EA05021CBF63EA0503AB
:1012900062464FF00004AAE70348044B834202D0A1
:1012A000034B03B118477047F4060020F4060020F2
:1012B000000000000548064B1B1AD90F01EBA301E3
:1012C000491002D0034B03B118477047F4060020C1
:1012D000F40600200000000010B5064C237843B946
:1012E000FFF7DAFF044B13B10448AFF3008001238A
:1012F000237010BDF80600200000000084C701081C
:1013000008B5054B1BB105490548AFF30080BDE8A2
:101310000840FFF7CFBF00BF00000000FC06002020
:1013200084C7010801607047F0B587B00446002308
:101330008DF817308DF81630642302930123019342
:101340000DF1170200927522D021006804F08EFB87
:101350009DF81730682B02D0002007B0F0BD0125A2
:101360008DF816506427029701950DF11606009628
:101370002B466B22D021206804F0C8FA00238DF898
:1013800016300297019500962B466B22D0212068DB
:1013900004F0BCFA09238DF81630029701950096E7
:1013A0002B461922D021206804F0B0FA08238DF8CA
:1013B00016300297019500962B461C22D0212068FA
:1013C00004F0A4FA10238DF81630029701950096C8
:1013D0002B461B22D021206804F098FA80238DF838
:1013E00016300297019500962B463722D0212068AF
:1013F00004F08CFA2846B0E72DE9F04186B0884623
:1014000017461E460068642302930623019304AB2B
:10141000009301234322D02104F028FB002838D177
:101420009DF810C04FEA0C2C0FFA8CFC9DF81100AF
:101430009DF812502D022DB29DF813301D439DF8DA
:101440001440240224B29DF815301C434CEA0000DD
:10145000FFF708F810A3D3E90023FFF797F9C8E9CD
:1014600000012846FEF7FEFF0BA3D3E90023FFF798
:101470008DF9C7E900012046FEF7F4FF06A3D3E982
:101480000023FFF783F9C6E90001012006B0BDE89B
:10149000F0810020FAE700BFF853E3A59BC43E406B
:1014A0002DE9F04186B0884617461E460068642341
:1014B00002930623019304AB009301233B22D02126
:1014C00004F0D4FA002835D19DF810C04FEA0C2C56
:1014D0000FFA8CFC9DF811009DF812502D022DB2D0
:1014E0009DF813301D439DF81440240224B29DF84A
:1014F00015301C434CEA0000FEF7B4FF00220E4BEF
:10150000FFF71AF8C8E900012846FEF7ABFF0022F2
:10151000094BFFF711F8C7E900012046FEF7A2FFCB
:101520000022054BFFF708F8C6E90001012006B0CC
:10153000BDE8F0810020FAE70000203F38B51546ED
:101540000C1A082C06DD22460146284616F03EFC01
:10155000281938BD082CFBD1D0E90023C5E90023A8
:10156000F6E70000000000009FED277B80ED007B88
:101570009FED277B80ED027B01220274427482740E
:101580009FED257B80ED067B9FED256B80ED086B45
:101590009FED256B80ED0A6B9FED254B80ED0C4B8D
:1015A0009FED255B80ED0E5B9FED255B80ED105B75
:1015B0009FED255B80ED125B80ED147B80ED166B5B
:1015C00080ED187B9FED225B80ED1A5B9FED225B27
:1015D00080ED1C5B80ED1E4B9FED214B80ED204B81
:1015E00080ED225B9FED204B80ED244B80ED265B50
:1015F00080ED287B9FED1E7B80ED2A7B80ED2C6BA0
:10160000704700BFAFF300800000000000000840FA
:101610000000000000002240000000000000E03F49
:1016200000000000000059400000000000000040E1
:101630009A9999999999B93F2D431CEBE2361A3F33
:10164000B81E85EB51B89E3F000000000000F83F37
:101650009A9999999999A93F000000000000344097
:1016600000000000000024400000000000001440C2
:101670000000000000004E402DE9F04F2DED048BDE
:101680008DB006460D461446D0E900AB91ED007BC7
:101690008DED007B53EC172B50465946FEF74CFF5F
:1016A0008046894696ED027B8DED027B95ED027BAF
:1016B0008DED047B53EC172BDDE90201FEF73CFFB7
:1016C00002460B4640464946FEF77EFD8046894667
:1016D00096ED047B8DED067B95ED047B8DED087B0F
:1016E00053EC172BDDE90601FEF726FF02460B46F9
:1016F00040464946FEF768FD8046894696ED067BE2
:101700008DED0A7BD5E9066732463B4651EC170B57
:10171000FEF712FF02460B4640464946FEF754FDCF
:1017200041EC190BDDE9042350465946FEF704FF4E
:1017300080468946DDE90223DDE90001FEF7FCFE73
:1017400002460B4640464946FEF740FD8046894624
:1017500032463B46DDE90601FEF7EEFE02460B4649
:1017600040464946FEF732FD80468946DDE90A23B8
:10177000DDE90801FEF7E0FE02460B464046494619
:10178000FEF722FD41EC180BDDE9082350465946CF
:10179000FEF7D2FE8046894632463B46DDE902012D
:1017A000FEF7CAFE02460B4640464946FEF70CFDD0
:1017B00080468946DDE90623DDE90001FEF7BCFE2F
:1017C00002460B4640464946FEF700FD80468946E4
:1017D000DDE90A23DDE90401FEF7AEFE02460B4611
:1017E00040464946FEF7F2FC8046894632463B4673
:1017F00050465946FEF7A0FE06460F46DDE908238F
:10180000DDE90201FEF798FE02460B4630463946F6
:10181000FEF7DCFC06460F46DDE90623DDE90401A0
:10182000FEF78AFE02460B4630463946FEF7CCFCF0
:1018300006460F46DDE90A23DDE90001FEF77CFEDE
:1018400002460B4630463946FEF7C0FC84ED009B4D
:1018500084ED028BC4E90489C4E906010DB0BDEC36
:10186000048BBDE8F08F08B50A4600F1B801D83006
:10187000FFF702FF08BD00000022064BC0E900236D
:1018800000220023C0E90223C0E90423C0E90623A3
:10189000704700BF0000F03F2DE9F04F2DED048BA5
:1018A0009DB004460D461992D0E904AB52465B4602
:1018B00050465946FEF78AFC02460B4650465946AA
:1018C000FEF73AFECDE9080102460B4600209D498D
:1018D000FEF77AFC06460F46D4E9068942464B4697
:1018E00040464946FEF772FC02460B4640464946D2
:1018F000FEF722FECDE90A0102460B463046394684
:10190000FEF762FC95ED007B8DED067B53EC172B0B
:10191000FEF712FECDE9020195ED027B8DED007B15
:1019200057EC176B32463B4630463946FEF74EFCC5
:10193000CDE90C01D4E9026732463B465046594690
:10194000FEF7FAFDCDE90E0194ED007B8DED047BF1
:1019500053EC172B40464946FEF7EEFD0A4601467A
:10196000CDE9101213460246DDE90E01FEF72CFC0C
:1019700002460B46DDE90C01FEF7DEFD02460B4692
:10198000DDE90201FEF722FCCDE91A0195ED047BA9
:101990008DED027B55EC174B22462B4620462946FF
:1019A000FEF714FC04460D46DDE904235046594673
:1019B000FEF7C2FDCDE9140132463B46404649469A
:1019C000FEF7BAFD0A460146CDE916121346024655
:1019D000DDE91401FEF7FAFB02460B46CDE912459C
:1019E00020462946FEF7A8FD02460B46DDE91A010E
:1019F000FEF7ECFB41EC190BDDE9064522462B46D0
:101A000020462946FEF7E2FB04460D46DDE9102399
:101A1000DDE90E01FEF7DAFB02460B46CDE906458D
:101A200020462946FEF788FD04460D4632463B46D1
:101A300030463946FEF7CAFB02460B463046394669
:101A4000FEF77AFD02460B4600203E49FEF7BCFB3E
:101A500002460B46CDE90E23DDE90A23FEF7B4FB6F
:101A600002460B46DDE90001FEF766FD02460B4625
:101A700020462946FEF7AAFBCDE9000142464B4627
:101A800050465946FEF758FD04460D46DDE904234D
:101A900030463946FEF750FD06460F4602460B46D5
:101AA00020462946FEF790FB02460B46DDE912016F
:101AB000FEF742FD02460B46DDE90001FEF786FB1C
:101AC00041EC180BDDE91423DDE91601FEF77CFB80
:101AD00002460B46DDE90601FEF72EFD80468946EB
:101AE00032463B4620462946FEF770FB02460B462F
:101AF000DDE90C01FEF720FD02460B464046494653
:101B0000FEF764FB04460D46DDE90823DDE90E011E
:101B1000FEF75AFB02460B46DDE90201FEF70CFD1B
:101B200002460B4620462946FEF750FB199B83EDE3
:101B3000009B83ED028BC3E904011DB0BDEC048B57
:101B4000BDE8F08F0000F03F2DE9F04180460F46E0
:101B500000260024002510E008EBC603D3E90001AD
:101B600002460B46FEF7E8FC02460B462046294695
:101B7000FEF72CFB04460D460136BE42ECD345EC85
:101B8000104B0FF069FCBDE8F08100002DE9F8432F
:101B900081468846FFF7D8FF57EC106B00220B4BAD
:101BA00030463946FEF73AFF70B900240AE009EBE7
:101BB000C40532463B46D5E90001FEF7E7FDC5E91D
:101BC000000101344445F2D3BDE8F8830000B03C85
:101BD0002DE9F84F2DED028B83468A4659EC108B88
:101BE000B0EE418AF0EE618A002409E053EC182B34
:101BF00030463946FEF730FF08B185ED008B0134E1
:101C000054450ED20BEBC405D5E9006742464B465E
:101C100030463946FEF702FF0028E7D0C5E90089C3
:101C2000EDE7BDEC028BBDE8F88F0000000000007E
:101C3000F8B555EC104B57EC116B002200233046E1
:101C40003946FEF709FF80B10022002320462946CD
:101C5000FEF7E4FE20BB0022002320462946FEF7C3
:101C6000D3FE48B19FED100BF8BD134B134A40F261
:101C70000231134813F040FB304607F10041224681
:101C80002B46FEF783FD41EC100B0FF095FB53EC58
:101C9000102B00200B49FEF797FA41EC100BE3E7FD
:101CA0009FED030BE0E700BF000000000000F03FE5
:101CB0000000000000000000CCC70108D4C70108E4
:101CC00010C801080000F03F2DE9F84F2DED028B00
:101CD00057EC106B59EC118B04460D460022002383
:101CE00030463946FEF7B8FE00287ED00022002399
:101CF00040464946FEF7B0FE00287DD00022504BFA
:101D000040464946FEF718FC32463B46FEF7A4FE25
:101D1000002878D132463B4643A1D1E90001FEF7C5
:101D200035FD43A3D3E90023FEF706FC42464B46AC
:101D3000FEF702FC41EC100B0FF056FC57EC106B59
:101D400032463B4630463946FEF7F6FB804689462A
:101D500039A3D3E9002330463946FEF7EDFB82462E
:101D60008B4602460B4640464946FEF72FFA0022B4
:101D7000344BFEF72BFA06460F4602460B4640460A
:101D80004946FEF703FD02460B4643EC182B84ED53
:101D9000008BFEF71BFAC4E9020184ED048B0022DC
:101DA000284B40464946FEF70FFA02460B46FEF71F
:101DB0000DFA32463B46FEF7E9FCC5E90001524602
:101DC0005B4600201F49FEF7FFF902460B464046DE
:101DD0004946FEF7FBF932463B46FEF7D7FCC5E91C
:101DE0000201BDEC028BBDE8F88F174B174A40F299
:101DF0000E31174813F080FA164B144A40F20F3197
:101E0000134813F079FA00220E4BC4E90023002294
:101E10000023C4E90223C4E90423C5E90023C5E97A
:101E20000223DEE7AFF300802266BE2964CFCC3FF9
:101E3000182D4454FB210940CD3B7F669EA0F63F00
:101E40000000E03F0000F03F78C8010880C80108AA
:101E500010C80108CCC701082DE9F04157EC106B00
:101E6000054688461446D0E9002300200B49FEF7BA
:101E7000ABF932463B46FEF75FFBC4E90001D8E907
:101E80000223D5E90401FEF79FF932463B46FEF7EF
:101E900053FBC4E90201BDE8F08100BF0000F03F40
:101EA0002DE9F04782B057EC106B05468A46144680
:101EB00032463B46D0E90001FEF73EFBD4E9002361
:101EC000FEF784F98046894632463B46D5E9020151
:101ED000FEF732FBCDE9000142464B46DAE900014C
:101EE000FEF72AFB02460B46DDE90001FEF76CF91E
:101EF000D4E90223FEF76AF9C4E9000132463B4601
:101F0000D5E90401FEF718FB06460F4642464B464C
:101F1000DAE90201FEF710FB02460B46304639466D
:101F2000FEF752F9C4E9020149EC108B02B0BDE89A
:101F3000F08700002DE9F04F2DED048B83B0109E4B
:101F4000DDF84490012915D905460C46B0EE409ABB
:101F5000F0EE609AB0EE418AF0EE618A174698463C
:101F6000D6E9000102460B46FEF780FD48B94FF066
:101F7000000A73E03D4B3E4A40F24B313D4813F0BE
:101F8000BBF9D6E9020102460B46FEF76FFD58B9D0
:101F90000022394BD6E90201FEF718F9C6E9020121
:101FA0004FF0000B01972BE000220023C6E902232B
:101FB000002307E09A1C06EBC20200200021C2E9C0
:101FC00000010133A342F5D3E2E70BF1020706EB70
:101FD000C7074FEACB0A05EBCB03D3E90023D7E9C8
:101FE0000001FEF7F3F802460B46C7E90023CA4496
:101FF000D6E90223FEF7CAFBCAE900010BF1010B87
:10200000A345E2D3019F53EC182BD6E90201FEF75A
:1020100093FA53EC192BFEF715FD08B300250AE0DF
:1020200009EBC50306EB05124146384693ED000B5C
:10203000FFF712FF0135A542F2D311E005EBCA0309
:1020400009EBCA0B06EB0A124146384693ED000B2A
:10205000FFF726FF8BED000B0AF1010AA245EDD335
:1020600003B0BDEC048BBDE8F08F00BFC8C8010809
:10207000D0C8010810C801080000F03F00000000AF
:102080002DE9F04F2DED048B93B004460D46437CB3
:102090001BB9837C002B00F0898004F52C7304F5B8
:1020A00026720192009304F5836304F5806294ED37
:1020B000E41B94ED140B03212846FFF73BFFD4E902
:1020C000A68942464B46D5E90001FEF77DF8024657
:1020D0000B46FEF731FA06460F46D4E9A8AB524646
:1020E0005B46D5E90201FEF76FF802460B46FEF7A4
:1020F00023FA02460B4630463946FEF767F8064695
:102100000F4694EDAA9B53EC192BD5E90401FEF779
:102110005BF802460B46FEF70FFA02460B463046C6
:102120003946FEF753F806460F46C4E9A0675CA39C
:10213000D3E90023D4E90A01FEF7FEF9CDE9020153
:1021400057A3D3E90023D4E91601FEF7F5F90246B7
:102150000B46FEF7F1F902460B4630463946FEF7CC
:1021600071FCE0B9404629F00041DDE902673246E2
:102170003B46FEF771FC90B950462BF000413246C9
:102180003B46FEF769FC50B919EE100A19EE903A79
:1021900023F0004132463B46FEF75EFC30B10022A0
:1021A0000023C4E9A423002384F80031D4E95C238C
:1021B000D5E90001FEF708F8CDE90C01D4E95E236A
:1021C000D5E90201FEF700F8CDE90E01D4E960235C
:1021D000D5E90401FDF7F8FFCDE9100103210CA8B2
:1021E000FFF7B2FC57EC106B32463B46D4E9E401F2
:1021F000FEF7A2F9804689460022274B3046394631
:10220000FEF72AFC20B913B0BDEC048BBDE8F08FBB
:102210000022224B40464946FEF78EF941EC180B4E
:10222000B0EE480AF0EE680A0FF04AF959EC108B4C
:10223000B0EE480AF0EE680A0FF08EF951EC100B80
:1022400032463B46FEF7A2FA06460F46CDE9048920
:1022500002460B46DDE90C01FEF76EF9CDE90601F9
:1022600032463B46DDE90E01FEF766F9CDE908018D
:1022700032463B46DDE91001FEF75EF9CDE90A0181
:10228000B834224604A92046FFF7F6F90421204677
:10229000FFF77CFCB7E700BF0000B03C0000E03F68
:1022A000399D52A246DF913F80ED000B00220023B2
:1022B000C0E90223C0E90423C0E9062380ED080B2E
:1022C000C0E90A23C0E90C23C0E90E2380ED100BFE
:1022D0007047000010B50446B830FFF7CDFA04F19E
:1022E000D800FFF7C9FA00220023C4E93E230023E7
:1022F00084F80031012384F8013104F5847304F576
:10230000907203E000200021E3E802019A42F9D133
:1023100004F5907304F5A87203E000204E49E3E849
:1023200002019A42F9D100220023C4E9542300207B
:102330004A49C4E95601C4E95823C4E95A2304F5BB
:10234000B87304F5C47203E000200021E3E8020141
:102350009A42F9D104F5C47094EDF60BFFF7A4FF8F
:1023600004F5E87304F5187203E000203A49E3E845
:1023700002019A42F9D104F5187304F5207203E0C2
:1023800000203549E3E802019A42F9D104F52073AF
:1023900004F5267203E000200021E3E802019A42DE
:1023A000F9D100220023C4E9A42304F5267304F51F
:1023B0002C7203E000200021E3E802019A42F9D1E7
:1023C00004F52C7304F5387203E000202249E3E899
:1023D00002019A42F9D104F5387304F53E7203E024
:1023E00000200021E3E802019A42F9D104F53E738E
:1023F00004F54A7203E000201749E3E802019A421B
:10240000F9D100220023C4E9CA23C4E9CC23C4E9DA
:10241000CE23D4E92A01C4E9D00100201049C4E93F
:10242000D201C4E9D423C4E9D62304F5587304F5D2
:102430005C7203E000200021E3E802019A42F9D136
:1024400004F55C7304F5647403E000200249E3E8DA
:1024500002019C42F9D110BD0000F87F0000F03F5E
:102460000000F0BF2DE9F04F99B005460C4690ED05
:10247000087B8DED027BD0E9108942464B4651EC3A
:10248000170BFEF759F806460F4695ED0A7B8DEDC2
:10249000047B95ED0E7B8DED067B53EC172BDDE970
:1024A0000401FEF749F802460B4630463946FDF76F
:1024B0008BFECDE90C01D5E904AB52465B46DDE964
:1024C0000601FEF739F806460F4695ED027B8DEDC5
:1024D000007B53EC172B40464946FEF72DF8024689
:1024E0000B4630463946FDF76FFECDE91001DDE9B8
:1024F0000023DDE90401FEF71FF806460F465246A9
:102500005B46DDE90201FEF717F802460B4630464E
:102510003946FDF759FECDE9120195ED0C7B8DEDA5
:10252000087B53EC172BDDE90401FEF705F806469E
:102530000F4695ED067B8DED0A7B53EC172B40463D
:102540004946FDF7F9FF02460B4630463946FDF78E
:102550003BFECDE90E01D5E9006732463B464046D9
:102560004946FDF7E9FF80468946DDE908235046E4
:102570005946FDF7E1FF02460B4640464946FDF746
:1025800023FECDE91401DDE90A2350465946FDF743
:10259000D3FF8046894632463B46DDE90401FDF71C
:1025A000CBFF02460B4640464946FDF70DFECDE9FE
:1025B0001601DDE90A23DDE90601FDF7BDFF8046CE
:1025C0008946DDE90823DDE90201FDF7B5FF024692
:1025D0000B4640464946FDF7F7FD80468946DDE952
:1025E0000823DDE90001FDF7A7FFCDE9040132462C
:1025F0003B46DDE90601FDF79FFF02460B46DDE99C
:102600000401FDF7E1FDCDE9040132463B46DDE979
:102610000201FDF791FFCDE90201DDE90A23DDE9C1
:102620000001FDF789FF02460B46DDE90201FDF7D7
:10263000CBFDCDE90201DDE90C2330463946FDF73B
:102640007BFF06460F46DDE90E23DDE90001FDF7BD
:1026500073FF02460B4630463946FDF7B7FD064686
:102660000F4642464B4650465946FDF765FF024627
:102670000B4630463946FDF7A9FD06460F460022B7
:10268000314BFEF7DFF938B10022304B3046394686
:10269000FEF7CEF900284BD132463B46DDE90C016E
:1026A000FEF774F8C4E9000132463B46DDE910014B
:1026B000FEF76CF8C4E9020132463B46DDE912013F
:1026C000FEF764F8C4E9040132463B46DDE90E0139
:1026D000FEF75CF8C4E9060132463B46DDE9140129
:1026E000FEF754F8C4E9080132463B46DDE916011D
:1026F000FEF74CF8C4E90A0132463B4640464946DB
:10270000FEF744F8C4E90C0132463B46DDE904011A
:10271000FEF73CF8C4E90E0132463B46DDE9020112
:10272000FEF734F8C4E91001012019B0BDE8F08FBC
:1027300004F1480103E000220023E4E80223A1425F
:10274000F9D10020F1E700BF0000B0BC0000B03CB0
:102750002DE9D04F044600220023D0E9E401FEF722
:102760007BF9002800F0B580D4E9E6670022002359
:1027700030463946FEF770F9002800F0B18000229B
:102780000023D4E9E801FEF767F9002800F0AF80E4
:1027900004F5707194ED000B04F56A7047EC116B51
:1027A000FFF792FA94EDE81B94ED020BFFF740FA65
:1027B00084EDF40B0022664BD4E90601FDF7BCFE64
:1027C00002460B46FDF7B8FEC4E9F6010022604B55
:1027D000D4E9E601FDF7B0FED4E90823FDF7D6FF02
:1027E00006460F46C4E9F8670022594BD4E90C01AC
:1027F000FDF7A2FE02460B46FDF79EFE8046894687
:1028000002460B46FDF798FE32463B46FDF7BEFFFB
:1028100042464B46FDF7DAFC80468946C4E9FA8910
:10282000D4E90EAB48A3D3E9002350465946FEF73E
:10283000F5F8002862D152465B4640464946FDF70E
:10284000A5FFC4E9FC010022414BD4E91001FDF7CA
:1028500073FE02460B46FDF76FFE80468946024630
:102860000B46FDF769FE32463B46FDF78FFF4246B9
:102870004B46FDF7ABFCC4E9FE0104F5836104F5AA
:10288000806094EDE41B94ED140BFFF71DFA04F542
:10289000886104F5856094EDE61B94ED140BFFF759
:1028A00013FA94EDE81B94ED1C0BFFF7C1F904F546
:1028B0008A6383ED000BD4E91A67002200233046B7
:1028C0003946FEF7C9F8F0B904F58B6304F58E625A
:1028D00028E0204B204A4FF47271204812F00CFD82
:1028E0001F4B1D4A40F2C9311C4812F005FD1D4B1B
:1028F000194A40F2CA31194812F0FEFC0FF2480B97
:10290000DBE900AB97E704F58E6104F58B6094ED8D
:10291000E81B47EC106BFFF7D7F910E000201249D5
:10292000E3E802019A42F9D104F58E6304F590625E
:1029300003E000200C49E3E802019A42F9D1204665
:10294000FFF7C8FCBDE8D08FBBBDD7D9DF7CDB3D2E
:102950000000594054C9010868C9010810C801089D
:102960007CC9010890C901080000F87F2DE9D04F0B
:10297000044657EC106B5BEC11AB59EC128BFEF775
:10298000F3FDC4E9E4670022002350465946FEF7F0
:1029900063F890B1C4E9E6AB002200234046494603
:1029A000FEF75AF808B146464F46C4E9E8672046A4
:1029B000FFF7CEFE2046BDE8D08FB246BB46E9E722
:1029C0002DE9F04FA9B004460D461592D0E90089D3
:1029D00091ED007B8DED007B53EC172B4046494673
:1029E000FDF7AAFD06460F46D4E902AB95ED067B3E
:1029F0008DED027B53EC172B50465946FDF79CFD9D
:102A000002460B4630463946FDF7E0FB06460F46C8
:102A100094ED047B8DED047B95ED0C7B8DED067BB9
:102A200053EC172BDDE90401FDF786FD02460B464A
:102A300030463946FDF7CAFBCDE9160195ED027B1C
:102A40008DED087B53EC172B40464946FDF774FD8E
:102A500006460F4695ED087B8DED0A7B53EC172B50
:102A600050465946FDF768FD02460B46304639464A
:102A7000FDF7ACFB06460F4695ED0E7B8DED0C7B0E
:102A800053EC172BDDE90401FDF756FD02460B461A
:102A900030463946FDF79AFBCDE9180195ED047BE8
:102AA0008DED0E7B53EC172B40464946FDF744FD58
:102AB00006460F4695ED0A7B8DED107B53EC172BE8
:102AC00050465946FDF738FD02460B46304639461A
:102AD000FDF77CFB06460F4695ED107B8DED127BD6
:102AE00053EC172BDDE90401FDF726FD02460B46EA
:102AF00030463946FDF76AFBCDE91A01D4E906896B
:102B0000DDE9002340464946FDF716FD06460F461F
:102B1000D4E908AB52465B46DDE90201FDF70CFD46
:102B200002460B4630463946FDF750FBCDE904011D
:102B3000D4E90A6732463B46DDE90601FDF7FCFCB5
:102B400002460B46DDE90401FDF740FBCDE91C011F
:102B5000DDE9082340464946FDF7EEFCCDE90401D6
:102B600052465B46DDE90A01FDF7E6FC02460B46EC
:102B7000DDE90401FDF72AFBCDE9040132463B46BD
:102B8000DDE90C01FDF7D8FC02460B46DDE9040146
:102B9000FDF71CFBCDE91E01DDE90E234046494649
:102BA000FDF7CAFC8046894652465B46DDE91001C6
:102BB000FDF7C2FC02460B4640464946FDF706FBC0
:102BC0008046894632463B46DDE91201FDF7B4FCFA
:102BD00002460B4640464946FDF7F8FACDE920018A
:102BE000D4E90CABDDE9002350465946FDF7A4FCBF
:102BF00080468946D4E90E67DDE90223304639462E
:102C0000FDF79AFC02460B4640464946FDF7DEFAC0
:102C100080468946D4E9104522462B46DDE9060167
:102C2000FDF78AFC02460B4640464946FDF7CEFAC0
:102C3000CDE92201DDE9082350465946FDF77CFC29
:102C400080468946DDE90A2330463946FDF774FCA3
:102C500002460B4640464946FDF7B8FA804689468B
:102C600022462B46DDE90C01FDF766FC02460B46C9
:102C700040464946FDF7AAFACDE92401DDE90E23D5
:102C800050465946FDF758FC80468946DDE9102339
:102C900030463946FDF750FC02460B464046494651
:102CA000FDF794FA06460F4622462B46DDE912014F
:102CB000FDF742FC02460B4630463946FDF786FAE0
:102CC000CDE92601159A28A916A8FEF737FC29B0E8
:102CD000BDE8F08F2DE9F04FA9B004460D461592DE
:102CE000D0E9008991ED007B8DED007B53EC172B33
:102CF00040464946FDF720FC06460F46D4E906ABA0
:102D000095ED067B8DED027B53EC172B5046594613
:102D1000FDF712FC02460B4630463946FDF756FADF
:102D200006460F4694ED0C7B8DED047B95ED0C7BF8
:102D30008DED067B53EC172BDDE90401FDF7FCFB61
:102D400002460B4630463946FDF740FACDE91601FA
:102D500095ED027B8DED087B53EC172B40464946E1
:102D6000FDF7EAFB06460F4695ED087B8DED0A7BE5
:102D700053EC172B50465946FDF7DEFB02460B4637
:102D800030463946FDF722FA06460F4695ED0E7B92
:102D90008DED0C7B53EC172BDDE90401FDF7CCFB2B
:102DA00002460B4630463946FDF710FACDE91801C8
:102DB00095ED047B8DED0E7B53EC172B4046494679
:102DC000FDF7BAFB06460F4695ED0A7B8DED107BAD
:102DD00053EC172B50465946FDF7AEFB02460B4607
:102DE00030463946FDF7F2F906460F4695ED107B61
:102DF0008DED127B53EC172BDDE90401FDF79CFBF5
:102E000002460B4630463946FDF7E0F9CDE91A0196
:102E1000D4E90289DDE9002340464946FDF78CFBF1
:102E200006460F46D4E908AB52465B46DDE902018F
:102E3000FDF782FB02460B4630463946FDF7C6F9E0
:102E4000CDE90401D4E90E6732463B46DDE90601CF
:102E5000FDF772FB02460B46DDE90401FDF7B6F90A
:102E6000CDE91C01DDE9082340464946FDF764FB36
:102E7000CDE9040152465B46DDE90A01FDF75CFB42
:102E800002460B46DDE90401FDF7A0F9CDE9040196
:102E900032463B46DDE90C01FDF74EFB02460B4690
:102EA000DDE90401FDF792F9CDE91E01DDE90E230C
:102EB00040464946FDF740FB8046894652465B4600
:102EC000DDE91001FDF738FB02460B464046494656
:102ED000FDF77CF98046894632463B46DDE9120122
:102EE000FDF72AFB02460B4640464946FDF76EF9C0
:102EF000CDE92001D4E904ABDDE900235046594671
:102F0000FDF71AFB80468946D4E90A67DDE902230A
:102F100030463946FDF710FB02460B46404649460F
:102F2000FDF754F980468946D4E9104522462B46E0
:102F3000DDE90601FDF700FB02460B464046494627
:102F4000FDF744F9CDE92201DDE908235046594651
:102F5000FDF7F2FA80468946DDE90A233046394614
:102F6000FDF7EAFA02460B4640464946FDF72EF9C0
:102F70008046894622462B46DDE90C01FDF7DCFA46
:102F800002460B4640464946FDF720F9CDE92401AB
:102F9000DDE90E2350465946FDF7CEFA80468946B4
:102FA000DDE9102330463946FDF7C6FA02460B46E6
:102FB00040464946FDF70AF906460F4622462B468B
:102FC000DDE91201FDF7B8FA02460B4630463946F4
:102FD000FDF7FCF8CDE92601159A28A916A8FEF7F9
:102FE000ADFA29B0BDE8F08F2DE9F04FA9B0044645
:102FF0000D461592D0E9008991ED007B8DED007BA7
:1030000053EC172B40464946FDF796FA06460F4605
:10301000D4E902AB95ED027B8DED027B53EC172BCF
:1030200050465946FDF788FA02460B463046394667
:10303000FDF7CCF806460F4694ED047B8DED047B3E
:1030400095ED047B8DED067B53EC172BDDE9040138
:10305000FDF772FA02460B4630463946FDF7B6F8E0
:10306000CDE9160195ED067B8DED087B53EC172B12
:1030700040464946FDF760FA06460F4695ED087B47
:103080008DED0A7B53EC172B50465946FDF754FA49
:1030900002460B4630463946FDF798F806460F467D
:1030A00095ED0A7B8DED0C7B53EC172BDDE90401CC
:1030B000FDF742FA02460B4630463946FDF786F8E0
:1030C000CDE9180195ED0C7B8DED0E7B53EC172BA4
:1030D00040464946FDF730FA06460F4695ED0E7B11
:1030E0008DED107B53EC172B50465946FDF724FA13
:1030F00002460B4630463946FDF768F806460F464D
:1031000095ED107B8DED127B53EC172BDDE904015F
:10311000FDF712FA02460B4630463946FDF756F8DF
:10312000CDE91A01D4E90689DDE900234046494684
:10313000FDF702FA06460F46D4E908ABDDE90223A3
:1031400050465946FDF7F8F902460B4630463946D7
:10315000FDF73CF8CDE90401D4E90A67DDE906236F
:1031600030463946FDF7E8F902460B46DDE9040131
:10317000FDF72CF8CDE91C01DDE90823404649465E
:10318000FDF7DAF9CDE9040152465B46DDE90A01B3
:10319000FDF7D2F902460B46DDE90401FDF716F80A
:1031A000CDE9040132463B46DDE90C01FDF7C4F9E7
:1031B00002460B46DDE90401FDF708F8CDE91E01E2
:1031C00042464B46DDE90E01FDF7B6F980468946D9
:1031D00052465B46DDE91001FDF7AEF902460B46AB
:1031E00040464946FCF7F2FF8046894632463B4658
:1031F000DDE91201FDF7A0F902460B4640464946BB
:10320000FCF7E4FFCDE92001D4E90CABDDE90023B4
:1032100050465946FDF790F980468946D4E90E6735
:10322000DDE9022330463946FDF786F902460B46B2
:1032300040464946FCF7CAFF80468946D4E9104516
:10324000DDE9062320462946FDF776F902460B46BE
:1032500040464946FCF7BAFFCDE92201DDE90823E3
:1032600050465946FDF768F980468946DDE90A234C
:1032700030463946FDF760F902460B46404649465E
:10328000FCF7A4FF80468946DDE90C232046294649
:10329000FDF752F902460B4640464946FCF796FFB9
:1032A000CDE92401DDE90E2350465946FDF744F9E6
:1032B00080468946DDE9102330463946FDF73CF962
:1032C00002460B4640464946FCF780FF06460F463D
:1032D00022462B46DDE91201FDF72EF902460B4688
:1032E00030463946FCF772FFCDE92601159A28A928
:1032F00016A8FEF723F929B0BDE8F08F0000000002
:103300002DE9F04F2DED0E8BDDB004460D46002269
:103310000023D1E90001FDF777FB78B100220023FB
:10332000D5E90201FDF770FB40B100220023D5E989
:103330000401FDF769FB002840F0D882637C002B74
:1033400040F0D98256AE3246294604F1B800FEF765
:10335000A3FA04F56A72109204F57071119104F5E4
:10336000907304F58475019500930B4694EDE61B6C
:1033700004F1D80894ED000B03213046FEF7DAFD86
:10338000324629464046FEF787FA03213046FEF7CB
:10339000FDFB0022C64BDDE95A01FCF717FF0022B6
:1033A000C44BFDF7C9F841EC100B0EF055F857EC83
:1033B000106BBBA3D3E9002330463946FDF74CFB25
:1033C000002800F00683CDE94E670022B94BDDE905
:1033D0005801FDF7B1F832463B46FDF7D7F9CDE984
:1033E00050010022B44BDDE95601FDF7A5F8324645
:1033F0003B46FDF7CBF9CDE9520100220023CDE990
:103400005423424641464EA8FEF736F90421404671
:10341000FEF7BCFB9DED5A0B0DF062FF51EC100B5B
:10342000D4E9E623FDF7B2F9C4E95401237C1BB9C2
:10343000637C002B00F05A829BA3D3E90023D4E9DC
:103440000A01FDF779F841EC180B22A92046FEF796
:103450000AFADDE9268942464B4640464946FDF7D1
:103460006BF802460B46FCF7B1FECDE904010246BB
:103470000B4600208E49FCF7A7FE06460F46DDE905
:1034800028AB52465B4650465946FDF755F8024672
:103490000B46FCF79BFECDE9060102460B46304683
:1034A0003946FCF791FE41EC1E0BCDE92A01DDE91E
:1034B000246732463B4640464946FDF73DF8CDE994
:1034C00008019DED227B8DED027B53EC172B5046BE
:1034D0005946FDF731F80A460146CDE90A1213466E
:1034E0000246DDE90801FCF76FFE02460B46FCF7D9
:1034F0006DFE41EC1D0BCDE92C01DDE902234046B8
:103500004946FDF719F8CDE90C0132463B465046D5
:103510005946FDF711F80A460146CDE90E12134649
:103520000246DDE90C01FCF751FE02460B46FCF7B2
:103530004DFE41EC1B0BCDE92E01DDE90A23DDE94F
:103540000801FCF743FE02460B46FCF73FFE41EC48
:103550001C0BCDE9300132463B4630463946FCF77C
:10356000EBFF02460B46FCF731FE02460B460020FD
:103570004F49FCF729FE02460B46CDE90823DDE959
:103580000623FCF721FE41EC1A0BCDE9320152462D
:103590005B4640464946FCF7CFFF80468946DDE959
:1035A000022330463946FCF7C7FF06460F4602465F
:1035B0000B4640464946FCF707FE02460B46FCF721
:1035C00005FE41EC190BCDE93401DDE90C23DDE901
:1035D0000E01FCF7F9FD02460B46FCF7F7FDCDE9BD
:1035E000360132463B4640464946FCF7EFFD02466F
:1035F0000B46FCF7EBFDCDE93801DDE90423DDE9FD
:103600000801FCF7E1FDCDE93A01D4E95C673246F7
:103610003B4651EC1E0BFCF78FFF80468946D4E9F0
:103620005EAB52465B4651EC1D0BFCF785FF024634
:103630000B4640464946FCF7C9FDCDE90201D4E9F5
:10364000608942464B4651EC1B0BFCF775FF024666
:103650000B46DDE90201FCF7B9FD12ADCDE912011F
:1036600032463B4651EC1C0BFCF766FF06460F4604
:1036700052465B4651EC1A0BFCF75EFF02460B46C6
:1036800030463946FCF7A2FD06460F4642464B46F9
:1036900051EC190BFCF750FF02460B460EE000BF41
:1036A0008DEDB5A0F7C6B03E399D52A246DF913FE1
:1036B0000000F03F0000E03F0000E0BF3046394628
:1036C000FCF784FDCDE9140104F5E8732AA8019004
:1036D0000093DDF844804346109F3A4694EDE61B84
:1036E00004F5187694ED000B0921FEF723FC0195F3
:1036F000009643463A4694EDE61B94ED000B0221FA
:103700002846FEF717FC94F800311BB1637C002BB0
:1037100040F06C81237C002B00F09781DDE9582379
:10372000104603F1004194EDE69B53EC192BFDF795
:103730002DF8DDE91223FCF749FD8046894694ED1A
:103740005C7B8DED027B53EC172BDDE92A01FCF746
:10375000F3FE02460B4640464946FCF735FD8046DF
:103760008946D4E95EAB52465B46DDE92C01FCF7A5
:10377000E3FE02460B4640464946FCF725FDCDE9EF
:103780000401D4E9608942464B46DDE92E01FCF78D
:10379000D3FE02460B46DDE90401FCF715FDCDE939
:1037A0001C0153EC192BDDE95601FCF7EFFFDDE9B5
:1037B0001423FCF70BFD06460F46DDE93023DDE957
:1037C0000201FCF7B9FE02460B4630463946FCF7CB
:1037D000FBFC06460F46DDE9322350465946FCF70E
:1037E000ABFE02460B4630463946FCF7EDFC06467A
:1037F0000F46DDE9342340464946FCF79DFE02466C
:103800000B4630463946FCF7DFFCCDE91E01DDE909
:103810003601024601F10043DDE90201FCF78CFEAE
:1038200006460F46DDE9382350465946FCF784FE2C
:1038300002460B4630463946FCF7C6FC06460F46A4
:10384000DDE93A2340464946FCF776FE02460B4640
:1038500030463946FCF7B8FCCDE92001D4E9FA013D
:10386000CDE91601CDE91801D4E9FC01CDE91A0131
:10387000D4E96289D4E9F66732463B464046494678
:10388000FDF7CCF838B1D4E9F82340464946FCF7B7
:103890009DFCC4E96201D4E96A8942464B46304640
:1038A0003946FDF7D9F838B1D4E9F82340464946FE
:1038B000FCF78CFCC4E96A01D4E9728942464B46A4
:1038C00030463946FDF7C8F838B1D4E9F823404608
:1038D0004946FCF77BFCC4E9720100220023DDE9C4
:1038E0001601FDF7AFF8002840F0B1805DB0BDECE7
:1038F0000E8BBDE8F08F04F53E7304F5387201922B
:10390000009304F5886304F5856294EDE61B94ED5D
:10391000140B03212846FEF70DFBD4E9B823D5E9A3
:103920000001FCF751FC02460B46FCF705FE06467B
:103930000F46D4E9BA23D5E90201FCF745FC02465B
:103940000B46FCF7F9FD02460B4630463946FCF7BC
:103950003DFC06460F46D4E9BC23D5E90401FCF73B
:1039600033FC02460B46FCF7E7FD02460B463046A9
:103970003946FCF72BFC06460F46C4E9A267D4E99A
:10398000180102460B46FCF7D7FD02460B463046AF
:103990003946FDF757F838B100220023C4E9A423C3
:1039A000002384F80031CDE4D4E9E623D4E9A4016E
:1039B000FCF70CFC02460B46C4E9A423D4E912230D
:1039C000FDF740F800283FF4BDAC012384F8003136
:1039D000B8E400220023CDE94E230020A049CDE920
:1039E0005001CDE95223CDE954230AE5D4E95C2303
:1039F000D4E9A601FCF7E8FBCDE91C01D4E95E237C
:103A0000D4E9A801FCF7E0FBCDE91E01D4E960236D
:103A1000D4E9AA01FCF7D8FBCDE920012AA89FED43
:103A20008E0BFEF741FCD4E9FE0116AB01E0E3E8A2
:103A300002011CAA9342FAD11AE700208949E3E85F
:103A400002011CAA9342F8D112E716ABF9E7B0EED7
:103A5000489A18EE903A03F1004309EE903A0DF1BE
:103A6000700AB0EE481AF0EE681AB0EE490AF0EEAD
:103A7000690A03215046FEF7ABF804F5C4763CAD65
:103A80002AAF2A4639463046FFF7AEFA2A4629467B
:103A90003846FEF795FFDDE91623DDE93C01FCF72A
:103AA00095FBCDE93C01DDE91823DDE94401FCF794
:103AB0008DFBCDE94401DDE91A23DDE94C01FCF77A
:103AC00085FBCDE94C0129462846FEF7CBFC2A466A
:103AD00029463846FFF7FEF82A4629463046FEF7C3
:103AE0006FFF94ED5CAB9DED1C7B8DED027B53EC89
:103AF000172BDDE93C01FCF71FFD804689469DED53
:103B00001E7B8DED047B53EC172BDDE93E01FCF7AA
:103B100013FD02460B4640464946FCF757FB8046DC
:103B20008946DDE920AB52465B46DDE94001FCF702
:103B300003FD02460B4640464946FCF747FB02465A
:103B40000B4651EC1A0BFCF741FBC4E95C0194ED08
:103B50005EABDDE94223DDE90201FCF7EDFC8046C6
:103B60008946DDE94423DDE90401FCF7E5FC024672
:103B70000B4640464946FCF729FB80468946DDE96D
:103B8000462350465946FCF7D7FC02460B464046B2
:103B90004946FCF71BFB02460B4651EC1A0BFCF79F
:103BA00015FBC4E95E0194ED60ABDDE94823DDE976
:103BB0000201FCF7C1FC80468946DDE94A23DDE9C4
:103BC0000401FCF7B9FC02460B4640464946FCF7A7
:103BD000FDFA80468946DDE94C2350465946FCF7FC
:103BE000ABFC02460B4640464946FCF7EFFA02465C
:103BF0000B4651EC1A0BFCF7E9FAC4E960012A46BE
:103C000039462846FEF7DCFE2A4631462846FEF7AE
:103C1000D7FE00250FE005F1310604EBC6065CABCC
:103C200003EBC50353E92023D6E90001FCF7CCFAE6
:103C3000C6E900010135082DEDD9B0EE481AF0EEC5
:103C4000681AB0EE490AF0EE690A032104F5B8706B
:103C5000FDF7BEFF4AE600BF000000000000F03F95
:103C60000000F03F0000F0BF38B504461546FEF7EF
:103C700007FA29462046FFF743FB38BD84B010B54C
:103C800004460DF10C0C8CE80E008646BCE80F00D3
:103C9000AEE80F00BCE80F00AEE80F009CE807009C
:103CA0008EE80700012384F82C3084F82D3020465C
:103CB000BDE8104004B0704738B50446416800685C
:103CC00003F020F90546A168206803F01BF90543BD
:103CD00015F0FF0F01D0002038BD0120FCE711F0E6
:103CE000010F01D080F82C2011F0020F01D080F8D4
:103CF0002D20704710B5044671B190F82C20018A30
:103D0000C06801F08BFA94F82C2082F00102218B1C
:103D1000606901F083FA10BD90F82C2082F0010256
:103D2000018AC06801F07AFA94F82C20218B60692E
:103D300001F074FAEFE710B5044671B190F82D2048
:103D4000018CC06901F06AFA94F82D2082F001021A
:103D5000218D606A01F062FA10BD90F82D2082F08A
:103D60000102018CC06901F059FA94F82D20218DCF
:103D7000606A01F053FAEFE743681BB903681B68F8
:103D800059637047042B05D0082B07D003681B68C4
:103D90001964704703681B689963704703681B6860
:103DA000D963704783681BB903681B685963704700
:103DB000042B05D0082B07D003681B6819647047D3
:103DC00003681B689963704703681B68D963704771
:103DD00038B505460C1E0BDB0121FFF78BFF84EA8B
:103DE000E471A1EBE47189B22846FFF7C5FF38BD45
:103DF0000021FFF77FFFF2E738B505460C1E0BDB0D
:103E00000121FFF798FF84EAE471A1EBE47189B224
:103E10002846FFF7C7FF38BD0021FFF78CFFF2E708
:103E200010B504464168006803F0DEF8A168206818
:103E300003F0DAF8204610BD08B5C82004F006FEED
:103E40004FF40051014801F0EFF9F6E70008024095
:103E500070B584B000250395029503AB01931C2631
:103E600000962B4680220C490C4804F0F4FB0446D3
:103E700002AB019300962B464FF47A720849094829
:103E800004F0E9FB0443012C01D104B070BD0648E5
:103E900001F000F8F9E700BFA4C90108393E0008A5
:103EA000B0C9010819400008C0C9010810B504468E
:103EB000006810B1042105F093F900232360204627
:103EC00010BD10B50446006818B14FF4906105F0BC
:103ED00087F900232360204610BD70B588B00546E1
:103EE0000C46302005F092FD0646EC4604F10C0E1F
:103EF000BEE80F00ACE80F009EE80F008CE80F0052
:103F000094E80E003046FFF7B9FE05E03021304658
:103F100005F066F905F066F900232B602E6028464F
:103F200008B070BD70B504460E46042005F06EFD65
:103F300005463168FDF7F6F905E00421284605F04D
:103F40004FF905F04FF9002323602560204670BD2E
:103F500010B504460B6800220A600068236010B1A7
:103F6000042105F03DF9204610BD000000000000CE
:103F7000F8B504460E4617464FF4906005F046FD2E
:103F800005469FED0B2B97ED001B96ED000BFEF702
:103F9000EDFC06E04FF49061284605F021F905F0AC
:103FA00021F90023236025602046F8BDAFF300808F
:103FB000000000000000F0BF10B504460B680022AE
:103FC0000A600068236018B14FF4906105F008F9A9
:103FD000204610BD49B110B50C460846FFF720FF3A
:103FE0003021204605F0FCF810BD704710B504469E
:103FF0000B6800220A600168036009B1FFF7EAFF5D
:10400000204610BD10B50446016809B1FFF7E2FF74
:1040100000232360204610BD2DE9F04F2DED048BC9
:10402000C1B000233793369335932AAC2E4D0FCD74
:104030000FC40FCD0FC495E8070084E807002AA934
:1040400038A8FFF74AFF38AC214637A8FFF7CEFF64
:104050002046FFF7D7FF254B3A933AA939A8FFF737
:1040600061FF39AC214636A8FFF772FF2046FFF703
:104070001DFF19A3D3E90023CDE93C2318A3D3E9FD
:104080000023CDE93E233EAA3CA93BA8FFF770FFE1
:104090003BAC214635A8FFF78FFF2046FFF711FF05
:1040A0003798FFF709FE002202213798FFF717FE25
:1040B0004FF4FA713798FFF78BFE4FF4FA71379887
:1040C000FFF79AFE3698FDF72FF998B1084800F0EF
:1040D000E1FE12E0AFF300807B14AE47E17A843F4B
:1040E0007B14AE47E17A743FA0C70108180700208F
:1040F000C8C90108BE4800F0CDFE072004F0A6FCA8
:1041000016AB14AA12A93698FDF776F91CAB1AAAB9
:1041100018A93698FDF7C4F90022B64BDDE9120163
:10412000FCF754F8A8A3D3E90023FCF705FA002212
:10413000B14BFCF72BFB80468946CDE91289A4A33D
:10414000D3E90023DDE91401FCF740F89EA3D3E98D
:104150000023FCF7F1F90022A74BFCF717FB0646FA
:104160000F46CDE914679CA3D3E90023DDE91601CE
:10417000FCF72CF894A3D3E90023FCF7DDF9002227
:104180009D4BFCF703FB04460D46CDE9164594A371
:10419000D3E90023DDE91801FCF7CEF982468B460E
:1041A000CDE918AB8EA3D3E90023DDE91A01FCF7B2
:1041B000C3F941EC180BCDE91A0189A3D3E9002317
:1041C000DDE91C01FCF7B8F902460B46CDE91C23DA
:1041D000CDE91E89CDE92067CDE92245CDE924ABA3
:1041E0008DED268BCDE92823202200212AA813F06B
:1041F00069FE24AA1EA93598FFF736FD2AA935982D
:10420000FDF731FBDDE92A45DDE92C89DDE92EAB3F
:10421000DDE9306742464B4620462946FCF78CF9DB
:10422000CDE9060132463B4650465946FCF784F933
:1042300002460B46DDE90601FBF7C8FFCDE90E019A
:1042400022462B4620462946FCF776F9CDE90601A1
:1042500042464B4640464946FCF76EF902460B463D
:10426000CDE90823DDE90601FBF7AEFFCDE90C013E
:1042700052465B4650465946FCF75EF90A460146EF
:10428000CDE90A1213460246DDE90C01FBF79CFF5B
:10429000CDE9100132463B4630463946FCF74CF931
:1042A0000A460146CDE90C1213460246DDE910012B
:1042B000FBF78CFF41EC180BDDE90E0102460B46C3
:1042C000FBF784FFB0EE481AF0EE681A41EC100BD1
:1042D0000DF06EF851EC100B43A3D3E90023FCF76B
:1042E0002BF9CDE90E0132463B4640464946FCF7E4
:1042F00023F9CDE9100152465B4620462946FCF7DA
:104300001BF902460B46DDE91001FBF75DFF024693
:104310000B46FBF75BFF41EC100B0DF015F853EC6F
:10432000102B8DED040A03F1004305932EA3D3E96E
:104330000023DDE90401FCF7FFF841EC190B3246DC
:104340003B4620462946FCF7F7F804460D46524600
:104350005B4640464946FCF7EFF802460B462046CE
:104360002946FBF733FF04460D46DDE90823DDE966
:104370000601FBF72BFFDDE90A23FBF725FFDDE94B
:104380000C23FBF721FF41EC180B22462B4620465D
:104390002946FBF71BFFB0EE481AF0EE681A41EC15
:1043A000100B0DF005F851EC100B0FA3D3E900230F
:1043B000FCF7C2F8CDE902018DED009BDDE90E238B
:1043C0000E4800F067FD98E6182D4454FB21094083
:1043D000666666666666E63FCDCCCCCCCCCCEC3F60
:1043E0001F85EB51B89E23401805C1E3DBA54C4067
:1043F000D8C901080000044000806640E4C90108F3
:1044000035A8FFF75EFD36A8FFF750FD37A8FFF788
:10441000F9FD04F0E7FE00BF08B5FFF719FD4FF402
:104420007A7004F013FB044B186804F047F94FF45A
:10443000967004F00BFBFAE71407002070470000A9
:1044400008B5044A0021044803F018F8034B18602B
:1044500008BD00BFC8D50108194400081407002092
:104460002DE9F0438BB005AD002405940694079424
:104470000894099401943C4B1A6B42F004021A63AD
:104480001A6B02F004020192019A02941A6B42F034
:1044900080021A631A6B02F080020292029A03945D
:1044A0001A6B42F001021A631A6B02F001020392C6
:1044B000039A04941A6B42F002021A631B6B03F016
:1044C00002030493049BDFF8A88022464FF40051B6
:1044D000404600F0A3FE254F224649F2100138461F
:1044E00000F09CFEDFF88C90224640F20B414846DB
:1044F00000F094FE4FF400530593012606960794AE
:1045000008942946404600F0A5FD10230593069621
:10451000079408942946384600F09CFD0323059330
:10452000069607944FF00208CDF8208029464846A9
:1045300000F090FD4FF481630593112306930794D7
:10454000CDF820802946484600F084FD4FF4104302
:10455000059306960794CDF820802946384600F04A
:1045600079FD0BB0BDE8F083003802400000024046
:10457000000802400004024008B50B480B4B0360E2
:104580000B4B436000238360C3604FF480420261A1
:1045900043618361C361036201F0DAF800B908BDC9
:1045A00000F04CF8FBE700BF180700200054004063
:1045B000801A060030B589B0002303930493059355
:1045C000069307930268144B9A4201D009B030BD9C
:1045D00000250195114C236B43F002032363236BE9
:1045E00003F002030193019BC0230393122304935E
:1045F000032306930423079303A9094800F02AFD27
:104600000295236C43F400132364236C03F400131A
:104610000293029BDAE700BF0054004000380240DA
:104620000004024008B50268034B9A4200D008BD5E
:1046300000F096FCFBE700BF000C004072B6FEE7FE
:1046400010B594B008AC30220021204613F03AFC9B
:104650000023039304930593069307930193204A41
:10466000116C41F080511164126C02F08052019281
:10467000019A02931B4B1A6842F440421A601B686D
:1046800003F440430293029B052308934FF48033C5
:10469000099301230A9302230E934FF480020F9291
:1046A0000C2210926022119212930423139320463D
:1046B00001F058FB80B90F230393022304930023D6
:1046C00005934FF4805206920793032103A801F04B
:1046D00099FD18B914B010BDFFF7B0FFFFF7AEFF9A
:1046E000003802400070004008B500F01FFCFFF7E2
:1046F000A7FFFFF7B5FE00F079FBFFF73DFF00F0E5
:104700004FF800F08FF900F0BDF900F0BDFA00F0AD
:104710001BFB00F007F802F083FEFFF791FE02F0AA
:1047200091FEFEE708B50948094B0360002343608A
:104730007F228260FF22C26003614361836101F0D6
:104740005FFF00B908BDFFF779FFFBE76C070020AA
:104750000028004000B587B0002300930193029326
:1047600003930493059302680B4B9A4202D007B05F
:104770005DF804FB022300934FF4807304936846B2
:1047800001F034FE20B9054B0122C3F83C2EEEE7C0
:10479000FFF754FFF7E700BF002800400000474242
:1047A00008B50D480D4B03604FF48273436000233E
:1047B0008360C360036143614FF400728261C3612F
:1047C0000362436283620A23C36201F068FF00B997
:1047D00008BDFFF733FFFBE78C07002000300140E6
:1047E00000B589B0002303930493059306930793C0
:1047F0000268154B9A4202D009B05DF804FB002113
:10480000019103F584335A6C42F480525A645A6C15
:1048100002F480520192019A02911A6B42F0010255
:104820001A631B6B03F001030293029BE0230393C3
:1048300002230493032306930523079303A9034844
:1048400000F008FCD8E700BF003001400000024043
:1048500000B583B0002200920D4B596C41F48041A9
:104860005964596C01F48041009100990192196CCE
:1048700041F0805119641B6C03F080530193019B3C
:104880000F216FF0010000F0D1FB03B05DF804FBD5
:104890000038024030B589B0044600230193214B13
:1048A0001A6C42F008021A641B6C03F008030193AF
:1048B000019B02A903A801F07BFD069BCBB901F087
:1048C00057FD0346184AA2FB03239B0C013B1748E4
:1048D000174A026040F2E732C2604360002303617E
:1048E0008360836102F026F9054630B1284609B09D
:1048F00030BD01F03DFD4300E4E70C4801F0DAFF74
:1049000005460028F2D1322000F0A0FB0F2C01D97F
:104910000125EBE700222146322000F087FB054B02
:104920001C60E3E70038024083DE1B43E4070020FD
:10493000000C00400C000020FEE7FEE7FEE7FEE76B
:10494000FEE7704708B5024801F0F3FF08BD00BF5D
:10495000E40700200120704708B513F0C3FC1623BC
:1049600003604FF0FF3008BD08B54FF0FF31FFF78F
:10497000F3FFFEE770B50C461646002506E0AFF3E0
:104980000080214601F8010B01350C46B542F6DBEB
:10499000304670BD70B50C461646002504E014F88C
:1049A000010BAFF300800135B542F8DB304670BD36
:1049B0004FF0FF3070474FF400534B6000207047BA
:1049C000012070470020704710B503460C4A0D497E
:1049D0000D48006840B10C4800680344521A9342E5
:1049E00006D8094A136010BD0748084C0460F2E776
:1049F00013F078FC0C2303604FF0FF30F3E700BFA7
:104A0000000002200004000030080020B8580020F8
:104A1000034AD2F8883043F47003C2F888307047F4
:104A200000ED00E010B58CB003AC2422002120463C
:104A300013F048FA00230193029311484FF080428B
:104A40000260436083604FF0FF32C26003618361A4
:104A50000123039305930993214602F0C3F848B953
:104A600000230193029301A9054802F0FFFA20B93F
:104A70000CB010BDFFF7E2FDF2E7FFF7DFFDF7E74F
:104A80000C09002010B58CB003AC24220021204674
:104A900013F018FA0023019302931148114A02609F
:104AA000436083604FF6FF72C2600361836101233C
:104AB000039305930993214602F094F848B9002323
:104AC0000193029301A9064802F0D0FA20B90CB074
:104AD00010BDFFF7B3FDF2E7FFF7B0FDF7E700BF4A
:104AE000C40800200004004000B58BB000230593EB
:104AF00006930793089309930368B3F1804F05D099
:104B0000234A934224D00BB05DF804FB00210191AD
:104B100003F50E331A6C42F001021A641A6C02F0AB
:104B200001020192019A02911A6B42F001021A638A
:104B30001B6B03F001030293029B032305930223E3
:104B400006930123099305A9124800F083FADAE7D6
:104B500000210391104B1A6C42F002021A641A6C85
:104B600002F002020392039A04911A6B42F00202CD
:104B70001A631B6B03F002030493049B3023059319
:104B800002230693099305A9044800F063FABAE7E3
:104B900000040040000002400038024000040240CF
:104BA00082B00368104A934204D0104A93420ED058
:104BB00002B07047002300930D4B1A6C42F00402C0
:104BC0001A641B6C03F004030093009BF0E70023BE
:104BD0000193074B5A6C42F480325A645B6C03F4C5
:104BE00080330193019BE3E700080040004001404F
:104BF0000038024000B589B0002303930493059365
:104C00000693079303681B4A934205D01A4A9342BE
:104C100019D009B05DF804FB00230193174B1A6B00
:104C200042F002021A631B6B03F002030193019B23
:104C30004FF44073039302230493079303A910488E
:104C400000F008FAE5E7002302930C4B1A6B42F0E0
:104C500001021A631B6B03F001030293029B0C23F6
:104C60000393022304930323079303A9054800F049
:104C7000F1F9CEE700080040004001400038024052
:104C8000000402400000024000B58FB000230A93E8
:104C90000B930C930D930893099301930293039341
:104CA00004930593069307932548264A0260092238
:104CB0004260836040F2E732C2600361836101F0C9
:104CC00039FF58BB4FF480530A930AA91C4802F0DD
:104CD0008AF830BB1A4801F059FF28BB002308931B
:104CE000099308A9164802F0C1F900BB602301939B
:104CF0000023029303930593082201A9104801F0B1
:104D0000F7FFB8B90C2201A90D4801F0F1FFA0B9D5
:104D10000B48FFF76FFF0FB05DF804FBFFF78EFC49
:104D2000D0E7FFF78BFCD5E7FFF788FCD6E7FFF766
:104D300085FCDBE7FFF782FCE4E7FFF77FFCE7E7B2
:104D40007C0800200008004000B58DB000230893C7
:104D500009930A930B93019302930393049305938E
:104D6000069307931F48204A0260436083604FF612
:104D7000FF72C2600361836101F0DCFE18BB4FF477
:104D80008053089308A9174802F02DF8F0B9154888
:104D900001F0FCFEE8B96023019300220292039225
:104DA000059201A90F4801F0A3FFA8B904220DEB59
:104DB00002010C4801F09CFF88B90A48FFF71AFF6E
:104DC0000DB05DF804FBFFF739FCD8E7FFF736FCC0
:104DD000DDE7FFF733FCDEE7FFF730FCE6E7FFF740
:104DE0002DFCEAE7340800200040014008B50A48DD
:104DF0000A4B03604FF4E133436000238360C360D8
:104E000003610C2242618361C36102F068FA00B958
:104E100008BDFFF713FCFBE7540900200010014018
:104E200000B589B000230393049305930693079379
:104E3000026803F1804303F588339A4202D009B037
:104E40005DF804FB0021019103F594335A6C42F0A4
:104E500010025A645A6C02F010020192019A0291F7
:104E60001A6B42F001021A631B6B03F001030293F9
:104E7000029B4FF4C063039302230493032306931E
:104E80000723079303A9024800F0E4F8D7E700BF1F
:104E9000000002400FB410B5ADF5816D0DF58263D1
:104EA00053F8042BCDF8043401AC4FF48061204654
:104EB00012F04EFE2046FCF783F94FF0FF3382B22A
:104EC0002146044802F03BFA0DF5816DBDE8104023
:104ED00004B0704754090020DFF834D0FFF798FD84
:104EE0000C480D490D4A002302E0D458C450043345
:104EF000C4188C42F9D30A4A0A4C002301E013601B
:104F00000432A242FBD313F0F3F9FFF7EDFB704735
:104F10000000022000000020F4060020D8E801086C
:104F2000F8060020B4580020FEE7000008B50B4B3F
:104F30001A6842F400721A601A6842F480621A60B9
:104F40001A6842F480721A60032000F05DF80F20A6
:104F5000FFF7A0FCFFF77CFC002008BD003C0240EE
:104F6000034A1168034B1B780B441360704700BF62
:104F70009C09002008000020014B1868704700BF02
:104F80009C090020002807DB00F01F0240090123D4
:104F90009340024A42F82030704700BF00E100E031
:104FA000002808DB0901C9B200F1604000F561404A
:104FB00080F80013704700F00F000901C9B2014BDF
:104FC0001954704714ED00E000B500F00700C0F17F
:104FD000070CBCF1040F28BF4FF0040C031D062B77
:104FE0000FD9C31E4FF0FF3E0EFA0CF021EA00016C
:104FF00099400EFA03FE22EA0E0241EA02005DF831
:1050000004FB0023EEE70000074AD36823F4E063C3
:105010001B041B0C000200F4E060034343F0BF6379
:1050200043F40033D360704700ED00E010B5044650
:10503000054BD868C0F30220FFF7C6FF01462046A3
:10504000FFF7AEFF10BD00BF00ED00E008B5FFF7B1
:1050500099FF08BD00230F2B00F2D78070B582B0F6
:1050600065E085684FEA430E032404FA0EF425EA4E
:105070000405CC6804FA0EF42C438460446824EAE6
:1050800002044A68C2F300129A40224342605CE084
:10509000DC08083450F8242003F00705AD004FF079
:1050A0000F0E0EFA05FE22EA0E0E0A69AA4042EA27
:1050B0000E0240F824205CE0042200E0002202FA04
:1050C0000EF22A430234514D45F82420504A946888
:1050D0006FEA0C0224EA0C054E6816F4801F01D01A
:1050E0004CEA04054A4CA560E46802EA04054E68EF
:1050F00016F4001F01D04CEA0405454CE5606468D5
:1051000002EA04054E6816F4003F01D04CEA04059B
:105110003F4C6560246822404D6815F4803F01D003
:105120004CEA04023A4C226001330F2B6BD8012267
:105130009A400C6804EA020C32EA0404F4D14C6888
:1051400004F00304013C012C8BD94A6802F00302ED
:10515000032A09D0C4685D000322AA4024EA02049D
:105160008A68AA402243C2604A6802F00302022A07
:105170008ED004684FEA430E032202FA0EF224EAAC
:1051800002044A6802F0030202FA0EF222430260AD
:105190004A6812F4403FC7D0002201921D4A546C65
:1051A00044F480445464526C02F480420192019AA7
:1051B0009C08A51C154A52F8255003F0030E4FEA2F
:1051C0008E0E0F2202FA0EF225EA0205124A9042D2
:1051D0003FF474AF02F5806290420ED002F5806217
:1051E00090420CD002F5806290420AD002F58062B3
:1051F00090423FF461AF072261E701225FE702229C
:105200005DE703225BE702B070BD704700380140E4
:10521000003C014000380240000002400AB18161B8
:105220007047090481617047436901EA030221EA7A
:10523000030141EA02418161704703685A6912F42F
:10524000806F01D1002070476FF480625A610023A3
:105250000363202280F83D2080F83E30026C42F04B
:105260000402026480F83C30012070472DE9F041CF
:1052700006460C46174698463BE0FFF77DFE069B28
:10528000C01A404502D8B8F1000F32D1012D18D014
:1052900033689B6924EA03039BB2B3FA83F35B0987
:1052A0009F4226D100233363202286F83D2086F8D2
:1052B0003E30326C42F02002326486F83C300120ED
:1052C00027E033685B6924EA03039BB2B3FA83F3F4
:1052D0005B09E5E733685B6924EA030C1FFA8CFC81
:1052E000BCFA8CFC4FEA5C1C674511D1B8F1FF3F5A
:1052F000C3D1C4F30745012DECD033689B6924EA80
:10530000030C1FFA8CFCBCFA8CFC4FEA5C1CEBE72C
:105310000020BDE8F0812DE9F84305460E46904691
:10532000994653E01A6842F400721A602B686FF4D1
:1053300080625A6100232B63202285F83D2085F886
:105340003E302A6C42F004022A6485F83C30012089
:105350004AE0FFF711FEA0EB0900404502D8B8F182
:10536000000F33D1012F17D02B689B6926EA030366
:105370009BB2003B18BF012343B300232B632022C1
:1053800085F83D2085F83E302A6C42F020022A64E0
:1053900085F83C30012027E02B685B6926EA03038F
:1053A0009BB2003B18BF0123E6E72B689C6926EA05
:1053B0000404A4B2003C18BF0124A4B12B685A69AC
:1053C00012F4806FAED1B8F1FF3FC2D1C6F30747E8
:1053D000012FEAD12B685C6926EA0404A4B2003CE0
:1053E00018BF0124E9E70020BDE8F88370B5044642
:1053F0000D46164623685B6913F0800F21D12046C5
:10540000FFF71BFFF8B9B5F1FF3FF3D0FFF7B4FD8D
:10541000801BA84201D8002DECD123685B6913F0F2
:10542000800FE7D100232363202284F83D2084F8F5
:105430003E30226C42F02002226484F83C3001208D
:1054400000E0002070BD0120FCE700002DE9F043E2
:1054500085B004460D4691461F46DDF830800D9E0E
:105460000368196841F48071196000964346002270
:105470004FF00111FFF7FAFE60B9236805F0FE0551
:105480001D613346424626492046FFF744FF68B176
:10549000012008E023681B6813F4807F02D04FF4DA
:1054A00000732364032005B0BDE8F0830023039359
:1054B00023685A6903929B690393039B32464146D2
:1054C0002046FFF793FF30B9012F0FD123685FFA11
:1054D00089F61E61E7E7236C042B01D00120E2E787
:1054E0002268136843F400731360F7E723684FEAF8
:1054F00019221A61324641462046FFF777FF20B94C
:1055000023685FFA89F61E61CDE7236C042B01D076
:105510000120C8E72268136843F400731360F7E7BB
:10552000020001002DE9F04784B004460D461646FE
:1055300099460C9FDDF834800268136843F4806359
:1055400013600368196841F480711960CDF8008018
:105550003B4600224FF00111FFF788FE70B95FFA59
:1055600085FA236805F0FE051D6143463A46414928
:105570002046FFF7D0FE68B1012008E023681B68D1
:1055800013F4807F02D04FF400732364032004B02F
:10559000BDE8F0870023039323685A6903929B694F
:1055A0000393039B424639462046FFF71FFF80B90D
:1055B000B9F1010F18D12368F6B21E61424639468F
:1055C0002046FFF713FF68B3236C042B24D001207F
:1055D000DDE7236C042B01D00120D8E72268136893
:1055E00043F400731360F7E72368320A1A614246F6
:1055F00039462046FFF7FAFE18B92368F6B21E6155
:10560000DCE7236C042B01D00120C0E7226813687B
:1056100043F400731360F7E72268136843F40073E0
:105620001360D4E72268136843F480731360CDF8E5
:1056300000803B4600224FF001112046FFF716FE86
:1056400068B922684AF00103136143463A460949A2
:105650002046FFF760FE002899D0012097E72368D5
:105660001B6813F4807F02D04FF40073236403207F
:105670008DE700BF0200010070B504460D461646D6
:1056800023685B6913F0040F21D12046FFF7D5FD95
:10569000F8B9B5F1FF3FF3D0FFF76EFC801BA842CD
:1056A00001D8002DECD123685B6913F0040FE7D11A
:1056B00000232363202284F83D2084F83E30226CAE
:1056C00042F02002226484F83C30012000E00020F7
:1056D00070BD0120FCE770B504460D46164614E087
:1056E0006FF010025A6100232363202284F83D20CA
:1056F00084F83E30226C226484F83C30012025E09E
:1057000023685B6913F0400F10D02368586910F0CC
:10571000400F1AD1586910F0100FE1D1FFF72CFC9F
:10572000801BA842ECD8002DEFD1E9E700232363CA
:10573000202284F83D2084F83E30226C42F0200282
:10574000226484F83C30012000E0002070BD00009D
:10575000002800F0CC8070B5044690F83D30002B56
:1057600077D0242384F83D302268136823F00103A6
:1057700013602268136843F40043136022681368BF
:1057800023F40043136000F0F3FD62685A4B9A4221
:1057900064D85A4B98428CBF00230123002B40F061
:1057A000A8805749A1FB00318B0C25686A6822F05C
:1057B0003F0242EA91426A6021680A6A22F03F028F
:1057C00066684D4DAE424FD8013313430B622168DA
:1057D000CA6922F44F4222F0FF026568464B9D429F
:1057E0004CD8431E6D00B3FBF5F3013340F6FC705B
:1057F000034278D0C3F30B031A43CA6121680B68D4
:1058000023F0C003E269206A024313430B6021685E
:105810008B6823F4034323F0FF032269E06802430B
:1058200013438B602168CB6823F0FF036269A06992
:1058300002431343CB602268136843F001031360F3
:1058400000202064202384F83D30206384F83E004B
:1058500070BD80F83C30FEF7ADFE82E7294B9842E0
:105860008CBF0023012399E74FF4967505FB03F3E2
:10587000254DA5FB03539B090133A6E7A668BEB9D6
:10588000431E05EB450CB3FBFCF30133C3F30B03E1
:10589000B3FA83F35B0943BBC6B9431E05EB450569
:1058A000B3FBF5F30133C3F30B0343F40043A3E766
:1058B000431E05EB850C0CEB8C0CB3FBFCF30133A6
:1058C000C3F30B03B3FA83F35B09E4E7431E05EB71
:1058D000850505EB8505B3FBF5F30133C3F30B0336
:1058E00043F4404388E7042386E7012384E701204B
:1058F00070470120ACE700BFA08601007F841E0036
:1059000083DE1B43FF083D00D34D62102DE9F043B9
:1059100083B004460F46904699460C9EFFF72CFB39
:1059200094F83D20202A03D0022003B0BDE8F08384
:1059300005460090192301224A492046FFF796FCAC
:10594000002840F0898094F83C30012B00F08680DC
:10595000012384F83C3023681A6812F0010F03D148
:105960001A6842F001021A602268136823F4006387
:105970001360212384F83D30402384F83E30002317
:1059800023640A9B6362BDF82C306385638D238595
:10599000354BE362019500964B4642463946204618
:1059A000FFF754FD00285BD1238D002B35D02A460C
:1059B00031462046FFF71AFD20BB626A2368127841
:1059C0001A61626A531C6362218D013989B2218593
:1059D000638D9BB2013B9BB263852368586910F0CD
:1059E000040FE1D00029DFD052781A61636A0133D5
:1059F0006362238D013B2385638D9BB2013B9BB288
:105A00006385D1E7236C042B01D001208DE7226848
:105A1000136843F400731360F7E72A4631462046C3
:105A2000FFF72AFE50B1236C042B01D001207CE744
:105A30002268136843F400731360F7E72268136861
:105A400043F400731360202384F83D30002384F86E
:105A50003E3084F83C3068E7022066E7022064E7C5
:105A6000012062E7020010000000FFFF2DE9F04373
:105A700087B004460F4690469946109EFFF77CFA81
:105A800094F83D20202A04D00227384607B0BDE80C
:105A9000F083054600901923012289492046FFF72B
:105AA000E5FB002840F04E8194F83C30012B00F0DB
:105AB0004B81012384F83C3023681A6812F0010FEF
:105AC00003D11A6842F001021A602268136823F4B5
:105AD00000631360222384F83D30402384F83E3075
:105AE000002323640E9B6362BDF83C306385638DA5
:105AF0002385744BE362019500964B464246394636
