:020000040800F2
:10000000000002202D2000080D1A0008111A000817
:10001000151A0008191A00081D1A0008000000002F
:10002000000000000000000000000000213C00086B
:10003000211A000800000000B13C0008AD3900089A
:100040007D2000087D2000087D2000087D2000081C
:100050007D2000087D2000087D2000087D2000080C
:100060007D2000087D2000087D2000087D200008FC
:100070007D2000087D2000087D2000087D200008EC
:100080007D2000087D2000087D2000080000000081
:100090000000000000000000000000007D200008BB
:1000A0007D2000087D2000087D2000087D200008BC
:1000B0007D2000087D2000087D2000087D200008AC
:1000C0007D2000087D2000087D2000087D2000089C
:1000D0007D2000087D2000087D2000080000000031
:1000E0007D2000087D2000087D2000080000000021
:1000F0000000000000000000000000007D2000085B
:10010000000000007D200008251A00087D2000085E
:1001100000000000000000000000000000000000DF
:100120007D2000087D2000087D2000087D2000083B
:100130007D2000080000000000000000000000001A
:100140000000000000000000000000007D2000080A
:100150007D2000087D2000087D2000087D2000080B
:100160007D2000087D200008000000000000000045
:10017000000000000000000000000000000000007F
:10018000000000007D2000080000000000000000CA
:080190007D2000087D2000081D
:1001C00081F0004102E000BF83F0004330B54FEA08
:1001D00041044FEA430594EA050F08BF90EA020F75
:1001E0001FBF54EA000C55EA020C7FEA645C7FEA08
:1001F000655C00F0E2804FEA5454D4EB5555B8BF2B
:100200006D420CDD2C4480EA020281EA030382EA9B
:10021000000083EA010180EA020281EA0303362D2D
:1002200088BF30BD11F0004F4FEA01314FF4801C00
:100230004CEA113102D0404261EB410113F0004F12
:100240004FEA03334CEA133302D0524263EB4303C9
:1002500094EA050F00F0A780A4F10104D5F1200E67
:100260000DDB02FA0EFC22FA05F2801841F10001C2
:1002700003FA0EF2801843FA05F359410EE0A5F196
:1002800020050EF1200E012A03FA0EFC28BF4CF0C7
:10029000020C43FA05F3C01851EBE37101F000457D
:1002A00007D54FF0000EDCF1000C7EEB00006EEB8A
:1002B0000101B1F5801F1BD3B1F5001F0CD3490814
:1002C0005FEA30004FEA3C0C04F101044FEA44526B
:1002D00012F5800F80F09A80BCF1004F08BF5FEAF2
:1002E000500C50F1000041EB045141EA050130BDD2
:1002F0005FEA4C0C404141EB0101013C28BFB1F5E4
:10030000801FE9D291F0000F04BF01460020B1FA2E
:1003100081F308BF2033A3F10B03B3F120020CDA01
:100320000C3208DD02F1140CC2F10C0201FA0CF0DF
:1003300021FA02F10CE002F11402D8BFC2F1200C44
:1003400001FA02F120FA0CFCDCBF41EA0C019040FA
:10035000E41AA2BF01EB0451294330BD6FEA040443
:100360001F3C1CDA0C340EDC04F11404C4F120022E
:1003700020FA04F001FA02F340EA030021FA04F340
:1003800045EA030130BDC4F10C04C4F1200220FA97
:1003900002F001FA04F340EA0300294630BD21FAD5
:1003A00004F0294630BD94F0000F83F4801306BF9B
:1003B00081F480110134013D4EE77FEA645C18BF8F
:1003C0007FEA655C29D094EA050F08BF90EA020F26
:1003D00005D054EA000C04BF1946104630BD91EA1E
:1003E000030F1EBF0021002030BD5FEA545C05D121
:1003F0004000494128BF41F0004130BD14F5800460
:100400003CBF01F5801130BD01F0004545F0FE41D3
:1004100041F470014FF0000030BD7FEA645C1ABF08
:10042000194610467FEA655C1CBF0B46024650EA3F
:10043000013406BF52EA033591EA030F41F400216B
:1004400030BD00BF90F0000F04BF0021704730B5F1
:100450004FF4806404F132044FF000054FF00001C6
:1004600050E700BF90F0000F04BF0021704730B587
:100470004FF4806404F1320410F0004548BF40425C
:100480004FF000013EE700BF42004FEAE2014FEAB1
:1004900031014FEA02701FBF12F07F4393F07F4F8C
:1004A00081F06051704732F07F4208BF704793F08F
:1004B0007F4F04BF41F40021704730B54FF46074A2
:1004C00001F0004521F000411CE700BF50EA0102A5
:1004D00008BF704730B54FF000050AE050EA01024E
:1004E00008BF704730B511F0004502D5404261EBBE
:1004F00041014FF4806404F132045FEA915C3FF4FF
:10050000D8AE4FF003025FEADC0C18BF03325FEA9B
:10051000DC0C18BF033202EBDC02C2F1200300FA4C
:1005200003FC20FA02F001FA03FE40EA0E0021FA71
:1005300002F11444BDE600BF70B54FF0FF0C4CF45F
:10054000E06C1CEA11541DBF1CEA135594EA0C0F11
:1005500095EA0C0F00F0DEF82C4481EA030621EA4C
:100560004C5123EA4C5350EA013518BF52EA033587
:1005700041F4801143F4801338D0A0FB02CE4FF039
:100580000005E1FB02E506F00042E0FB03E54FF069
:100590000006E1FB03569CF0000F18BF4EF0010E61
:1005A000A4F1FF04B6F5007F64F5407404D25FEA5D
:1005B0004E0E6D4146EB060642EAC62141EA555110
:1005C0004FEAC52040EA5E504FEACE2EB4F1FD0C52
:1005D00088BFBCF5E06F1ED8BEF1004F08BF5FEAD0
:1005E000500E50F1000041EB045170BD06F0004682
:1005F00046EA010140EA020081EA0301B4EB5C042F
:10060000C2BFD4EB0C0541EA045170BD41F4801126
:100610004FF0000E013C00F3AB8014F1360FDEBF4B
:10062000002001F0004170BDC4F10004203C35DA27
:100630000C341BDC04F11404C4F1200500FA05F3AA
:1006400020FA04F001FA05F240EA020001F000424B
:1006500021F0004110EBD37021FA04F642EB0601C1
:100660005EEA430E08BF20EAD37070BDC4F10C04EB
:10067000C4F1200500FA04F320FA05F001FA04F2AF
:1006800040EA020001F0004110EBD37041F100019B
:100690005EEA430E08BF20EAD37070BDC4F12005A6
:1006A00000FA05F24EEA020E20FA04F301FA05F20E
:1006B00043EA020321FA04F001F0004121FA04F2B6
:1006C00020EA020000EBD3705EEA430E08BF20EA86
:1006D000D37070BD94F0000F0FD101F000464000C0
:1006E00041EB010111F4801F08BF013CF7D041EA42
:1006F000060195F0000F18BF704703F00046520046
:1007000043EB030313F4801F08BF013DF7D043EA16
:100710000603704794EA0C0F0CEA135518BF95EACC
:100720000C0F0CD050EA410618BF52EA4306D1D153
:1007300081EA030101F000414FF0000070BD50EA72
:10074000410606BF1046194652EA430619D094EAFC
:100750000C0F02D150EA013613D195EA0C0F05D1E6
:1007600052EA03361CBF104619460AD181EA03013A
:1007700001F0004141F0FE4141F470014FF00000F2
:1007800070BD41F0FE4141F4780170BD70B54FF08D
:10079000FF0C4CF4E06C1CEA11541DBF1CEA13550D
:1007A00094EA0C0F95EA0C0F00F0A7F8A4EB0504EF
:1007B00081EA030E52EA03354FEA013100F08880E6
:1007C0004FEA03334FF0805545EA131343EA1263AF
:1007D0004FEA022245EA111545EA10654FEA002664
:1007E0000EF000419D4208BF964244F1FD0404F51D
:1007F000407402D25B084FEA3202B61A65EB030579
:100800005B084FEA32024FF480104FF4002CB6EB35
:10081000020E75EB030E22BFB61A754640EA0C00B5
:100820005B084FEA3202B6EB020E75EB030E22BFF5
:10083000B61A754640EA5C005B084FEA3202B6EB36
:10084000020E75EB030E22BFB61A754640EA9C00F5
:100850005B084FEA3202B6EB020E75EB030E22BFC5
:10086000B61A754640EADC0055EA060E18D04FEA83
:10087000051545EA16754FEA06164FEAC30343EA23
:1008800052734FEAC2025FEA1C1CC0D111F4801FF0
:100890000BD141EA00014FF000004FF0004CB6E7E9
:1008A00011F4801F04BF01430020B4F1FD0C88BF88
:1008B000BCF5E06F3FF6AFAEB5EB030C04BFB6EB93
:1008C000020C5FEA500C50F1000041EB045170BD86
:1008D0000EF0004E4EEA113114EB5C04C2BFD4EBB3
:1008E0000C0541EA045170BD41F480114FF0000E37
:1008F000013C90E645EA060E8DE60CEA135594EAB3
:100900000C0F08BF95EA0C0F3FF43BAF94EA0C0FB5
:100910000AD150EA01347FF434AF95EA0C0F7FF42A
:1009200025AF104619462CE795EA0C0F06D152EA7E
:1009300003353FF4FDAE1046194622E750EA410662
:1009400018BF52EA43067FF4C5AE50EA41047FF473
:100950000DAF52EA43057FF4EBAE12E74FF0FF3CD8
:1009600006E000BF4FF0010C02E000BF4FF0010CA9
:100970004DF804CD4FEA410C7FEA6C5C4FEA430C22
:1009800018BF7FEA6C5C1BD001B050EA410C0CBF71
:1009900052EA430C91EA030F02BF90EA020F0020D3
:1009A000704710F1000F91EA030F58BF994208BF3A
:1009B00090422CBFD8176FEAE37040F001007047F7
:1009C0004FEA410C7FEA6C5C02D150EA013C07D14E
:1009D0004FEA430C7FEA6C5CD6D152EA033CD3D099
:1009E0005DF8040B704700BF8446104662468C4693
:1009F0001946634600E000BF01B5FFF7B7FF0028C6
:100A000048BF10F1000F01BD4DF808EDFFF7F4FFEE
:100A10000CBF012000205DF808FB00BF4DF808ED79
:100A2000FFF7EAFF34BF012000205DF808FB00BF9C
:100A30004DF808EDFFF7E0FF94BF012000205DF8BE
:100A400008FB00BF4DF808EDFFF7CEFF94BF012073
:100A500000205DF808FB00BF4DF808EDFFF7C4FF6C
:100A600034BF012000205DF808FB00BF4FEA4102BF
:100A700012F5001215D211D56FF47873B3EB6252F0
:100A800012D94FEAC12343F0004343EA505311F017
:100A9000004F23FA02F018BF404270474FF00000A9
:100AA000704750EA013005D111F0004008BF6FF0E7
:100AB000004070474FF00000704700BF53B94AB97B
:100AC000002908BF00281CBF4FF0FF314FF0FF3056
:100AD00000F0E2B8ADF1080C6DE904CE0DF02AF893
:100AE000DDF804E0DDE9022304B0704700F13401D1
:100AF00091E838009C46A6464CF8045D90E8FF0F4C
:100B0000E54600BD90EC210B704700BF80EC210B47
:100B1000704700BF90EC200B704700BF80EC200BAB
:100B2000704700BFD0EC200B704700BFC0EC200B1B
:100B3000704700BFF0EC0201F0EC0211F0EC022172
:100B4000F0EC0231F0EC0241F0EC0251F0EC026109
:100B5000F0EC0271F0EC0281F0EC0291F0EC02A1F9
:100B6000F0EC02B1F0EC02C1F0EC02D1F0EC02E1E9
:100B7000F0EC02F1704700BFE0EC0201E0EC021182
:100B8000E0EC0221E0EC0231E0EC0241E0EC025149
:100B9000E0EC0261E0EC0271E0EC0281E0EC029139
:100BA000E0EC02A1E0EC02B1E0EC02C1E0EC02D129
:100BB000E0EC02E1E0EC02F1704700BFB0FC018123
:100BC000B0FC0191B0FC01A1B0FC01B1704700BFC5
:100BD000A0FC0181A0FC0191A0FC01A1A0FC01B13D
:100BE000704700BFEC4600B52DE900502DE9FF1F0E
:100BF0004FF000032DE90C0001A90DF075FADDF8A6
:100C000040E012B0704700BFEC4600B52DE900503F
:100C10002DE9FF1F4FF000032DE90C0001A90DF095
:100C2000A1FADDF840E012B0704700BFEC4600B515
:100C30002DE900502DE9FF1F4FF000032DE90C00B6
:100C400001A90DF0B1FADDF840E012B0704700BF25
:100C5000EC4600B52DE900502DE9FF1F4FF00003D1
:100C60002DE90C0001AB0DF075FADDF840E012B093
:100C7000704700BFEC4600B52DE900502DE9FF1F7D
:100C80004FF000032DE90C0001AA0DF0F1FADDF898
:100C900040E012B0704700BF704700BF0000000086
:100CA00002780B78012A28BF9A4240F0D8806DE97B
:100CB000044540EA0104CDE902676FF0000C4FEAF9
:100CC00044721AB380EA010414F0070F6BD100F0EC
:100CD000070420F0070004F0030521F007014FEAA4
:100CE000C505F0E8042314F0040FF1E804670CFADA
:100CF00005F462EA040266EA04060BD063EA040320
:100D0000624667EA0407664604E000BFF0E8042391
:100D1000F1E8046782FA4CF582EA0604A4FA8CF43E
:100D20006CBB83FA4CF583EA0705A5FA8CF595B9F7
:100D300050E9022351E9026782FA4CF582EA06047F
:100D4000A4FA8CF483FA4CF583EA0705A5FA8CF52E
:100D50002543DBD09CB92DBAB5FA85F424F00704FD
:100D600027FA04F1DDE9026723FA04F303F0FF0038
:100D700001F0FF01FDE80445A0EB0100704724BA33
:100D8000B4FA84F424F0070426FA04F1DDE90267DA
:100D900022FA04F202F0FF0001F0FF01FDE8044531
:100DA000A0EB0100704714F0030F3CD110F00304D6
:100DB00028D150F8082B51F8083B82FA4CF582EA0A
:100DC0000305A5FA8CF55DB950F8042C51F8043CE4
:100DD00082FA4CF582EA0305A5FA8CF5002DE8D0DD
:100DE0002DBAB5FA85F424F0070423FA04F122FAA7
:100DF00004F202F0FF0001F0FF01FDE80445A0EB62
:100E0000010070474FEAC40420F0030050F8082B9B
:100E100021F0030151F8083B0CFA04F462EA0402E1
:100E200063EA0403C9E710F003041DD0A1EB040139
:100E300020F00300E40750F8042B06D012D28B7880
:100E40005FFAA2F4E41A06D12BB1CB785FFAB2F4C0
:100E5000E41A00D133B920465DF8104B7047A2EB7D
:100E60000300704701F1040150F8042BCC0721F076
:100E7000030151F8043B48D824D222F07F4482FA7F
:100E80004CF594EA1325A5FA8CF50AD165B951F809
:100E9000043B84EA0204B4EB036F0ED150F8042B38
:100EA000EBE74FEA132355E035F07F454DD1087845
:100EB000FDE80445C0F1000070474FEA126203F0FC
:100EC000FF0347E002EA1C4482FA4CF594EA13451A
:100ED000A5FA8CF50AD165B951F8043B84EA0204FD
:100EE000B4EB034F0CD150F8042BEBE74FEA13435C
:100EF00030E015EA1C4528D10B884FEA124229E060
:100F00004FEA124203EA1C4324E002F0FF0482FA93
:100F10004CF594EA1365A5FA8CF50AD165B951F838
:100F2000043B84EA0204B4EB032F09D150F8042BEC
:100F3000EBE74FEA13630DE015F0FF0F05D10B68E7
:100F40004FEA122223F07F4304E04FF00000FDE857
:100F50000445704712BA1BBA82FA4CF482EA0304C1
:100F6000A4FA8CF5B5FA85F402FA04F203FA04F354
:100F70004FEA1260FDE80445A0EB1360704700BF24
:100F800001F0FF01102A2BDB10F0070F08D010F83A
:100F9000013B013A8B422DD010F0070F42B3F6D13E
:100FA000F0B441EA012141EA014122F007047FF057
:100FB00000070023F0E80256083C85EA010586EAAE
:100FC000010685FA47F5A3FA87F586FA47F6A5FAEA
:100FD00087F68EB9EED1F0BC01F0FF0102F00702F6
:100FE00032B110F8013B013A83EA010313B1F8D1A1
:100FF0000020704701387047002D06BF3546033882
:10100000073815F0010F07D1013015F4807F02BFBA
:10101000013015F4C03F0130F0BC0138704700BF0B
:10102000844641EA000313F003036DD1403A41D3F3
:1010300051F8043B40F8043B51F8043B40F8043BB2
:1010400051F8043B40F8043B51F8043B40F8043BA2
:1010500051F8043B40F8043B51F8043B40F8043B92
:1010600051F8043B40F8043B51F8043B40F8043B82
:1010700051F8043B40F8043B51F8043B40F8043B72
:1010800051F8043B40F8043B51F8043B40F8043B62
:1010900051F8043B40F8043B51F8043B40F8043B52
:1010A00051F8043B40F8043B51F8043B40F8043B42
:1010B000403ABDD2303211D351F8043B40F8043BE2
:1010C00051F8043B40F8043B51F8043B40F8043B22
:1010D00051F8043B40F8043B103AEDD20C3205D3F2
:1010E00051F8043B40F8043B043AF9D2043208D0EA
:1010F000D2071CBF11F8013B00F8013B01D30B885C
:1011000003806046704700BF082A13D38B078DD039
:1011100010F003038AD0C3F10403D21ADB071CBF0B
:1011200011F8013B00F8013B80D331F8023B20F875
:10113000023B7BE7043AD9D3013A11F8013B00F8AE
:10114000013BF9D20B7803704B7843708B78837036
:101150006046704700000000000000000000000032
:10116000000000000000000000000000000000007F
:10117000000000000000000000000000000000006F
:1011800030B490F800F020F007016FF0000C10F080
:10119000070491F820F040F048804FF000046FF011
:1011A0000700D1E9002391F840F000F1080082FA2D
:1011B0004CF2A4FA8CF283FA4CF3A2FA8CF34BBBF8
:1011C000D1E9022382FA4CF200F10800A4FA8CF271
:1011D00083FA4CF3A2FA8CF3E3B9D1E9042382FA3F
:1011E0004CF200F10800A4FA8CF283FA4CF3A2FA54
:1011F0008CF37BB9D1E9062301F1200182FA4CF28C
:1012000000F10800A4FA8CF283FA4CF3A2FA8CF3F2
:10121000002BC6D0002A04BF04301A4612BAB2FA14
:1012200082F200EBD20030BC7047D1E9002304F019
:101230000305C4F100004FEAC50514F0040F91F84E
:1012400040F00CFA05F562EA05021CBF63EA0503EB
:1012500062464FF00004AAE74FEA410C7FEA6C5C5B
:1012600002D150EA013C0AD14FEA430C7FEA6C5CA0
:1012700002D152EA033C02D14FF0000070474FF018
:10128000010070470348044B834202D0034B03B173
:1012900018477047F0060020F0060020000000000C
:1012A0000548064B1B1AD90F01EBA301491002D0C8
:1012B000034B03B118477047F0060020F0060020EA
:1012C0000000000010B5064C237843B9FFF7DAFFA1
:1012D000044B13B10448AFF300800123237010BD09
:1012E000F006002000000000FC60010808B5054B76
:1012F0001BB105490548AFF30080BDE80840FFF782
:10130000CFBF00BF00000000F4060020FC60010811
:1013100084B030B50DF1100C8CE80E000446864602
:10132000BCE80F00AEE80F00BCE80F00AEE80F000D
:101330009CE8070040F201158EE80700A5852046CD
:10134000BDE8304004B0704738B50546D0E900012B
:1013500001F036FEA9680446286801F031FE2043FA
:10136000C0B2B0FA80F0400938BD00BFCB0748BF1B
:1013700080F82C208B0748BF80F82D20704700BFD5
:1013800038B504460D46002DC068218A94F82C20FB
:101390001BDB01F0B9F894F82C20218B606982F0F6
:1013A000010201F0B1F8D4E9001285EAE573A3EB7C
:1013B000E57309689BB20AB94B6338BD042A0FD0A4
:1013C000082A0CBFCB630B6438BD82F0010201F028
:1013D0009BF894F82C20218B606901F095F8E2E7E6
:1013E0008B6338BD38B504460D46002DC069218C8D
:1013F00094F82D201BDB01F087F894F82D20218D27
:10140000606A82F0010201F07FF82168A268096831
:1014100085EAE573A3EBE5739BB20AB94B6338BD6C
:10142000042A0FD0082A0CBFCB630B6438BD82F0AE
:10143000010201F069F894F82D20218D606A01F015
:1014400063F8E2E78B6338BD10B50446D0E90001CC
:1014500001F012FEA168206801F00EFE204610BDCA
:1014600008B5C82003F03AFE044800F0BDFD04486A
:101470004FF4005101F04CF8F3E700BF446101085C
:101480000008024030B5224C0FCC95B009ADAC46F7
:10149000ACE80F000FCCACE80F0094E807008CE834
:1014A0000700302004F0DCFE0DF1300E0446BEE8EB
:1014B0000F00EC46ACE80F009EE80F008CE80F0030
:1014C000204695E80E00FFF723FF2046FFF73CFF7C
:1014D000002202212046FFF749FF4FF4FA7120460F
:1014E000FFF74EFF4FF4FA712046FFF77BFF4FF4F2
:1014F0007A7003F0F3FDFAE706E02046FFF7A4FF59
:101500003021204604F096FA04F096FAF8E700BF7E
:101510001861010870B584B0002502AB1C26CDE926
:1015200000630E490E482B468022CDE9025503F098
:101530001FFD03AB0B4901934FF47A722B4604460F
:101540000096094803F014FD0443012C0CBF074822
:10155000074800F049FD04B070BD00BF4C610108B0
:1015600061140008586101088514000868610108C9
:101570007461010808B5FFF7CDFF4FF47A7003F0EE
:10158000ADFD044B186803F023FD4FF4967003F093
:10159000A5FDFAE70C070020704700BF08B5044A14
:1015A0000448002102F03CFA034B186008BD00BF5C
:1015B000586D0108751500080C07002030B500248F
:1015C0008BB0CDE90444CDE906443B4B009408942C
:1015D0001A6B3A4842F004021A631A6B02F00402D2
:1015E0000092009A01941A6B42F080021A631A6BFF
:1015F00002F080020192019A02941A6B42F00102F9
:101600001A631A6B02F001020292029A03941A6B97
:1016100042F002021A631B6B03F00203039322469B
:101620004FF40051039B00F06FFF2246244849F21B
:10163000100100F069FF2246224840F20B4100F001
:1016400063FF00244FF400520123002504A91B4826
:10165000CDE90423CDE9064500F09AFD04A9102246
:1016600001231748CDE90645CDE90423002400F005
:101670008FFD02250322012304A91248CDE904238A
:10168000CDE9064500F084FD04A94FF481621123E1
:101690000C48CDE90423CDE9064500F079FD4FF46F
:1016A00010420123064804A9CDE90645CDE90423EB
:1016B00000F06EFD0BB030BD003802400008024063
:1016C000000002400004024010B50C480C4C0D49CB
:1016D0000023C4E900014FF480422046C4E90233EC
:1016E000C4E90423C4E90633236200F01BFF00B9F8
:1016F00010BDBDE8104000F0B5B800BF0054004078
:1017000010070020A086010030B5184B026889B090
:1017100000249A42CDE90244CDE90444069401D064
:1017200009B030BD124D00942B6B43F002032B63C4
:101730002B6B03F002030093C0221223CDE9022396
:1017400000980C480322042302A9CDE9052300F0E8
:101750001FFD01942B6C43F400132B642B6C03F4DA
:1017600000130193019B09B030BD00BF005400403D
:10177000003802400004024010B5002394B0CDE9C7
:101780000B33CDE90933CDE90333CDE905332049E6
:1017900001930D930793086C1E4A40F08050086433
:1017A000096C01F08051019101990293116841F493
:1017B0004041116012680F9302F44042102301214E
:1017C0000292CDE90B1308226423CDE9102302987D
:1017D00002240222042308A808940E94CDE91223BF
:1017E00000F06AFF08B172B6FEE70F210346CDE9AB
:1017F00003144FF4805203A80321CDE90532079367
:1018000001F074F908B172B6FEE714B010BD00BF64
:10181000003802400070004008B500F031FCFFF7CE
:10182000ABFFFFF7CBFE00F087FBFFF74DFF00F0AB
:101830001BF800F063F900F093F900F0B1FA00F042
:101840001FFB02F0C1F8FFF7A9FE02F0CFF8FEE798
:10185000034B02689A4200D0704700F02BBC00BFD7
:10186000000C004072B6FEE710B50E480E4C4FF467
:1018700082720023C4E900024FF400710A2220465C
:10188000C4E90233C4E90433C4E90613C4E90833E4
:10189000C4E90A3201F00AFA00B910BDBDE81040EF
:1018A000FFF7E0BF003001406807002000000000A3
:1018B00010B51B4A016888B000239142CDE902337C
:1018C000CDE90433069301D008B010BD02F584328F
:1018D0000093506C40F480505064506C00F4805081
:1018E000009000980193136B0E4843F001031363BB
:1018F000136B9FED097B03F0010301930322052382
:1019000002A98DED027BCDE90523019C00F040FC8E
:1019100008B010BDAFF30080E0000000020000003E
:10192000003001400000024082B00E4B00220092C5
:10193000596C41F480415964586C00F48040009027
:1019400000980192186C40F0805018641B6C03F0F2
:1019500080530193019B0F216FF0010002B000F052
:10196000CDBB00BF0038024030B589B0224B002209
:1019700002921A6C42F008021A641B6C03F008030E
:101980000293054601A903A8029B01F06DF9069B8D
:10199000CBB901F049F90346184A19481949A2FB85
:1019A00003239B0C013B0022C0E9001340F2E73304
:1019B000026182608261C36001F0DAF9044630B1ED
:1019C000204609B030BD01F02FF94300E4E70C4890
:1019D00001F048FA04460028F2D1322000F0CAFB98
:1019E0000F2D01D90124EBE722462946322000F0D1
:1019F00085FB054B1D60E3E70038024083DE1B4397
:101A0000C0070020000C00400C000020FEE700BFD3
:101A1000FEE700BFFEE700BFFEE700BFFEE700BF36
:101A2000704700BF014801F0B9BD00BFC0070020EA
:101A30000120704708B50EF043FE162303604FF0F7
:101A4000FF3008BD08B50EF03BFE16230360FEE72D
:101A500070B5161E07DD0C468D19AFF3008004F833
:101A6000010BA542F9D1304670BD00BF70B5161EFE
:101A700007DD0C468D1914F8010BAFF30080A54269
:101A8000F9D1304670BD00BF4FF0FF30704700BF46
:101A90004FF400534B600020704700BF0120704797
:101AA000002070470C490D4A0B6810B50C4C121BF6
:101AB0002BB11844904207D80860184610BD094B56
:101AC0000B6018449042F7D90EF0FAFD0C23036026
:101AD0004FF0FF33184610BD0C0800200000022014
:101AE0000004000098580020034AD2F8883043F4DC
:101AF0007003C2F88830704700ED00E010B58CB07C
:101B0000164C2022002104A80EF008FC4FF0804063
:101B10004FF0FF31002301222060E160204603A93D
:101B2000C4E9013300932361A361019303920592F9
:101B3000099201F0EDFA50B90022002307486946E6
:101B4000CDE9002301F0C6FD20B90CB010BDFFF7B0
:101B500089FEF1E7FFF786FE0CB010BDE808002013
:101B600010B58CB0164C2022002104A80EF0D6FB34
:101B7000144820604FF6FF7100230122E1602046E7
:101B800003A9C4E9013300932361A3610193039284
:101B90000592099201F0BCFA50B9002200230848CE
:101BA0006946CDE9002301F095FD20B90CB010BDC8
:101BB000FFF758FEF1E7FFF755FE0CB010BD00BF70
:101BC000A00800200004004000B502688BB000238C
:101BD000B2F1804FCDE90433CDE90633089305D047
:101BE00029498A4225D00BB05DF804FB02F50E327C
:101BF0000093106C40F001001064106C00F00100C4
:101C0000009000980193136B204843F00103136385
:101C1000136B9FED197B03F00103019304A90123CA
:101C20008DED047B019A089300F0B2FA0BB05DF8D9
:101C300004FB174A0293106C40F002001064106C11
:101C400000F00200029002980393136B114843F0D6
:101C500002031363136B9FED0A7B03F002030393EC
:101C600004A902238DED047B039A089300F090FAF7
:101C70000BB05DF804FB00BF030000000200000091
:101C8000300000000200000000040040000002409C
:101C90000038024000040240124A0368934282B0B6
:101CA00012D0114A934201D002B070470F4B00226C
:101CB00001925A6C42F480325A645B6C03F48033B4
:101CC0000193019B02B07047084B002200921A6CEE
:101CD00042F004021A641B6C03F004030093009B9F
:101CE00002B0704700080040004001400038024048
:101CF00000B50268244989B000238A42CDE9023345
:101D0000CDE90433069305D020498A421AD009B0A0
:101D10005DF804FB1E4A0093136B1E4843F0020358
:101D20001363136B9FED147B03F00203009302A96E
:101D300002238DED027B009A069300F029FA09B088
:101D40005DF804FB124A0193136B134843F001033F
:101D50001363136B9FED0A7B03F00103019302A948
:101D600003238DED027B019A069300F011FA09B06E
:101D70005DF804FBAFF300800003000002000000E8
:101D80000C0000000200000000080040004001407C
:101D90000038024000040240000002400000000041
:101DA00000B5354A35498FB00023CDE90233CDE97E
:101DB0000433CDE90033CDE90633CDE90833CDE96D
:101DC0000A330C939360136193610923C2E90013F2
:101DD000104640F2E733D36000F0CAFF70BB4FF407
:101DE00080532548029302A901F026FB002839D12F
:101DF000214801F06BF890BB002200231E48694681
:101E0000CDE9002301F066FC30BB9FED197B002378
:101E100019480893082206A98DED067B0A9301F064
:101E200019FAB0B914480C2206A901F013FA40B906
:101E30001148FFF75DFF0FB05DF804FBFFF712FDDF
:101E4000CDE7FFF70FFD0C48FFF752FF0FB05DF82D
:101E500004FBFFF707FDE5E7FFF704FDD5E7FFF714
:101E600001FDC9E7FFF7FEFCC2E700BFAFF300804A
:101E7000600000000000000058080020000800403A
:101E800000B52B492B4A8DB000230A6008464FF657
:101E9000FF72CDE90033CDE90233CDE90433CDE95A
:101EA0000633CDE90833C1E901330A93CA600B61F7
:101EB0008B6100F05DFF18BB4FF480531C4800930A
:101EC000694601F0B9FA60BB194800F0FFFF28BB72
:101ED0009FED157B00221648069204A98DED047B28
:101EE000089201F0B7F9B0B91148042204A901F031
:101EF000B1F940B90E48FFF7FBFE0DB05DF804FBE9
:101F0000FFF7B0FCD8E7FFF7ADFC0948FFF7F0FE9C
:101F10000DB05DF804FBFFF7A5FCE5E7FFF7A2FCB9
:101F2000D6E7FFF79FFCCFE760000000000000004D
:101F3000100800200040014010B50B480B4C4FF436
:101F4000E1310023C4E900010C222046C4E9023338
:101F5000C4E90432C4E9063301F0F8FB00B910BD4E
:101F6000BDE81040FFF77EBC0010014030090020A2
:101F700010B51B4A016888B000239142CDE90233B5
:101F8000CDE90433069301D008B010BD02F59432B8
:101F90000093506C40F010005064506C00F0100042
:101FA000009000980193136B0E4843F001031363F4
:101FB000136B9FED097B03F00103019303220723B9
:101FC00002A98DED027BCDE90523019C00F0E0F82C
:101FD00008B010BDAFF30080000600000200000052
:101FE00000100140000002400FB400B5ADF20C4DEE
:101FF0000DF582634FF4806153F8042B019302A81E
:102000000DF0D2FF02A8FFF7BBF802464FF0FF33F6
:1020100092B202A9044801F02BFC0DF20C4D5DF8C0
:1020200004EB04B0704700BF30090020DFF834D063
:10203000FFF75AFD0C480D490D4A002302E0D45821
:10204000C4500433C4188C42F9D30A4A0A4C002302
:1020500001E013600432A242FBD30EF037FBFFF71E
:10206000DBFB70470000022000000020F00600208B
:10207000BC7C0108F006002094580020FEE7000018
:1020800008B50B4B1A6842F400721A601A6842F4E1
:1020900080621A601A6842F480721A60032000F0AD
:1020A0001BF80F20FFF760FCFFF73EFC002008BD87
:1020B000003C0240034A044B11681B780B44136038
:1020C000704700BF7809002008000020014B186805
:1020D000704700BF780900200749CA6803024FF61D
:1020E000FF0003F4E0630240134343F0BF6343F493
:1020F0000033CB60704700BF00ED00E01B4BDB6896
:10210000C3F3022300B5C3F1070EBEF1040F03F1C0
:10211000040C28BF4FF0040EBCF1060F1CD9A3F12C
:10212000030C4FF0FF3303FA0CF322EA03024FF0E3
:10213000FF3303FA0EF321EA030303FA0CF313430C
:102140001B010028DBB20ADB00F1604000F56140B2
:1021500080F800335DF804FB00229446E7E7044A68
:1021600000F00F00024413765DF804FB00ED00E080
:10217000FCEC00E0002807DB044A4109012300F0E1
:102180001F00834042F82130704700BF00E100E0AB
:102190002DE9F04FA74A0B68904285B04FF000023E
:1021A0004FF0010B00F0D080DFF898E28A4603E0A0
:1021B0000132102A00F083800BFA02F101EA0306D3
:1021C0009943F5D1DAF8044004F0030C51000325DB
:1021D0000CF1FF378D40012F6FEA050572D9BCF174
:1021E000030F08D0C76807EA0508DAF808708F40BF
:1021F00047EA0807C76007680CFA01F13D40294328
:1022000014F4403F0160D3D08B4D00210391696CE1
:1022100041F480416964696C01F480410391039940
:1022200022F0030101F1804101F59C3102F0030726
:102230008D68BF004FF00F0C0CFA07FC25EA0C0864
:102240007E4DA84279D07E4DA84200F04E81DFF845
:10225000F8C1604500F05081DFF8F0C160450CBF67
:102260004FF0040C4FF0070C0CFA07F748EA07058B
:102270008D60DEF80810F543E70254BF2940314372
:10228000CEF80810DEF80C10A70254BF29403143E5
:10229000CEF80C10DEF80410A70354BF29403143D8
:1022A000CEF80410DEF80010E40302F1010254BF7E
:1022B00029403143102ACEF800107FF47DAF05B0DD
:1022C000BDE8F08F876807EA0508DAF80C708F40E0
:1022D00047EA08078760476827EA0608C4F300173B
:1022E000974047EA08074760C76807EA0508DAF831
:1022F00008708F4047EA0807BCF1020FC7607FF4FF
:102300007AAF4FEAD20900EB890902F00708D9F841
:1023100020700097DAF810704FEA880807FA08F77B
:1023200001970F2707FA08F8009F27EA0808019F7E
:1023300047EA0807C9F820705DE74FF0010C0CFA76
:1023400007F748EA070593E7DFF8ECA002E001325F
:10235000102AB4D00BFA02F403EA04079C43F6D126
:102360004D685400032606FA04FC05F003096FEAE1
:102370000C0809F1FF3CBCF1010F69D9B9F1030F59
:102380000AD0D0F80CE08E6808EA0E0E06FA04FCBB
:102390004CEA0E0CC0F80CC0D0F800C009FA04F4E6
:1023A0000CEA080C44EA0C0415F4403F0460CED05B
:1023B00000240394DAF8444044F48044CAF84440CA
:1023C000DAF8444004F480440394039C22F00304AC
:1023D00004F1804404F59C3402F0030CD4F808E0C6
:1023E0000F264FEA8C0C06FA0CFC2EEA0C0CC4F8F3
:1023F00008C0144CEE02A4686FEA070C73D40CEA10
:102400000404104EB460F468AE026AD40CEA04040A
:102410000C4EF4607468AE0361D40CEA0404094EF7
:10242000ED037460346858D40CEA0404054D2C6044
:102430008DE700BF00000240003802400004024067
:1024400000080240003C0140000C02400010024025
:10245000D0F808E0CE6808EA0E0E06FA04FC4CEA52
:102460000E0CC0F808C0D0F804E0C5F3001C2EEA3A
:10247000070E0CFA02FC4CEA0E0CC0F804C0D0F8AF
:102480000CE08E6808EA0E0E06FA04FC4CEA0E0C0C
:10249000B9F1020FC0F80CC07FF47EAF4FEAD20C46
:1024A0004FEA8C0C0CF1804C0CF5003C02F0070E4E
:1024B000DCF8206000960E694FEA8E0E06FA0EF6E2
:1024C00001960F2606FA0EFE009E26EA0E0E019ECB
:1024D00046EA0E0ECCF820E05EE73C43A6E73C431C
:1024E0009DE73C4394E73C438BE74FF0020C0CFA2A
:1024F00007F748EA0705BBE64FF0030C0CFA07F7AD
:1025000048EA0705B4E600BF02B9090481617047D3
:10251000436901EA030221EA030141EA02418161C0
:10252000704700BF002800F0BA8070B590F83D30C9
:10253000044603F0FF02002B00F09D802368242254
:1025400084F83D201A6822F001021A601A6842F4E9
:1025500000421A601A6822F400421A6000F064FB1C
:10256000504B65689D4227D84F4B984227D94F4B17
:102570006A00A3FB0035431EB3FBF2F322685168E7
:1025800021F03F0141EA95415160116A4FEA954CB3
:102590000CF1010C21F03F0141EA0C011162D169FB
:1025A00040F6FC70013321F44F41034221F0FF015A
:1025B00071D0C3F30B0334E03D4B984201D80120A6
:1025C00070BD2268394B3B4EA3FB003C431E506854
:1025D00020F03F0040EA9C4050604FEA9C414FF49D
:1025E000967000FB01F1A6FB0161106A890920F0D9
:1025F0003F00013101431162D169A06821F44F41CC
:1026000021F0FF0100283BD005EB850505EB850592
:10261000B3FBF5F30133C3F30B03002B3DD043F4BD
:1026200040430B43D361D4E907301168034321F0E1
:10263000C0010B4313609168D4E9030321F4034103
:10264000034321F0FF010B439360D4E90530D168C7
:10265000034321F0FF010B43D3601168002341F0D5
:10266000010120201160236484F83D00236384F875
:102670003E30184670BD80F83C20FFF745F85DE716
:1026800005EB4505B3FBF5F30133C3F30B0323B1AE
:1026900043F40043C5E70423C3E70123C1E7012056
:1026A000704700BFA08601007F841E0083DE1B43AD
:1026B000FF083D00D34D6210002800F06A812DE92B
:1026C000F0410368DD0782B004462FD59F498A6830
:1026D00002F00C02042A00F0EF808A6802F00C027B
:1026E000082A00F0E5806368B3F5803F00F0EE80D3
:1026F000B3F5A02F00F07981944D2A6822F480323E
:102700002A602A6822F480222A60002B40F0E380AD
:10271000FFF7DCFC064605E0FFF7D8FC801B6428C9
:1027200000F203812B689F03F6D423689D0728D508
:10273000864A916811F00C0F00F09280916801F0C8
:102740000C01082900F08880E368002B00F010815C
:102750007F4B7E4E01221A60FFF7B8FC054605E06C
:10276000FFF7B4FC401B022800F2DF8033689F07AC
:10277000F6D53368226923F0F80343EAC2033360D5
:1027800023681A0753D45D0730D5704A136C13F0D1
:10279000805300F0818000256E4E3368D80540F1EB
:1027A000B480A368012B00F0C480052B00F02D81BC
:1027B000664E326F22F001023267326F22F004025D
:1027C0003267002B40F0BA80FFF780FC41F2883876
:1027D000074605E0FFF77AFCC01B404500F2A580E4
:1027E000336F9B07F6D4002D40F00981A369D3B164
:1027F000564DAA6802F00C02082A00F0CC80022B89
:10280000534B4FF000021A6600F00981FFF75EFC9F
:10281000044605E0FFF75AFC001B022800F2858001
:102820002B689B01F6D4002002B0BDE8F0816369FB
:102830000BB3474B454E0122C3F8802EFFF746FCF1
:10284000054604E0FFF742FC401B02286DD8736F79
:102850009B07F7D5236896E7526851023FF574AF9E
:102860003A4A1268920744D5E268012A41D0012011
:1028700002B0BDE8F081364A344EC2F8803EFFF720
:1028800025FC054604E0FFF721FC401B02284CD83C
:10289000736F9F07F7D4DDE70193136C43F0805308
:1028A0001364136C03F080530193019B012573E7BC
:1028B0004A6851027FF517AF244A126892037FF5E8
:1028C00035AF6268002A7FF431AFD0E71F4A136842
:1028D00043F480331360FFF7F9FB1C4E054604E018
:1028E000FFF7F4FB401B64281FD833689B03F7D520
:1028F0001BE7164920690A6822F0F80242EAC00282
:102900000A601A077FF53FAF91E7336843F480739D
:102910003360FFF7DBFB07463368D9053FF541AF6E
:10292000FFF7D4FBC01B0228F6D9032002B0BDE894
:10293000F081064A136F43F001031367FFF7C6FBEC
:10294000024F064641F288380BE000BF00380240D3
:102950000000474200700040FFF7B8FB801B404575
:10296000E3D83B6F9A07F7D5002D3FF43FAF46E021
:10297000424A434E1360FFF7A9FB054604E0FFF708
:10298000A5FB401B0228D0D833689907F7D42368E9
:10299000F7E601207047012B3FF469AF6B68E269ED
:1029A00003F4800191427FF462AF226A03F03F0199
:1029B00091427FF45CAF616A47F6C0721A40B2EB95
:1029C000811F7FF454AFA26A520803F44031013AE8
:1029D000B1EB024F7FF44BAFE26A03F07063B3EBED
:1029E000026F14BF012000201EE7254B1A6842F435
:1029F00080221A601A6842F480321A606BE7204A1B
:102A0000136C23F080531364F0E61D4B1A6F42F0F1
:102A100004021A671A6F42F001021A678EE7FFF785
:102A200055FB064605E0FFF751FB801B02283FF6E9
:102A30007CAF2B689901F6D4D4E90731626A0B4365
:102A400043EA8213D4E90A2052080C4943EA00639E
:102A5000013A43EA024301226B600A66FFF736FB44
:102A6000074D044605E0FFF731FB001B02283FF647
:102A70005CAF2B689A01F6D5D5E600BF000047424F
:102A800000380240164908B58B6803F00C03042B8C
:102A90001BD0082B01D0134808BD4A684B68496811
:102AA00013F4800302F03F0211D10E48C1F38811E4
:102AB000A1FB0001FEF702F8094B5B68C3F3014379
:102AC00001335B00B0FBF3F008BD074808BD0648C2
:102AD000C1F388110023A1FB0001FDF7EFFFEBE735
:102AE000003802400024F40040787D01002800F006
:102AF0008780484A136803F007038B422DE9F041B1
:102B00000D46044609D2CBB21370136803F00703D5
:102B10008B4202D00120BDE8F0812368980714D5CC
:102B2000590704D53C498A6842F4E0528A601A0782
:102B300004D539498A6842F460428A603649A068FF
:102B40008A6822F0F00202438A60DF0721D56268BA
:102B5000012A57D0931E012B2F4B1B684DD9990783
:102B6000D8D52D4EB36823F003031343B360FFF7AA
:102B7000ADFA41F28838074604E0FFF7A7FAC01B18
:102B8000404544D8B368626803F00C03B3EB820F8E
:102B9000F3D1204A136803F00703AB4206D9EBB226
:102BA0001370136803F00703AB42B3D123685A07CD
:102BB00006D51949E0688A6822F4E05202438A6027
:102BC0001B0707D5144A2169936823F4604343EA3D
:102BD000C1039360FFF756FF0F4A104C92681049EB
:102BE000C2F303120346A25C0E48D34000680B6098
:102BF000FEF7BAFE0020BDE8F0819801B1D489E764
:102C000001207047044B1B689E03AAD482E703206F
:102C100081E700BF003C024000380240846D01089B
:102C2000040000200C000020044B05499B68054A65
:102C30000868C3F38223D35CD84070470038024051
:102C4000040000207C6D0108044B05499B68054A7F
:102C50000868C3F34233D35CD84070470038024061
:102C6000040000207C6D01080E4B0F2210B402609E
:102C70009A680D4C02F0030242609A6802F0F0027A
:102C800082609A6802F4E052C2609B68DB0803F439
:102C9000E053036123685DF8044B03F007030B6006
:102CA000704700BF00380240003C024000285CD062
:102CB00070B50446406A002847D00023C4E90433B5
:102CC00094F851300022A26203F0FF01002B42D0A1
:102CD00094462168A568A269266A022384F85130C7
:102CE0000B6823F040030B60636805F4044503F4AC
:102CF00082732B43E56805F400652B43256905F0D5
:102D000002052B43656905F001052B43E56906F0D3
:102D1000800E02F4007605F0380533432B43120C85
:102D200000F0100043EA0E0302F0040243EA0C0331
:102D300002430B604A60CB69002023F40063012248
:102D4000CB61606584F8512070BD6368B3F5827F04
:102D5000B6D0E061B4E7204684F85010FEF7A8FD35
:102D6000D4E9090303F4005CB3E70120704700BF16
:102D7000002871D070B590F83D30044603F0FF0292
:102D8000002B54D02268354EA169E56860680223A3
:102D900084F83D30B24213684ED0B2F1804F1CD05F
:102DA000A6F57C46B24218D006F58066B24214D031
:102DB00006F58066B24210D0294EB24211D006F517
:102DC0008066B2420DD006F58066B24209D023F08B
:102DD0008003D562194390620CE0A66823F070036B
:102DE00033432669D56223F44073334323F08003D1
:102DF000194390621068012340F004001060536191
:102E0000116084F8463084F83E3084F83F3084F80E
:102E1000403084F8413084F8423084F8433084F8FC
:102E2000443084F8453084F83D30002070BD80F88F
:102E30003C20FEF731FFA5E7A66823F0700333437B
:102E40002669D56223F4407390623343606910634E
:102E500023F080031943CDE70120704700000140B3
:102E60000040014090F83D30012B27D10368144900
:102E7000022280F83D20DA688B4242F00102DA60DB
:102E800011D0B3F1804F0ED00E4A93420BD002F511
:102E90008062934207D002F58062934203D002F52C
:102EA0009A32934204D19A6802F00702062A03D0AC
:102EB0001A6842F001021A60002070470120704732
:102EC0000000014000040040704700BF002871D09E
:102ED00070B590F83D30044603F0FF02002B54D04B
:102EE0002268354EA169E5686068022384F83D30A8
:102EF000B24213684ED0B2F1804F1CD0A6F57C468A
:102F0000B24218D006F58066B24214D006F580664B
:102F1000B24210D0294EB24211D006F58066B242BC
:102F20000DD006F58066B24209D023F08003D56249
:102F3000194390620CE0A66823F0700333432669BE
:102F4000D56223F44073334323F080031943906226
:102F50001068012340F0040010605361116084F890
:102F6000463084F83E3084F83F3084F8403084F8AE
:102F7000413084F8423084F8433084F8443084F897
:102F8000453084F83D30002070BD80F83C20FFF7CC
:102F90009BFFA5E7A66823F0700333432669D5623B
:102FA00023F44073906233436069106323F080031D
:102FB0001943CDE701207047000001400040014067
:102FC00091BB90F83E30012B3AD1022380F83E307D
:102FD000036801F01F01186A01228A4020EA0200FA
:102FE0001862186A224902438B421A6232D0B3F146
:102FF000804F0ED01F4A93420BD002F5806293425D
:1030000007D002F58062934203D002F59A329342D0
:1030100004D19A6802F00702062A03D01A6842F027
:1030200001021A600020704704290BD0082916D02D
:1030300090F84130012B03D1022380F84130C7E7DB
:103040000120704790F83F30012BF9D1022380F81E
:103050003F30BDE75A6C42F400425A64D9E790F819
:103060004030012BECD1022380F84030B0E700BFA4
:103070000000014000040040036810B41A6A01F027
:103080001F044FF0010C0CFA04FC22EA0C021A6235
:103090001E4A1C6A1C62934222D01C6A41F2111221
:1030A000144204D11C6A40F24442144213D001235A
:1030B00029B980F83E305DF8044B002070470429A0
:1030C0001DD008290CBF80F8403080F841305DF8F1
:1030D000044B002070471A6822F001021A60E6E7EC
:1030E0001C6A41F211121442D7D11C6A40F24442C8
:1030F0001442D2D15A6C22F400425A64CDE780F8CF
:103100003F305DF8044B0020704700BF00000140D5
:10311000002800F09980F8B590F83D300D4604463F
:1031200003F0FF02002B7AD02368484FA169E668BC
:103130006068022284F83D209A6822F4804222F0DE
:1031400007029A60BB421A686ED0B3F1804F1CD060
:10315000A7F57C47BB4218D007F58067BB4214D067
:1031600007F58067BB4210D0394FBB4211D007F53D
:103170008067BB420DD007F58067BB4209D022F0C3
:103180008002DE62114398620CE0A76822F07002B0
:103190003A432769DE6222F440723A4322F0800209
:1031A000986211431A68AF69012642F004021A605E
:1031B0005E61196098689A69A96822F4407222F0E9
:1031C000030241EA072111432A69EF69120142EA29
:1031D0000722EF683A431F6A27F0AA0C2F6A21F4EE
:1031E0007C4121F0FC0142EA07320A436F696968B9
:1031F0002D6841EA0711284341EA0C0198609A6161
:10320000196284F8466084F83E6084F83F6084F870
:10321000426084F8436084F83D600020F8BD80F887
:103220003C20FEF7D1FC7FE7A76822F070023A430A
:103230002769DE6222F440723A43986222F08002EB
:10324000114362691A63ADE7012070470000014035
:1032500000400140034690F83C00012800F0B68091
:103260000120F0B483F83C000C2A08D8DFE802F013
:103270003B07070760070707880707070D000022BD
:1032800083F83C200120F0BC70471A680E68106A71
:10329000146A24F4805414625568D46924F4E64412
:1032A00044EA06248E6820F4005040EA0630614E5D
:1032B000B24200F0A9805560D4614C681464106279
:1032C000D0690C6940F40060D061D16921F480615B
:1032D000D161D16941EA0421D161002283F83C2007
:1032E0000020F0BC70471A680E68106A146A24F057
:1032F000010414625568946924F0730434438E68A1
:1033000020F0020030434B4EB24261D055609461D0
:103310004C685463106290690C6940F00800906139
:10332000916921F004019161916921439161D4E790
:103330001A680E68106A146A24F010041462556842
:10334000946924F4E64444EA06248E6820F02000C0
:1033500040EA0610374EB24247D0556094614C683F
:103360009463106290690C6940F400609061916907
:1033700021F480619161916941EA04219161ACE796
:103380001A680E68106A146A24F48074146255680E
:10339000D46924F0730434438E6820F4007040EA4A
:1033A0000620244EB24235D05560D4614C68D463B7
:1033B0001062D0690C6940F00800D061D16921F039
:1033C0000401D161D1692143D16186E702207047B0
:1033D000CE6820F008003043D1E9056725F4407538
:1033E0003E4320F00400354390E7CE6820F0800093
:1033F00040EA0610D1E9056725F440653E4320F018
:10340000400045EA8605A8E74E6925F4804545EA6F
:10341000861550E7CE6820F4006040EA0620D1E926
:10342000056725F440553E4320F4806045EA0615C3
:10343000BAE700BF0000014090F83C20012A6ED09E
:103440000346026830B40120022483F83C0083F86C
:103450003D40946824F47F4424F0770494600C6821
:10346000602C76D019D8402C5BD02ED8202C04D0DC
:1034700000F2888034F0100107D1916821F07001CA
:10348000214341F00701916000200121002283F8CF
:103490003D1083F83C2030BC7047B4F5805FF3D01A
:1034A000B4F5005F2BD0702CEFD1D1E901509468B6
:1034B0002843CD6824F47F4140EA0520084390600A
:1034C000916841F077019160DEE7502CDDD14868CA
:1034D000CC68116A21F00A010843116A21F0010148
:1034E0001162916921F0F00141EA041191611062C9
:1034F000916821F0700141F057019160C4E7D1E972
:10350000015094682843CD6824F47F4140EA0520A7
:1035100008439060916841F480419160B4E70220D3
:1035200070474868CC68116A21F00A010843116AA3
:1035300021F001011162916921F0F00141EA0411C9
:1035400091611062916821F0700141F04701916032
:103550009AE74868CC68116A21F0A00141EA00119D
:10356000106A20F010001062906920F4704040EA68
:10357000043090611162916821F0700141F067019F
:10358000916081E7302C3FF478AF7EE7704700BF51
:10359000704700BF704700BF704700BF036870B539
:1035A000DE681D69A907044601D5B20751D4690731
:1035B00001D572073AD42B0701D5300724D4EA0687
:1035C00001D5F30610D4E80701D5F10757D42A0630
:1035D00001D533065BD4680601D571065FD4AA060F
:1035E00001D5B30642D470BD23686FF010021A6192
:1035F00008222277DB6913F4407F204663D0FFF76F
:10360000C7FF00232377DEE723686FF008021A6103
:1036100004222277DB699907204651D1FFF7B6FFD4
:103620002046FFF7B7FF00232377C8E723686FF032
:1036300004021A61022222779B6913F4407F20461C
:103640003BD1FFF7A3FF2046FFF7A4FF002323771A
:10365000B1E76FF002021A61012202779B699B07B2
:1036600025D0FFF795FF00232377A0E723686FF0AD
:10367000200220461A61BDE8704000F063B823685C
:103680006FF001021A612046FEF7E2F89FE7236817
:103690006FF080021A61204600F056F89BE723681D
:1036A0006FF040021A612046FFF776FF97E7FFF7B9
:1036B0006DFF2046FFF76EFFD5E7FFF769FFC5E70F
:1036C000FFF766FFAFE7FFF761FF2046FFF762FFF6
:1036D00097E700BF90F83C20012A2FD003460268EC
:1036E000022030B483F83D0050680D68946820F0E3
:1036F0007000284350601248824212D0B2F1804FCD
:103700000FD0A0F57C4082420BD000F58060824251
:1037100007D000F58060824203D000F59A308242E3
:1037200004D1496824F080040C43946000200122F5
:1037300083F83D2083F83C0030BC7047022070477E
:1037400000000140704700BF704700BF002800F034
:10375000878038B590F84130044603F0FF02002B13
:1037600079D02368E068242284F84120DA6822F4C2
:103770000052DA601969A26821F4405101432069BE
:10378000196102436069D9680243E06921F4164176
:1037900021F00C0102430A43DA605A69A0693149F9
:1037A00022F4407202438B425A6136D02E4A934231
:1037B00033D0FFF739FAE2691921B2F5004FD4E9A5
:1037C0000053A0FB01012BD09A009B0FFDF776F967
:1037D000264AA2FB00135B09642101FB13000001D0
:1037E0003230A2FB00201B0103EB5013AB602A69AF
:1037F00022F490422A616A6922F02A026A61EA6828
:103800000023202142F40052EA60636484F84110EE
:1038100084F842101846636338BDFFF715FACAE70B
:10382000DA184FF000035B41FDF748F90F4AA2FB9D
:1038300000314909642303FB1103DB003233A2FB8F
:103840000323C3F342121B0902EB011203F4F873C2
:103850001344AB60CBE780F84020FEF789FB80E79C
:103860000120704700100140001401401F85EB51FA
:103870002DE9F843044690F8410020285ED10F4618
:1038800009B1154612B90120BDE8F88398464FF0FA
:1038900000092123C4F8449084F84130FEF716FC57
:1038A000A368A584B3F5805F0646E58449D0E28C21
:1038B000236892B2002A55D0B8F1FF3F21D0B8F169
:1038C000000F44D01A68150609D4FEF7FFFB801BD1
:1038D000804541D32368DA681A681506F5D5BFB16B
:1038E00017F8012B5A60E28C013A92B2E284E28C22
:1038F00092B2002A36D0B8F1FF3FE0D11A68110623
:10390000EED41A681006EAD41A681006F9D5E6E76C
:1039100039F8022BC2F308025A60E28C013A92B2E3
:10392000E284E28C92B2EAB1B8F1FF3FC7D11A68E3
:103930001206EDD41A681006E6D5D0E70220BDE8DD
:10394000F8832369002BB2D1B9461F46AFE71A6846
:103950001006C4D4FEF7BAFB202384F841300320BC
:10396000BDE8F883B8F1FF3F14D0B8F1000F18D0CC
:103970001B68590609D4FEF7A9FB831B9845EBD3B6
:103980002368DA681B685906F5D5202384F841308E
:10399000002079E71A685206F7D41A685206F4D460
:1039A000F8E71B685B06D5D5EFE700BF08B54FF019
:1039B000E0231B6901F00AFE012800D108BDBDE823
:1039C000084000F0A7B900BFEFF305832BB9064B01
:1039D000186828B901221A6070476FF00500704717
:1039E0004FF0FF30704700BFC012002010B5EFF35A
:1039F000058474B9084B1A68012A07D107490222C5
:103A0000CC771A6001F0C0FB204610BD4FF0FF30AC
:103A100010BD6FF0050010BDC012002000ED00E0E9
:103A2000F0B587B0002514460595EFF3058242BB3B
:103A300038B3DCB1A3693BBB18236268D20720D43A
:103A400065692DB3AA08A668D4F800C0E7680EB36C
:103A5000B7F5D07F15D324699CB195B10093CDE91A
:103A600001460B46614601F047FA0BE0802218231D
:103A700000930B46214605AC019401F079FA012828
:103A800010D0002007B0F0BD5D1E372DD5D9F8E766
:103A90008022D8E7002FF4D12469002CF1D192B212
:103AA0006446E5E70598EDE7044B10B40360044C69
:103AB0000C6080235DF8044B1360704720110020D8
:103AC000200F0020054B10B40360054C0C604FF430
:103AD00080735DF8044B1360704700BF800D0020B9
:103AE0007C09002000F108034FF0FF310022C0E9FB
:103AF0000131C0E903330260704700BF0023036156
:103B0000704700BF4268036810B494680133C1E98C
:103B10000124616091605DF8044B086103607047A7
:103B200030B40D686B1C10D000F108031C465B68B4
:103B30001A68AA42FAD902684B60013299608C6017
:103B40006160086130BC0260704704696368F2E735
:103B5000036910B4D0E901125C688A608442516044
:103B600008BF5A601A685DF8044B0021013A0161F0
:103B70001A601868704700BF08480068006880F342
:103B800008884FF0000080F3148862B661B6BFF376
:103B90004F8FBFF36F8F00DF00BF000008ED00E024
:103BA000DFF80C00016841F470010160704700000B
:103BB00088ED00E00E4B1B6882B0002201330192B9
:103BC00008D04FF0500383F31188BFF36F8FBFF31A
:103BD0004F8FFEE74FF0500383F31188BFF36F8FD1
:103BE000BFF34F8F019B002BFCD002B0704700BF8A
:103BF0001000002010B44FF08073074C40F8043CD4
:103C000021F001016FF0020340E9034140E909326C
:103C10005DF8044B44387047B53B000800000000D5
:103C2000074B19680868B0E8F04F80F30988BFF3C4
:103C30006F8F4FF0000080F311887047AFF3008062
:103C4000285400204FF0500383F31188BFF36F8F87
:103C5000BFF34F8F0B4A13680133012B136000D061
:103C600070474FF0E023D3F8043DDBB2002BF7D0D0
:103C70004FF0500383F31188BFF36F8FBFF34F8F63
:103C8000FEE700BF10000020084A136843B94FF058
:103C9000500383F31188BFF36F8FBFF34F8FFEE79D
:103CA000013B13600BB983F31188704710000020AB
:103CB000EFF30980BFF36F8F154B1A681EF0100FDA
:103CC00008BF20ED108A20E9F04F10602DE90900AF
:103CD0004FF0500080F31188BFF34F8FBFF36F8F09
:103CE00001F0FEFA4FF0000080F3118809BC19685A
:103CF0000868B0E8F04F1EF0100F08BFB0EC108A53
:103D000080F30988BFF36F8F704700BFAFF3008067
:103D10002854002008B54FF0500383F31188BFF3F7
:103D20006F8FBFF34F8F01F0CBFA28B14FF0E02334
:103D30004FF08052C3F8042D002383F3118808BD8F
:103D40004FF0E02200230649136193610B68054997
:103D5000A1FB03139B090720013B536110617047CE
:103D600004000020D34D62104FF0E023484AD3F8FE
:103D7000001D914241D0D3F8002D464B9A4233D0DA
:103D800070B5454B454C1A78454884B0FF21D2B2F6
:103D9000029219701B78DBB28DF807309DF807305E
:103DA0009DF8072003F050030721120623700160DD
:103DB00048BF06220FD59DF807305B00DBB28DF8B7
:103DC00007309DF807301B06114602F1FF32F2D48E
:103DD00003291BD001604FF0500383F31188BFF318
:103DE0006F8FBFF34F8FFEE74FF0500383F31188BF
:103DF000BFF36F8FBFF34F8FFEE74FF0500383F396
:103E00001188BFF36F8FBFF34F8FFEE7029B224AEB
:103E1000244E4FF0E0244FF44071DBB20160137088
:103E2000D4F8203D43F47003C4F8203DD4F8203D7D
:103E300043F07043C4F8203D0025FFF781FF356053
:103E4000FFF7AEFED4F8343F43F04043C4F8343FAC
:103E5000FFF792FE01F044FA33680395013308D06E
:103E60004FF0500383F31188BFF36F8FBFF34F8F71
:103E7000FEE74FF0500383F31188BFF36F8FBFF35A
:103E80004F8F039B002BFCD0002004B070BD00BFFF
:103E900071C20F4170C20F4100E400E0C81200205F
:103EA000C4120020100000202DE9F843054601F05F
:103EB000E9F9544A1668002E35D0534B1F683D422D
:103EC0002BD155B305F1080468071CBF24F0070483
:103ED000083414B3DFF844C1DCF80050A5421CD309
:103EE0004A48036803E01A6822B118461346596825
:103EF000A142F8D3B34210D01A680260081B102800
:103F000047D91A1951072CD04FF0500383F3118869
:103F1000BFF36F8FBFF34F8FFEE701F0BBF90024B3
:103F20002046BDE8F8833A4B3A4E38485C0718BF44
:103F3000073326F0070618BF23F007031660364A3A
:103F400003601946F31A1360344A2F4C13604FF084
:103F50000047002242602760C6E90022C1E90063F1
:103F6000ADE72A4950605C60084609688A42FBD880
:103F7000D0F804E0D2F8048000EB0E094A4527D0BF
:103F800002EB080E71452BD01160824218BF02600F
:103F90002146214A10686D1A8542214838BF1560B4
:103FA0000F430168CCF800500024C3E900470131F9
:103FB00003F10804016001F06DF96307B0D04FF020
:103FC000500383F31188BFF36F8FBFF34F8FFEE76A
:103FD0000EEB08028418A14242600AD05968D8E763
:103FE000B142D1D04C6809681160444454605C68A7
:103FF000CBE7B142F2D04C6814440A6844600260D6
:10400000ECE700BFE0120020CC120020E4120020F8
:10401000EC120020E44E0020D8120020DC12002018
:10402000D4120020D0B1324A50F8043C1268134236
:104030000BD050F8081C91B14FF0500383F3118856
:10404000BFF36F8FBFF34F8FFEE74FF0500383F343
:104050001188BFF36F8FBFF34F8FFEE7704710B526
:1040600023EA020382B040F8043CA0F10804019066
:1040700001F008F9DFF888C00198DCF8002050F85A
:10408000041C1C4B0A44CCF800201A461B689C42B6
:10409000FBD8D2F804C002EB0C0E744511D004EB2F
:1040A000010C63451DD040F8083CA24218BF1460C3
:1040B000114A13680133136002B0BDE8104001F0EB
:1040C000E9B86144501883425160F1D10B4800684F
:1040D0009842EDD01446D3E900300144236061607A
:1040E000E3E7DFF818C0DCF800C06345F3D1DAE796
:1040F000CC120020E4120020D0120020E012002098
:10410000DC120020036C70B5856B04462BB9066881
:10411000013546B31846A56370BD164682B91A46E6
:104120004068FCF77DFF6368216CA2680B449342F2
:10413000636024BF2368636001350020A56370BD00
:104140001A46C068FCF76CFF226CE36851429B1A68
:104150002268E360934202D2A3680B44E360022E1C
:1041600006D00135E9E7806801F040FAA660D2E7A1
:10417000012D38BF01250020CDE700BF30B583B049
:104180009DF8185040B94FF0500383F31188BFF3E6
:104190006F8FBFF34F8FFEE71C4683B1002A4AD0D2
:1041A000B1B150230193019B502B1AD04FF0500313
:1041B00083F31188BFF36F8FBFF34F8FFEE74FF08C
:1041C000500383F31188BFF36F8FBFF34F8FFEE768
:1041D0004FF0500383F31188BFF36F8FBFF34F8FFE
:1041E000FEE7019B22600123C4E90F0184F84630F9
:1041F000FFF728FDD4E90F232168616003FB02F279
:10420000D31A0A44A26000220B44A263FF2284F85E
:104210004420E36084F8452004F11000FFF762FCBD
:1042200004F12400FFF75EFCFFF72EFD204684F822
:104230004C5003B030BD39B950230193019B502B32
:10424000B4D1019B2246CDE74FF0500383F3118890
:10425000BFF36F8FBFF34F8FFEE700BF2DE9F04331
:1042600085B00192002800F01A8188461F46044656
:10427000002900F0AE80022F0BD1E36B012B08D098
:104280004FF0500383F31188BFF36F8FBFF34F8F4D
:10429000FEE701F09BF9002800F00A81FFF7D2FC4D
:1042A000A26BE36B9A427AD3022F78D0002304F1F9
:1042B0002406019A002A00F00881002B00F0EB8010
:1042C000FFF7E2FC00F0DEFFFFF7BCFC94F844309F
:1042D000FF2B04BF002384F8443094F84530FF2BB3
:1042E00004BF002384F84530FFF7CEFC01A902A8E3
:1042F00001F020F9002840F0EC80FFF7A3FCA26B4E
:10430000E36B9A4272D0FFF7BFFCFFF79BFC94F877
:10431000452055B2002D04DC11E06A1ED3B255B21F
:104320006BB1636A304653B101F0B4F80028F4D0A1
:1043300001F046F96A1ED3B255B2002BF1D1FF232A
:1043400084F84530FFF7A0FCFFF77CFC94F844208C
:1043500055B2002D14DD04F1100903E06A1ED3B23A
:1043600055B26BB12369484653B101F093F8002868
:10437000F4D001F025F96A1ED3B255B2002BF1D169
:10438000FF2384F84430FFF77FFC00F083FFFFF742
:1043900059FCA16BE26B91424FF0010389D23A467E
:1043A00041462046FFF7AEFE636A002B40F0CE8008
:1043B00048B14FF0E0234FF08052C3F8042DBFF313
:1043C0004F8FBFF36F8FFFF75FFC012005B0BDE893
:1043D000F083036C002B3FF44EAF4FF0500383F398
:1043E0001188BFF36F8FBFF34F8FFEE704F1100901
:1043F000FFF74AFC0199484600F0BEFFFFF722FC98
:1044000094F845305DB2002D04DC11E06B1EDAB289
:104410005DB26AB1636A304653B101F03BF80028DF
:10442000F4D001F0CDF86B1EDAB25DB2002AF1D102
:10443000FF2384F84530FFF727FCFFF703FC94F8CF
:1044400044305DB2002D04DC11E06B1EDAB25DB2C7
:104450006AB12369484653B101F01CF80028F4D032
:1044600001F0AEF86B1EDAB25DB2002AF1D1FF2383
:1044700084F84430FFF708FC00F00CFF002886D1D8
:104480004FF0E0234FF08052C3F8042DBFF34F8F5D
:10449000BFF36F8F7BE702A801F040F810E74FF001
:1044A000500383F31188BFF36F8FBFF34F8FFEE785
:1044B000019B002B3FF4F2AE4FF0500383F31188C1
:1044C000BFF36F8FBFF34F8FFEE7FFF7DDFB0020D9
:1044D0007CE7FFF7B7FB94F845305DB2002D10DDA7
:1044E00004F1240603E06B1EDAB25DB24AB1636ADE
:1044F000304633B100F0CEFF0028F4D001F060F870
:10450000F1E7FF2384F84530FFF7BEFBFFF79AFB86
:1045100094F844305DB2002D10DD04F1100603E084
:104520006B1EDAB25DB24AB12369304633B100F096
:10453000B1FF0028F4D001F043F8F1E7FF2384F83D
:104540004430FFF7A1FB00F0A5FEC0E704F1240012
:1045500000F0A0FF00283FF436AF2AE72DE9F04332
:1045600085B00192002800F047810F4604460029DB
:104570007BD001F02BF8002800F08380FFF762FB6E
:10458000A56B002D40F04181019B002B00F0D780EE
:1045900002A800F0C3FFA84604F12406FFF774FB4D
:1045A00000F070FEFFF74EFB94F84430FF2B08BF7D
:1045B00084F8448094F84530FF2B08BF84F8458088
:1045C000FFF762FB01A902A800F0B4FF002865D143
:1045D000FFF738FBA36B002B00F0B780FFF754FB0D
:1045E000FFF730FB94F845305DB2002D14DD04F187
:1045F000240903E06B1EDAB25DB26AB1636A484611
:1046000053B100F047FF0028F4D000F0D9FF6B1E33
:10461000DAB25DB2002AF1D1FF2384F84530FFF70A
:1046200033FBFFF70FFB94F844305DB2002D14DD2F
:1046300004F1100903E06B1EDAB25DB26AB12369BE
:10464000484653B100F026FF0028F4D000F0B8FF30
:104650006B1EDAB25DB2002AF1D1FF2384F8443038
:10466000FFF712FB00F016FE60E0036C002B80D019
:104670004FF0500383F31188BFF36F8FBFF34F8F59
:10468000FEE7019B002B3FF479AF4FF0500383F31B
:104690001188BFF36F8FBFF34F8FFEE7FFF7D2FA9A
:1046A00094F845305DB2002D04DC11E06B1EDAB2E7
:1046B0005DB26AB1636A304653B100F0EBFE002888
:1046C000F4D000F07DFF6B1EDAB25DB2002AF1D1AA
:1046D000FF2384F84530FFF7D7FAFFF7B3FA94F8D1
:1046E00044305DB2002D14DD04F1100903E06B1EAF
:1046F000DAB25DB26AB12369484653B100F0CAFE2E
:104700000028F4D000F05CFF6B1EDAB25DB2002A24
:10471000F1D1FF2384F84430FFF7B6FA00F0BAFD78
:10472000FFF790FAA36B53B1FFF7AEFAFFF78AFADF
:10473000A56B002D69D1019B002B7FF42FAFFFF7F4
:10474000A3FA002005B0BDE8F08304F12409FFF7C7
:104750009BFA0199484600F00FFEFFF773FA94F8B0
:1047600045305DB2002D04DC11E06B1EDAB25DB2A3
:104770006AB1636A484653B100F08CFE0028F4D059
:1047800000F01EFF6B1EDAB25DB2002AF1D1FF23EA
:1047900084F84530FFF778FAFFF754FA94F844307C
:1047A0005DB2002D14DD04F1100903E06B1EDAB2D6
:1047B0005DB26AB12369484653B100F06BFE002830
:1047C000F4D000F0FDFE6B1EDAB25DB2002AF1D12A
:1047D000FF2384F84430FFF757FA00F05BFD002810
:1047E000A4D14FF0E0234FF08052C3F8042DBFF363
:1047F0004F8FBFF36F8F99E74FF0500383F311880A
:10480000BFF36F8FBFF34F8FFEE7226C52B1E168A9
:10481000A36811449942E16024BF2168E1603846F1
:10482000FCF7FEFB013DA56323691BB9FFF72CFADA
:10483000012087E704F1100000F02CFE0028F5D0DD
:104840004FF0E0234FF08052C3F8042DBFF34F8F99
:10485000BFF36F8FEAE700BF124B1A687AB19A680C
:1048600062B11A6992B19A6992B11A6A92B19A6A5E
:1048700092B11A6B92B19A6B92B17047012203EB1D
:10488000C20C43F83210CCF8040070470222F6E75D
:104890000322F4E70422F2E70522F0E70622EEE71E
:1048A0000722ECE7F04E002070B505460E46144690
:1048B000FFF7C8F995F84430FF2B04BF002385F8B3
:1048C000443095F84530FF2B04BF002385F8453070
:1048D000FFF7DAF9AB6B002B43D0FFF7B3F995F88C
:1048E00045305CB2002C14DD05F1240603E0631EA4
:1048F000DAB25CB26AB16B6A304653B100F0CAFDFD
:104900000028F4D000F05CFE631EDAB25CB2002A2C
:10491000F1D1FF2385F84530FFF7B6F9FFF792F99B
:1049200095F844305CB2002C14DD05F1100603E06C
:10493000631EDAB25CB26AB12B69304653B100F043
:10494000A9FD0028F4D000F03BFE631EDAB25CB291
:10495000002AF1D1FF2385F84430BDE87040FFF70D
:1049600093B92246314605F1240000F049FDB4E731
:104970002DE9F0410546FFF765F9334A334E1368D8
:10498000013313603368002B31D0314CE86A23685F
:1049900033B3304F304A31491368013313606B64CD
:1049A0000B68834238BF086000EB800007EB800093
:1049B000291DFFF7A7F8FFF767F9236873B132687D
:1049C000EB6AD26A9A4209D24FF0E0234FF080524C
:1049D000C3F8042DBFF34F8FBFF36F8FBDE8F08195
:1049E00033681C4FDB6A834298BF3560D2E735607D
:1049F0001368012B03D0E86A164F154CCAE7154F10
:104A00003C4607F58C6820461434FFF76BF8A04548
:104A1000F9D1DFF86480124C4046FFF763F8204676
:104A2000FFF760F80F48FFF75DF80F48FFF75AF8F7
:104A30000E48FFF757F80E4BE86AC3F800800D4B9D
:104A40001C60034CA6E700BF544F002028540020F0
:104A5000484F0020C84F0020384F00204C4F002006
:104A6000A04F0020844F0020704F0020584F00209E
:104A70009C4F0020984F0020B44F00202DE9F047B4
:104A80000A9CDDF824909600324607460D46206BBE
:104A9000A52198460BF042FC236B043E1E4426F0F1
:104AA0000706002D00F082802B7884F83430002B2C
:104AB00036D06B7884F8353093B3AB7884F83630E1
:104AC00073B3EB7884F8373053B32B7984F83830EC
:104AD00033B36B7984F8393013B3AB7984F83A3057
:104AE000F3B1EB7984F83B30D3B12B7A84F83C30C6
:104AF000B3B16B7A84F83D3093B1AB7A84F83E3031
:104B000073B1EB7A84F83F3053B12B7B84F840309B
:104B100033B16B7B84F8413013B1AB7B84F8423006
:104B2000002384F84330089D372D28BF37254FF0E8
:104B3000000AE562E564201DC4F850A0FEF7DEFF20
:104B4000C5F1380504F11800FEF7D8FFA561C4F8D7
:104B500098A151464FF4A0722461646284F89CA12C
:104B600004F158000BF0DAFB124D134BE3653046AD
:104B7000124EC4E93E65124DC4F8005103F16805B8
:104B8000D0333946636601260B230027C4E93C670E
:104B900042462566A4F80431FFF72CF82060B9F1ED
:104BA000000F01D0C9F80040BDE8F08784F8345008
:104BB000B9E700BF34126DE6B05500200E33CDAB1F
:104BC000ECDE050080B5244EDFF89880234F244D9D
:104BD000336863B3FFF736F8D8F80C30DC68201D73
:104BE000FEF7B6FF3B68013B3B603368013B336037
:104BF000FFF74AF804F158000BF0C0FC94F89D311F
:104C000063B1012B23D0022BE2D04FF0500383F38A
:104C10001188BFF36F8FBFF34F8FFEE7206BFFF755
:104C200001FA2046FFF7FEF93368002BD2D12B683A
:104C3000012B09D94FF0E0234FF08052C3F8042D27
:104C4000BFF34F8FBFF36F8FFCF7A6FCC0E7204682
:104C5000FFF7E8F9BCE700BF6C4F0020544F00207D
:104C6000C84F0020704F00202DE9F04F4B4B1D68BE
:104C7000013583B01D60002D45D0494B01931B6861
:104C80009D424DD3474FDFF82C813B68DFF828A1C8
:104C90001E68002E7AD0DFF8249100260FE0C9F8B4
:104CA0000030FEF72FFFE26ADAF80030DB6A9A4242
:104CB00028BF46F001063B681B68002B66D03B68A6
:104CC000DB68DC68636804F1040B9D42584662D3DC
:104CD000FEF73EFFA36A04F118000BB1FEF738FFA0
:104CE000E36AD9F8002003EB8300934284465946D7
:104CF00008EB8000D3D808EB8C00FEF703FFDAF84E
:104D00000030E26AD2E7274B1A6812680AB34FF004
:104D1000500383F31188BFF36F8FBFF34F8FFEE70C
:104D2000DFF89080DFF890A00026DAF800301E4A05
:104D3000DB6A03EB83039B0058F803301068012BF8
:104D400098BF002814BF01200020304303B0BDE805
:104D5000F08F164A186811681960154910600A68C2
:104D600001320A601A6812683AB90D4B01931A466B
:104D70004FF0FF331360134681E71B68084ADB6876
:104D80000192DB685B681360134678E7019A4FF085
:104D9000FF331360C9E7019A1360C6E7504F002044
:104DA000344F00209C4F0020404F0020984F00209F
:104DB0003C4F0020C84F0020285400204C4F0020BA
:104DC0002DE9F84F424DFEF73DFF2B68013B2B606C
:104DD0002B68002B65D13F4B1B68002B61D03E4EEA
:104DE0003368002B70D03D4FDFF80091DFF8008171
:104DF000DFF800A1F368DC6804F1040B04F118008B
:104E0000FEF7A6FE5846FEF7A3FEE36A3A6803EBF8
:104E100083009342594609EB800088BF3B60FEF750
:104E200071FED8F80030E26ADB6A9A423FD3012370
:104E3000CAF800303368002BDCD1294B1A6812689D
:104E4000002A3CD01A68274BD268D26852681A6090
:104E5000254E346894B1012706E0FFF705FF08B13D
:104E6000CAF80070013C08D02B68002BF5D03368DD
:104E7000013C03F101033360F6D13460DAF800300D
:104E80007BB14FF0E0234FF08052C3F8042DBFF305
:104E90004F8FBFF36F8F0124FEF7F6FE2046BDE86B
:104EA000F88F0024FEF7F0FE2046BDE8F88F336847
:104EB000002B9FD10A4B1A681268002AC2D1094BF5
:104EC0004FF0FF321A60C3E7DFF828A0C0E700BF49
:104ED000304F0020544F0020844F00204C4F0020C2
:104EE0009C4F0020344F0020444F0020C84F00202A
:104EF00028540020404F002030B587B00B9CD4B11F
:104F00000C9D7DB14FF4D0750595059DB5F5D07F0D
:104F10001AD04FF0500383F31188BFF36F8FBFF3A4
:104F20004F8FFEE74FF0500383F31188BFF36F8F6D
:104F3000BFF34F8FFEE74FF0500383F31188BFF3A9
:104F40006F8FBFF34F8FFEE70C9D2C63022485F813
:104F50009D4104ACCDE901450A9C0094059CFFF7F6
:104F60008DFD0C98FFF704FD049807B030BD00BF1D
:104F70002DE9F043074685B09000154688469946CE
:104F8000FEF792FFF8B104464FF4D070FEF78CFFA5
:104F90000646A8B10463002486F89D410D9C019447
:104FA0000C9C02964B462A46414638460094FFF731
:104FB00065FD3046FFF7DCFC012005B0BDE8F0835D
:104FC0002046FFF72FF84FF0FF3005B0BDE8F08323
:104FD00070B50446384DFEF735FE002C48D0261D2E
:104FE0003046FEF7B5FDA36A1BB104F11800FEF7C9
:104FF000AFFD324A1368013313602B68A3422ED0F1
:105000002F4A136804F15800013B13600BF0B6FA05
:1050100094F89D3163B1012B3FD0022B0ED04FF09D
:10502000500383F31188BFF36F8FBFF34F8FFEE7F9
:10503000206BFEF7F7FF2046FEF7F4FF214B1A68BE
:105040001268BAB9204B4FF0FF321A60FEF71CFE0F
:105050001E4B1B6813B12B68A34212D070BD1C48B5
:105060003146FEF74FFD1B4A136801331360EDE72D
:105070002C68B4E71A68144BD268D26852681A6078
:10508000E4E7154B1B6863B14FF0500383F31188BD
:10509000BFF36F8FBFF34F8FFEE72046FEF7C2FFCF
:1050A000CCE74FF0E0234FF08052C3F8042DBFF35C
:1050B0004F8FBFF36F8F70BD28540020384F0020F2
:1050C000544F00209C4F0020344F0020484F0020B8
:1050D000704F00206C4F0020304F0020F8B550B9C1
:1050E0004FF0E0234FF08052C3F8042DBFF34F8FF1
:1050F000BFF36F8FF8BD1E4D2B6843B14FF05003C7
:1051000083F31188BFF36F8FBFF34F8FFEE72B68D8
:10511000013304462B60174B174E1F68306804306C
:10512000FEF716FD3368E4195C6010D3134B186862
:1051300031680431FEF7F4FC2B68A3B94FF050033B
:1051400083F31188BFF36F8FBFF34F8FFEE70C4BD4
:10515000186831680431FEF7E3FC0A4B1A68944280
:1051600038BF1C60E8E7FFF72BFE0028B8D0F8BD79
:10517000304F0020504F002028540020984F00202E
:105180009C4F0020344F002030B58BB0002407AA7C
:1051900006A905A8CDE90544FEF786FC069BDBB110
:1051A000059D85B14FF4D07209920999079AB1F51E
:1051B000D07F1AD04FF0500383F31188BFF36F8F65
:1051C000BFF34F8FFEE74FF0500383F31188BFF317
:1051D0006F8FBFF34F8FFEE74FF0500383F31188BB
:1051E000BFF36F8FBFF34F8FFEE72B63022108AB36
:1051F00085F89D1109981C491C480094CDE901359A
:105200002346FFF73BFC2846FFF7B2FB089B7BB128
:1052100000F0B2FB012803460CD0013308D14FF057
:10522000500383F31188BFF36F8FBFF34F8FFEE7F7
:105230000BB030BD4FF0500282F31188BFF36F8F77
:10524000BFF34F8F0A4A0B4912680B4858320A6065
:105250000A490B4A4FF0FF3505600B6014600BB034
:10526000BDE83040FEF780BD88610108C54B0008ED
:10527000285400203C040020344F0020484F0020D8
:10528000504F0020024A136801331360704700BF7B
:10529000304F0020064B1B6843B94FF0500383F397
:1052A0001188BFF36F8FBFF34F8FFEE7FFF788BD05
:1052B000304F0020014B1868704700BF504F00204E
:1052C000054B1B680BB9FFF7CFBC044A13680133C9
:1052D00000201360704700BF304F0020444F002073
:1052E0001F4B1B681BB11F4B01221A6070471D4AE0
:1052F0001D4910B41D4C1360236803EB8302920018
:1053000098008A5842B913B3013B03EB830298001B
:1053100051F82220002AF6D0184401EB800C624696
:10532000DCF804104968CCF804100832914208BF38
:1053300049680F4A08BFCCF80410C968116023609F
:1053400013680C4A5DF8044B5833136070474FF0F4
:10535000500383F31188BFF36F8FBFF34F8FFEE7C6
:10536000304F0020404F0020C84F00204C4F0020FD
:10537000285400203C040020D0B170B51A4D0C46D2
:1053800029681831FEF7CCFB184B1E6828680430DA
:10539000FEF7DEFB631C14D02B68A4195C6017D3E6
:1053A000134B18682968BDE870400431FEF7B8BB9C
:1053B0004FF0500383F31188BFF36F8FBFF34F8F0C
:1053C000FEE729680B48BDE870400431FEF79ABB40
:1053D000094B186829680431FEF7A2FB074B1A68CD
:1053E000944238BF1C6070BD28540020504F0020EC
:1053F000984F0020584F00209C4F0020344F002031
:1054000030B370B51D4E0C46316815461831FEF7A5
:1054100079FB1B4B85B91D6830680430FEF798FB9B
:10542000336864195C601CD3164B18683168BDE89A
:1054300070400431FEF774BB1B6830680430FEF71F
:1054400087FB31681048BDE870400431FEF75ABB55
:105450004FF0500383F31188BFF36F8FBFF34F8F6B
:10546000FEE70A4B186831680431FEF759FB084B18
:105470001A68944238BF1C6070BD00BF28540020D9
:10548000504F0020984F0020584F00209C4F002084
:10549000344F002038B5C368DC684CB304F11805FC
:1054A0002846FEF755FB174B1B6873B11648294673
:1054B000FEF728FB154BE26A1B68DB6A9A4283BF42
:1054C000134B01201860002038BD251D2846FEF72B
:1054D0003FFB104AE36A11680F488B4288BF136094
:1054E00003EB8303294600EB8300FEF70BFBE1E7A8
:1054F0004FF0500383F31188BFF36F8FBFF34F8FCB
:10550000FEE700BF304F0020844F002028540020C9
:10551000404F00204C4F0020C84F0020034A044B4E
:1055200012681B68C0E90023704700BF3C4F002091
:10553000504F002010B370B50D46B1B10446FEF7D0
:1055400081FB2B681C4A581C11682CD0DFF86CC0FA
:10555000D4E90060DCF800E0764518D0884216D81F
:105560000124FEF791FB204670BD4FF0500383F3FA
:105570001188BFF36F8FBFF34F8FFEE74FF05003DB
:1055800083F31188BFF36F8FBFF34F8FFEE7A1EB5B
:10559000000E73450CD95B1ADCF800101268034446
:1055A0002B60C4E900120024FEF76EFB204670BD9C
:1055B00000232B60D4E700BF504F00203C4F002059
:1055C000014B01221A607047404F0020054B1B68B9
:1055D00033B1054B1868B0FA80F0400940007047BD
:1055E00001207047484F0020304F002018B310B5FD
:1055F0001E4B1C68844282B008D04FF0500383F3E6
:105600001188BFF36F8FBFF34F8FFEE7236D4BB150
:10561000E16AE26C013B9142236500D06BB100204E
:1056200002B010BD4FF0500383F31188BFF36F8FAA
:10563000BFF34F8FFEE700207047211D0846019100
:10564000FEF786FAE36C0A4AE362C3F13800A06110
:10565000106801998342074888BF136003EB8303F6
:1056600000EB8300FEF74EFA0120D9E72854002012
:105670004C4F0020C84F0020F0B5204E85B00DE003
:10568000DB68DC681F68251D2846FEF761FA236A7F
:105690002046984794F828305B0709D433681A6885
:1056A000002AEDD1164A11683160136005B0F0BDD3
:1056B000A3693B449F42294605D230686360246158
:1056C000FEF72EFAEAE70F4D2B686BB1002300932B
:1056D00001970294FFF77AFF002328681A4669466B
:1056E000FEF7BCFD0028D9D14FF0500383F3118899
:1056F000BFF36F8FBFF34F8FFEE700BF2C55002025
:1057000028550020245500202DE9F04F964E974D46
:10571000974C8BB04FF0E0294FF0805832681768F3
:10572000002F40F0A780FFF7ADFDFFF7C3FD2A680B
:1057300090428246C0F0AD808E4B28601A68126895
:10574000B2FA82F252092068A7EB0A01FFF7ACF81F
:10575000FFF7A0FD28B9C9F8048DBFF34F8FBFF341
:105760006F8F2068002202A9FEF7F8FE0028D5D02E
:10577000029B0498002B75DB049F7B6913B1381DD5
:10578000FEF7E6F9FFF796FD2B6898428346C0F0D6
:105790008780029BC5F800B0092BE2D8DFE803F050
:1057A000050505523C590505523C97F82820039BF6
:1057B0003F6142F0010287F82820BA6999182CBF8E
:1057C00001200020594579606DD8ABEB03039A4264
:1057D00032D83B6A3846984797F828305907C0D5E1
:1057E000236883B1BA69039B089713440027079382
:1057F0000697FFF7EBFE20683B463A4606A9FEF700
:105800002DFD0028ADD14FF0500383F31188BFF375
:105810006F8FBFF34F8FFEE797F82820039BBB6184
:1058200042F0010287F82820002B00F093805B44AF
:105830005B457B603F613AD84E4B391D1868FEF7D7
:105840006FF98EE797F8283023F0010387F82830A6
:1058500087E797F828309A0749D523F0010387F89E
:1058600028307EE7039B05999847029B002BFFF6A3
:1058700078AF81E7D3681F68FFF704FDFFF71AFDD3
:105880002A688242824604D88742286014D90022BE
:1058900059E7FFF7F1FEC5F800A0FFF7FBFC60E752
:1058A000FFF7EAFE75E75B4501D9002891D0306823
:1058B000391DFEF735F954E7FFF7ECFC3268D26882
:1058C000D2F80CB00BF1040108460191FEF740F943
:1058D0009BF82820019912F0040F0CD122F001024C
:1058E0008BF82820DBF820305846984739E73846AF
:1058F000FEF798FB35E7DBF81800CBF810B03A1844
:105900005245CBF8042003D93068FEF709F9E9E7DE
:10591000AAEB070A504518D822686AB1CDE9077B7F
:1059200000270697FFF752FE20683B463A4606A935
:10593000FEF794FC0028D5D14FF0500383F3118873
:10594000BFF36F8FBFF34F8FFEE70A4B1868FEF768
:10595000E7F8C7E74FF0500383F31188BFF36F8F69
:10596000BFF34F8FFEE700BF2C5500201C550020D1
:105970002455002028550020F0B5234C89B0FEF7AF
:1059800061F9256835B3FEF77FF92368CBB10024B0
:1059900007AA06A905A8CDE90544FEF793F8DDE9B5
:1059A00005020223CDE9012000931849079A1848FF
:1059B0002346FFF7A1FA174B186010B1012009B078
:1059C000F0BD4FF0500383F31188BFF36F8FBFF327
:1059D0004F8FFEE7104F114E3846FEF783F83046E2
:1059E000FEF780F80E4A009517600E4A0E4B1660BF
:1059F00010210E4A0A20FEF7C1FB20600028C2D009
:105A00000B49FEF729FFBEE72455002098610108E5
:105A1000095700082055002044550020305500202B
:105A20002C550020285500202C5400207C540020A8
:105A30009061010807F0A0BD1EB400F08DF81EBCF7
:105A4000FBF7E2F8F0B50278472A83B00C461D4612
:105A500019D0264E0020336801909B683046984745
:105A600078B1019B1B6801930227236831462046C9
:105A70001E6901AA0123B04738BB0746384603B068
:105A8000F0BD0127F1E743784E2BE2D18378552B07
:105A9000DFD1C378432BDCD10379462B1AD0432BBB
:105AA000D7D143792B2BD4D183792B2BD1D1C37967
:105AB000012BCED850F8206C4FF0000301930ABFA1
:105AC0003046583056F8786CC5E7019B2B60384655
:105AD00003B0F0BD43794F2BBBD18379522BB8D1A2
:105AE000C0790028B5D1024EB5E700BF186E010895
:105AF000EC6D010810B5044600F07AF8224612F861
